:020000040800F2
:10000000200400209D010008E90400083B040008CA
:10001000E504000811020008E50E000800000000D9
:1000200000000000000000000000000009070008B8
:1000300015020008000000009D050008F9070008EF
:10004000B7010008B7010008B7010008B7010008B0
:10005000B7010008B7010008B7010008B7010008A0
:10006000B7010008B7010008B7010008B701000890
:10007000B7010008B7010008B7010008B701000880
:10008000B7010008B7010008B7010008B701000870
:10009000B7010008B7010008B7010008B701000860
:1000A000B7010008B7010008B7010008B701000850
:1000B000B7010008B7010008B7010008B701000840
:1000C000B7010008B7010008B7010008B701000830
:1000D000B7010008B7010008B7010008B701000820
:1000E000B7010008B7010008B7010008B701000810
:1000F000B7010008B7010008B7010008B701000800
:10010000B7010008B7010008B7010008B7010008EF
:10011000B7010008B7010008B7010008B7010008DF
:10012000B7010008B7010008B7010008B7010008CF
:10013000B7010008B7010008B7010008B7010008BF
:10014000B7010008B7010008B7010008B7010008AF
:10015000B7010008B7010008B7010008B70100089F
:10016000B7010008B7010008B7010008B70100088F
:10017000B7010008B7010008B7010008B70100087F
:10018000B7010008B7010008DFF80CD000F02EF826
:1001900000480047BD1000082004002006488047A2
:1001A00006480047FEE7FEE7FEE7FEE7FEE7FEE75C
:1001B000FEE7FEE7FEE7FEE7FD070008890100080D
:1001C00030B50B46014600202022012409E021FA27
:1001D00002F59D4205D303FA02F5491B04FA02F524
:1001E0002844151EA2F10102F1DC30BD064C074D7A
:1001F00006E0E06840F0010394E8070098471034F7
:10020000AC42F6D3FFF7C4FF4C1100086C11000894
:1002100000BFFEE7704700001CB501210C2000F074
:10022000BFF90121062000F0CBF9022207211C486A
:1002300000F0E0F802220621194800F0DBF8022263
:100240000D21184800F0D6F802220C21154800F0C4
:10025000D1F802208DF8040000208DF8060001205E
:100260008DF8070003208DF8050080200090694676
:100270000B4800F077F8402000906946084800F0ED
:1002800071F84FF4005000906946064800F06AF893
:100290004FF4805000906946024800F063F81CBD9E
:1002A00000080240000C024010B5FFF7B5FF00F057
:1002B00001F810BD00B587B00121062000F080F9DB
:1002C000264800F06FFB264800F06CFB01A800F008
:1002D00001FD4FF6FE7002900020ADF80400ADF86D
:1002E0000600ADF80C0001A91C4800F0B1FC01A902
:1002F0001B4800F0ADFC00231A460321174800F00C
:1003000019FC00231A460321154800F013FC04A829
:1003100000F068FC0620ADF8180004A90F4800F0B2
:100320002AFC04A90E4800F026FC01210B4800F02D
:100330002AFB01210A4800F026FB0020074924314E
:1003400008600749243108600121044800F01EFBC1
:100350000121034800F01AFB07B000BD0004004073
:1003600000080040F0B50A4600210023002400BF29
:100370003DE0012505FA01F3156805EA03049C42F6
:1003800034D105684F000326BE40B543056015799A
:100390004E00B5400668354305601579012D02D041
:1003A0001579022D16D185684F000326BE40B5434E
:1003B000856055794E00B54086683543856045684F
:1003C00001268E40B5434560456896798E40B6B2A9
:1003D00035434560C5684F000326BE40B543C56040
:1003E000D5794E00B540C6683543C560491C102913
:1003F000BFD3F0BDF0B5002300244D07ED0E02FA87
:1004000005F3CE1000F1200555F826504E07F70EE3
:100410000F26BE40B543CF1000F1200646F8275006
:10042000CE1000F1200555F8265045EA0304CE1001
:1004300000F1200545F82640F0BD00BFFEE70000B2
:100440001CB501211A2000F0ABF801208DF8040042
:1004500000208DF806008DF8070003208DF80500B8
:100460000120009069461C48FFF77CFF1020009097
:1004700069461A48FFF776FF202000906946174822
:10048000FFF770FF4FF48050009069461248FFF765
:1004900069FF4FF48050009069460F48FFF762FFF4
:1004A0004FF40070009069460D48FFF75BFF012094
:1004B00009491A31088010200849488320204883C0
:1004C000C00105491A310880042005491A31088005
:1004D000C00108801CBD0000000402400010024062
:1004E000000C024000BFFEE7704708B54FF4C06043
:1004F00000F04AF826208DF8000001208DF8010058
:100500008DF802008DF80300684600F001F808BD80
:1005100070B5002100230F22C4781CB3174C246847
:1005200004F4E064C4F5E064C4F30721C1F10404F9
:10053000E3B20A4144789C40E1B2847814402143FC
:100540000C07210E0E4C05786155047804F01F0548
:100550000124AC4005786D11AD0005F1E025C5F82A
:10056000004109E0047804F01F050124AC40054D6A
:100570000678761145F8264070BD00000CED00E0CD
:1005800000E400E080E100E002490143024A11601A
:10059000704700000000FA050CED00E07047000015
:1005A00029B1064A12680243044B1A6004E0034A68
:1005B00012688243014B1A607047000030380240D5
:1005C00029B1064A12680243044B1A6004E0034A48
:1005D00012688243014B1A607047000040380240A5
:1005E00029B1064A12680243044B1A6004E0034A28
:1005F00012688243014B1A607047000020380240A5
:1006000029B1064A12680243044B1A6004E0034A07
:1006100012688243014B1A60704700002438024080
:10062000F0B5002100220024022500260223324FCB
:100630003F6807F00C0121B1042905D0082937D102
:1006400005E02E4F076036E02D4F076033E02A4F5C
:100650003F1F3F68C7F38056274F3F1F3F6807F093
:100660003F036EB1264FB7FBF3F7DFF88CC0ACF158
:10067000040CDCF800C0CCF3881C07FB0CF40CE085
:100680001E4FB7FBF3F7DFF870C0ACF1040CDCF8D9
:1006900000C0CCF3881C07FB0CF4174F3F1F3F68CA
:1006A000C7F301477F1C7D00B4FBF5F7076002E04C
:1006B000124F076000BF00BF0F4F3F6807F0F00107
:1006C0000909104F7A5C0768D74047600A4F3F68B6
:1006D00007F4E051890A0B4F7A5C4768D74087607E
:1006E000054F3F6807F46041490B064F7A5C476845
:1006F000D740C760F0BD0000083802400024F40075
:1007000000127A0000000020704700000CB50020A5
:10071000019000903448006840F48030324908600D
:1007200000BF3148006800F4003000900198401C80
:100730000190009818B90198B0F5A04FF1D12A485E
:10074000006800F4003010B10120009001E00020AA
:1007500000900098012846D123484030006840F0BE
:1007600080502149403108602048006840F44040F2
:100770001E4908601C48083000681B4908310860A1
:100780000846006840F4004008600846006840F4ED
:10079000A05008601648091F0860081F006840F054
:1007A0008070091F086000BF0F48006800F00070EB
:1007B0000028F9D040F205700E4908600A48083058
:1007C000006820F003000849083108600846006806
:1007D00040F00200086000BF03480830006800F0E5
:1007E0000C000828F8D10CBD003802400070004011
:1007F00019544007003C02407047000010B51548EE
:10080000006840F47000134908601348006840F025
:1008100001001149086000200F49083108600E48A6
:1008200000680E4908400C4908600D48091D086021
:10083000081F006820F48020091F08600020064976
:100840000C310860FFF762FF4FF00060014980390A
:10085000086010BD88ED00E000380240FFFFF6FEA2
:1008600010300024F0B50C46154600210022068CFD
:100870004FF6FE773E400684018B028C4FF60C76D5
:1008800031407E1C06EA03162E4331434FF6F576BF
:10089000324044F00106324301830284F0BDF0B5DA
:1008A0000C461546002100220026078C4FF6EF7CEF
:1008B00007EA0C070784018B028C4FF6FF7707EAE3
:1008C000041640F6FF4739404FF6FF7707EA033733
:1008D00039434FF6FF7707EA052739434FF65F772D
:1008E0003A4046F010073A4301830284F0BDF0B568
:1008F0000C461546002100220026078C4FF6FF6C9F
:1009000007EA0C070784818B028C4FF6FF7707EA12
:1009100004264FF60C7739404FF6FF7707EA0317A6
:100920002F4339434FF2FF573A4046F480773A431A
:1009300081830284F0BDF0B50C46154600210022EB
:100940000026078C4EF6FF7C07EA0C070784818B94
:10095000028C4FF6FF7707EA043640F6FF4739402E
:100960004FF6FF7707EA052739434FF6FF7707EA87
:100970000337394345F6FF773A4046F480573A4308
:1009800081830284F0BDCA430282704721B102888C
:1009900042F00102028004E002884FF6FE731A4022
:1009A0000280704710B504465548844208D10121A1
:1009B0000846FFF725FE00210120FFF721FE9DE0FC
:1009C000B4F1804F08D101210846FFF709FE00214C
:1009D0000120FFF705FE91E04A48844208D1012139
:1009E0000220FFF7FDFD00210220FFF7F9FD85E061
:1009F0004548844208D101210420FFF7F1FD002180
:100A00000420FFF7EDFD79E04048844208D1012140
:100A10000820FFF7E5FD00210820FFF7E1FD6DE06C
:100A20003B48844208D101211020FFF7D9FD002165
:100A30001020FFF7D5FD61E03648844208D101213E
:100A40002020FFF7CDFD00212020FFF7C9FD55E054
:100A50003148844208D101210220FFF7D1FD002155
:100A60000220FFF7CDFD49E02C48844209D1012145
:100A70000804FFF7C5FD00214FF48030FFF7C0FDEB
:100A80003CE02748844209D101214804FFF7B8FD22
:100A900000214FF40030FFF7B3FD2FE021488442DE
:100AA00009D101218804FFF7ABFD00214FF480201C
:100AB000FFF7A6FD22E01C48844208D10121402016
:100AC000FFF78EFD00214020FFF78AFD16E0174852
:100AD000844208D101218020FFF782FD002180207F
:100AE000FFF77EFD0AE01248844207D101218015FC
:100AF000FFF776FD0021A015FFF772FD10BD000085
:100B0000000001400004004000080040000C0040CC
:100B1000001000400014004000040140004001406B
:100B2000004401400048014000180040001C004003
:100B300000200040F0B50C4615461E46002100225C
:100B400000230189028B038C4FF6F877394021434B
:100B50004FF6FC473A4040F201173A434FF6DD7733
:100B60003B404FF6FF7707EA06172F433B430181CF
:100B700002830384F0BD70B505460C46208850B949
:100B80002389A28861882846FFF76CFEE188284601
:100B900000F031F825E0208804280AD12389A288B2
:100BA00061882846FFF77BFEE188284600F02CF894
:100BB00017E0208808280AD12389A288618828465E
:100BC000FFF795FEE188284600F02BF809E023891D
:100BD000A28861882846FFF7AEFEE188284600F02B
:100BE00029F870BD00210180418001218180002110
:100BF000C18001817047028B4FF6F3731A40028364
:100C0000028B0A4302837047028B4FF2FF331A4074
:100C10000283028B4FF6FF7303EA01231A43028318
:100C20007047828B4FF6F3731A408283828B0A439C
:100C300082837047828B4FF2FF331A408283828B0C
:100C40004FF6FF7303EA01231A43828370470000C3
:100C500000220288184B98420ED0184B98420BD0B5
:100C6000B0F1804F08D0164B984205D0154B9842F2
:100C700002D0154B984204D14FF68F731A404B881F
:100C80001A43124B984207D0114B984204D04FF6AA
:100C9000FF431A400B891A4302804B68C3620B88DA
:100CA0000385054B984202D0044B984201D18B7AC0
:100CB0000386012383827047000001400004014045
:100CC0000004004000080040000C004000100040FC
:100CD000001400404FF0FF3141600021018001818C
:100CE000418081727047000000B587B0012108463D
:100CF000FFF756FC01214804FFF762FC072202219E
:100D00002048FFF777FB072203211E48FFF772FBFD
:100D100003208DF8190000208DF81A0002208DF8AC
:100D2000180001208DF81B000420059005A9154826
:100D3000FFF718FB0820059005A91248FFF712FBE2
:100D40004FF4E13001900020ADF80800ADF80A0042
:100D5000ADF80C000C20ADF80E000020ADF810002E
:100D600001A9094800F050F8FFF7BFFB012240F24B
:100D70002551054800F023F80121034800F006F84A
:100D800007B000BD000002400044004021B182894C
:100D900042F40052828104E082894DF6FF731A40CA
:100DA0008281704702460020B1F5007F00D100BF6C
:100DB00013880B400BB1012000E000207047F0B514
:100DC0000346002400260025002040F66A17B94299
:100DD00000D100BF1846C1F3421401F01F060127DD
:100DE00007FA06F5012C01D10C3004E0022C01D1E8
:100DF000103000E014301AB107682F43076002E09A
:100E00000768AF430760F0BD2DE9FF4705460E4672
:100E10000024A14600BFA046B08900B100BF2C8AC3
:100E200024F44054F08804432C82AC8941F20C60D5
:100E30008443B08831890843718908430443AC81F5
:100E4000AC8A24F44074B0890443AC826846FFF74E
:100E5000E7FB2048854202D01F48854202D1DDF8D9
:100E60000C9001E0DDF80890A88900F4004040B142
:100E700009EBC90000EB091031684900B0FBF1F73C
:100E800007E009EBC90000EB091031688900B0FBED
:100E9000F1F76420B7FBF0F004012009642101FBA5
:100EA0001078A88900F4004040B1322000EBC8005F
:100EB000B0FBF1F000F00700044308E0322000EB43
:100EC00008106421B0FBF1F000F00F0004432C8106
:100ED000BDE8FF870010014000140140C1F3080283
:100EE0008280704700BFFEE70FB4054B10B503A921
:100EF000044A029800F018F810BC5DF814FB0000DA
:100F0000991000081800002002E008C8121F08C14C
:100F1000002AFAD170477047002001E001C1121F7A
:100F2000002AFBD1704700002DE9FF4F89B09B4696
:100F30000446002506E025280BD05A460B99904719
:100F4000641C6D1C20780028F5D10DB02846BDE842
:100F5000F08F0027B8460122474900E0074314F804
:100F6000013F203B02FA03F00842F7D120782E28F7
:100F700019D114F8010F47F004072A280ED06FF09A
:100F80002F022078A0F1300109290CD808EB880144
:100F900002EB410100EB0108641CF2E70A98641CB3
:100FA00050F8048B0A9020780028CED0642808D00E
:100FB000692806D075281ED05A460B9990476D1C9B
:100FC00058E00A994FF00A0901C90A91002802DA8B
:100FD00040422D2102E0390504D52B218DF8201047
:100FE000012103E0F90704D02021F7E78A4608AE83
:100FF0000DE00021FAE70A994FF00A0901C90A91A8
:10100000F7E74946FFF7DCF8303106F8011D002804
:10101000F7D1ADEB060000F12009780701D44FF0BD
:101020000108C84502DDA8EB090000E00020804669
:10103000002706E008A85A46C05D0B9990476D1C32
:101040007F1C5745F6DB04E030205A460B99904749
:101050006D1CB8F10001A8F10108F5DC05E016F8F7
:10106000010B5A460B9990476D1CB9F10001A9F18B
:101070000109F4DC641C65E709280100002107E090
:10108000002200E0521C48F240339A42FAD3491C35
:101090008142F5D37047000070B504460D46E1B2B9
:1010A0000548FFF71BFF00BF80210348FFF77AFECA
:1010B0000028F9D0204670BD004400403220FFF7E0
:1010C000DDFFFFF711FEFFF7EFF8FFF7B9F912A008
:1010D000FFF70AFF1EE03220FFF7D0FF0F4800683D
:1010E00080B20F4908600F48006880B20E4908605E
:1010F0000B480468E01704EB907081100BA0FFF719
:10110000F3FE09480468E01704EB907081100BA00F
:10111000FFF7EAFEDFE700004F4B00002404004029
:10112000100000202408004014000020656E636F4A
:101130006465313D2564202020200000656E636FCA
:101140006465313D256420200A0000006C11000810
:10115000000000201C000000080F00088811000893
:101160001C00002004040000180F0008000000000C
:10117000010203040102030406070809000000003D
:08118000000000000000000067
:040000050800018965
:00000001FF
