:020000040800F2
:10000000280800209D010008751D0008F50D000856
:10001000391C00087B090008892B0008000000003B
:100020000000000000000000000000002120000887
:10003000DD0A000800000000291E00084D2100080C
:10004000B7010008B7010008B7010008B7010008B0
:10005000B7010008B7010008B7010008B7010008A0
:10006000B7010008B7010008B7010008B701000890
:10007000B7010008B7010008B7010008B701000880
:10008000B7010008B7010008B7010008B701000870
:10009000B7010008B7010008B7010008B701000860
:1000A000B7010008B7010008B7010008B701000850
:1000B000B7010008B7010008B7010008B701000840
:1000C000B7010008B7010008B7010008B701000830
:1000D000B7010008B7010008B7010008B701000820
:1000E000B7010008B7010008B7010008DD220008C9
:1000F000B7010008B7010008B7010008B701000800
:10010000B7010008B7010008B7010008B7010008EF
:10011000B7010008B7010008B7010008B7010008DF
:10012000B7010008B7010008B7010008B7010008CF
:10013000B7010008B7010008B7010008B7010008BF
:10014000B7010008B7010008B7010008B7010008AF
:10015000B7010008B7010008B7010008B70100089F
:10016000B7010008B7010008B7010008B70100088F
:10017000B7010008B7010008B7010008B70100087F
:10018000B7010008B7010008DFF80CD000F092FAC0
:100190000048004799370008280800200648804793
:1001A00006480047FEE7FEE7FEE7FEE7FEE7FEE75C
:1001B000FEE7FEE7FEE7FEE751210008890100089F
:1001C000DFED300AB5EEC00A60EE200ABDEEE01A9F
:1001D00011EE100AF1EE10FA38BF401E00EE100AC0
:1001E0009FED291AB8EEC00A70EEC00A20EE810A0F
:1001F000BCEEC00A10EE100A00EE100A0028B8EE9D
:10020000C00A10EE810AB8BF002004DBB0F5807F81
:10021000C8BF4FF480701D4960EE000AB6EE001AA8
:10022000DFED1C2A9FED1A2A60EE011A60EE225AB9
:1002300020EE813A20EE022A21EEA01A01EB800086
:1002400073EE655A62EE202AB7EE006A33EE003A8A
:10025000D0EC043A76EE611A71EE600A35EEE20AED
:1002600033EE413A32EEC21A70EEA10A20EE230AB2
:1002700064EE831A04EE200A45EE011A31EE800A7C
:100280007047000083F9223E000080437038000868
:10029000ABAA2A3EABAAAA3E00F0004230F00040D2
:1002A0000AD0C10D01F56071C0F3160042EA015198
:1002B000C20840071143704700200146704730B51F
:1002C0000B46014600202022012409E021FA02F514
:1002D0009D4205D303FA02F5491B04FA02F52844AE
:1002E000151EA2F10102F1DC30BD2DE9F05F0546DB
:1002F000002092469B4688460646814640241BE0E5
:10030000284641464746224600F0F5F953465A46EC
:10031000C01A914110D311461846224600F0DCF96C
:100320002D1A67EB01084F4622460120002100F0FC
:10033000D3F917EB00094E41201EA4F10104DFDCC4
:10034000484631462A464346BDE8F09F2DE9FE4F18
:10035000804681EA0300C00F0C46009021F0004166
:1003600023F00045B8EB0200A94105D240462146E2
:1003700090461C460B46024623F00040104347D0EF
:10038000270DC7F30A00C3F30A510290401A0190E7
:1003900040286BDAC3F3130040F4801B00989246A8
:1003A00020B10023D2EB030A63EB0B0B01985946F3
:1003B000C0F14002504600F08FF906460D46504607
:1003C0005946019A00F0A7F910EB0800614100249A
:1003D00087EA115284EAE7731A4340D0009A62B365
:1003E000019A012A4FEA075215DC001B61EB02015A
:1003F0004FF0004202EA0752CDE90042001C41F5ED
:10040000801132462B4600F0A5F903B0BDE8F08F0D
:1004100040462146F9E7001B61EB0201001C41F553
:10042000801300185B412018A2F5001747EB030169
:1004300040EAD570B6196D4111E06D084FEA3606F5
:1004400045EAC0754FEA0752001B61EB0201001C30
:1004500041F5801149084FEA3000001951413246F8
:100460002B4603B0BDE8F04F00F067B900980122B9
:1004700040000023D0EB020263EBE07300982146BA
:100480004FEAE074B8EB000061EB0401E9E783F0A8
:1004900000435BE781F0004158E72DE9FE4F81EA18
:1004A000030404F0004421F0004100944FF0000BDD
:1004B00023F0004350EA01045ED052EA03045BD00B
:1004C000C3F30A54C1F30A552C44A4F2F334019443
:1004D000A0FB0254C1F3130141F48011C3F31303D1
:1004E00043F4801301FB024400FB034E840A970A85
:1004F00044EA815447EA8357A4FB076802958D0AB2
:1005000005FB07854FEA932C04FB0C542705029D3D
:100510004FEA065847EA1637B5EB08056EEB070CAD
:10052000870E920E47EA811742EA8312A7FB020167
:10053000B6EB0B0164EB00042B0D43EA0C335E18A1
:1005400044EB1C50DA465146E7FB0201C5F31304A5
:100550004FEA0B3343EA14534FEA0432019C43EA57
:100560000603A4F10C040294009CCDE900B400F051
:10057000F1F803B0BDE8F08F00200146F9E72DE95E
:10058000F04D81EA030404F0004B21F000451446CD
:100590004FF0000A23F0004150EA050220D054EA4F
:1005A00001021DD0C5F30A570246C5F31303C1F378
:1005B0001300C1F30A5640F4801543F48013A7EBEF
:1005C0000608101BD64608F2FD3873EB050002D36F
:1005D00008F1010801E092185B41B8F1000F03DA5D
:1005E00000200146BDE8F08D00204FF48011064642
:1005F00084460EE0171B73EB050705D3121B63EB54
:10060000050306434CEA010C49084FEA30009218F2
:100610005B4150EA0107EDD152EA030012D082EAB1
:10062000040083EA0501084305D0101BAB4106D244
:100630000122002306E000224FF0004302E06FF0A9
:10064000010253101AEB06004CEB085110EB0A00A4
:1006500041EB0B01BDE8F04D00F06FB8C1F30A5259
:10066000C1F3130140F2FF3341F480119A4202DAE0
:1006700000200146704740F233439A42A2F23342CF
:1006800002DC524200F037B800F026B830B500293D
:1006900004DB4FF00044404264EB0101002B04DB1B
:1006A0004FF00044524264EB0303994208BF90426A
:1006B00030BD0000064C074D06E0E06840F0010345
:1006C00094E8070098471034AC42F6D3FFF760FD7A
:1006D000A03C0008C03C0008202A04DB203A00FAB5
:1006E00002F1002070479140C2F1200320FA03F389
:1006F000194390407047202A04DB203A21FA02F087
:100700000021704721FA02F3D040C2F1200291404B
:10071000084319467047202A06DBCB17203A41FAD6
:1007200002F043EAE07306E041FA02F3D040C2F17E
:100730002002914008431946704710B5002B08DA93
:10074000401C41F1000192185B411A4301D120F095
:10075000010010BD2DE9F04D92469B4611B1B1FA52
:1007600081F202E0B0FA80F220329046FFF7B4FF47
:1007700004460F4640EA0A0041EA0B0153465A4636
:10078000084313D0114653EA010019D0C8F14002C2
:100790005046FFF7B0FF05460E46504659464246C2
:1007A000FFF79AFF084305D0012004E020463946B0
:1007B000BDE8F08D0020054346EAE0762C43374340
:1007C0000A986305E40AA0EB08000022FD0A44EA47
:1007D00047540A3002D500200146E9E70105101907
:1007E0006941DDE9084500196941BDE8F04DA4E71C
:1007F00021B1826842F00102826003E0826822F047
:1008000001028260704700000021084A1168084A0E
:100810001140D0E900231A4383681A43C3681A437E
:100820001143044AC2F80413704700000423014036
:10083000E030FCFF0020014021B1826842F4807268
:10084000826003E0826822F480728260704721B186
:10085000826842F40072826003E0826822F40072CF
:100860008260704730B50246002000235068104C6B
:1008700020400D790C6844EA0524204350609068BC
:100880000C4C2040D1E903542C438D682C434D7906
:1008900044EA450420439060D06A20F470000C7D47
:1008A000641EE4B2234340EA0350D06230BD00002E
:1008B000FFFEFFFCFDF7FFC0F0B504460D4600202B
:1008C0000021092D11DDE068A5F10A0606EB4607B7
:1008D000072606FA07F18843A5F10A0606EB460645
:1008E00003FA06F10843E0600CE0206905EB4507D8
:1008F000072606FA07F1884305EB450603FA06F1D9
:1009000008432061072A0FDA606B561E06EB860744
:100910001F2606FA07F18843561E06EB860605FADF
:1009200006F10843606322E00D2A0FDA206BD61F20
:1009300006EB86071F2606FA07F18843D61F06EB4B
:10094000860605FA06F10843206310E0E06AA2F18A
:100950000D0606EB86071F2606FA07F18843A2F16B
:100960000D0606EB860605FA06F10843E062F0BDC7
:10097000816841F080418160704700BFFEE7000060
:100980001CB50121102001F051FA01220E210B4863
:1009900000F004FA02208DF8040000208DF8060013
:1009A0008DF8070003208DF805004FF4804000907B
:1009B0006946024800F0AAF91CBD00000010024080
:1009C00010B5FFF7DDFF00F081FC00F001F810BD6D
:1009D00000B589B00121084601F058FA5A20079065
:1009E0003B20ADF818000020ADF82000ADF81A004B
:1009F0008DF8220006A91C4801F064FF6020ADF8C4
:100A000004000020ADF810000120ADF80600002021
:100A1000039001A9144801F0DBFD0821124801F000
:100A200015FE01A9104801F01BFE08210E4801F037
:100A300069FE01A90C4801F073FE08210A4801F083
:100A4000BFFE01A9084801F0C5FE0821064801F0D3
:100A5000FDFE0121044801F059FC0121024801F08A
:100A600061FC09B000BD00000000014021B1026836
:100A700042F00102026003E0026822F0010202601B
:100A80007047000010B500220268134B1A40CC6872
:100A90000B6823434C6923438C692343CC6923436C
:100AA0000C6A23434C6A23438C6A23434C6B2343D5
:100AB0008C6B23431A430260426922F00702D1E99A
:100AC0000B3423431A4342610B6943604B688360D4
:100AD0008B68C36010BD00003F801CF070470000B1
:100AE0001CB501210C2001F0A1F9022207211C48AC
:100AF00000F054F902220621194800F04FF90222B1
:100B00000D21184800F04AF902220C21154800F086
:100B100045F902208DF8040000208DF80600012020
:100B20008DF8070003208DF80500802000906946AD
:100B30000B4800F0EBF8402000906946084800F0B0
:100B4000E5F84FF4005000906946064800F0DEF8E2
:100B50004FF4805000906946024800F0D7F81CBD61
:100B600000080240000C024010B5FFF7B9FF00F08A
:100B700001F810BD00B587B00121062001F066F92B
:100B8000274801F0DFFB274801F0DCFB01A801F05A
:100B9000DBFE4FF6FE7002900020ADF80400ADF8C9
:100BA0000600ADF80C0001A91D4801F08BFE01A95B
:100BB0001C4801F087FE00231A460321184801F063
:100BC00089FC00231A460321164801F083FC04A87F
:100BD00001F0ECFC0620ADF8180004A9104801F063
:100BE000AEFC04A90F4801F0AAFC01210C4801F059
:100BF00087FB01210B4801F083FB0021084801F02D
:100C000032FE0021074801F02EFE0121044801F0C8
:100C10007DFB0121034801F079FB07B000BD000016
:100C2000000400400008004010B52E4801F073FC9D
:100C30002D490860084600682C490968401A2C496B
:100C40000860294800682949086029480068B0F50B
:100C5000004F06DB26480068A0F580302449086074
:100C60000AE02348006810F5004F05DC20480068C2
:100C700000F580301E4908601E4800681C4909685C
:100C800008441C4908601C4801F045FC1B490860E9
:100C9000084600681A490968401A1A490860174846
:100CA00000681749086017480068B0F5004F06DB78
:100CB00014480068A0F58030124908600AE0114825
:100CC000006810F5004F05DC0E48006800F5803024
:100CD0000C4908600C4800680A49096808440A4938
:100CE000086010BD000400404000002048000020C3
:100CF00030000020380000200008004044000020A0
:100D00004C000020340000203C000020F0B50A46D2
:100D100000210023002400BF3DE0012505FA01F376
:100D2000156805EA03049C4234D105684F00032688
:100D3000BE40B543056015794E00B54006683543A1
:100D400005601579012D02D01579022D16D185681F
:100D50004F000326BE40B543856055794E00B5402F
:100D6000866835438560456801268E40B5434560F9
:100D7000456896798E40B6B235434560C5684F00E8
:100D80000326BE40B543C560D5794E00B540C66860
:100D90003543C560491C1029BFD3F0BDF0B5002311
:100DA00000244D07ED0E02FA05F3CE1000F12005E8
:100DB00055F826504E07F70E0F26BE40B543CF100C
:100DC00000F1200646F82750CE1000F1200555F816
:100DD000265045EA0304CE1000F1200545F82640D0
:100DE000F0BD0246002013690B400BB1012000E06A
:100DF0000020704700BFFEE740480068B0F57A7FEA
:100E000000D970473D480068B0F57A7F35D13C483D
:100E100000684FF47A71B0FBF1F039490860394845
:100E200000684FF47A71B0FBF1F03649086036483B
:100E300000684FF47A71B0FBF1F033490860334831
:100E400000684FF47A71B0FBF1F030490860304827
:100E500000684FF47A71B0FBF1F02D4908602D481D
:100E600000684FF47A71B0FBF1F02A49086023481A
:100E70000068401C21490860C3E72048006860B949
:100E800000201F4908601F4908601F4908601F496A
:100E900008601F4908601F490860194800681E491A
:100EA0000968084416490860164800681B49096823
:100EB000084414490860144800681949096808443E
:100EC00011490860114800681649096808440F492B
:100ED00008600F4800681449096808440C49086014
:100EE0000C4800681149096808440A490860034829
:100EF0000068401C0149086000BF82E78C000020A8
:100F000074000020780000207C0000208000002079
:100F100084000020880000205000002054000020A1
:100F2000580000205C0000206000002064000020C9
:100F300000B500F073F8FFF75FFF12480068C0F3D8
:100F40000F101149088011480068C0F30F101049B4
:100F5000088010480068C0F30F100F4908800F4840
:100F60000068C0F30F100E4908800E480068C0F3F7
:100F70000F100D4908800D480068C0F30F100C4990
:100F8000088000BD500000206800002054000020B0
:100F90006A000020580000206C0000205C00002047
:100FA0006E0000206000002070000020640000201F
:100FB000720000201CB50121052000F037FF03203E
:100FC0008DF8040000208DF807002020009069466D
:100FD0001048FFF79BFE1020009069460D48FFF770
:100FE00095FE8020009069460B48FFF78FFE102089
:100FF000009069460848FFF789FE20200090694666
:101000000548FFF783FE4020009069460248FFF73D
:101010007DFE1CBD000802400000024000210020AF
:1010200000223E4B1A603E4B1A603E4B1A603E4B0C
:101030001A603E4B1A603E4B1A6000BF1EE000EB88
:101040004002D1B23B4A32F81120344B1B681A449B
:10105000324B1A60374B4A1C33F81220304B1B6856
:101060001A442F4B1A60334B8A1C33F812202D4B35
:101070001B681A442B4B1A60421CD0B23228DEDBAC
:1010800000201EE000EB4002D1B22B4A32F81120C2
:10109000254B1B681A44244B1A60274B4A1C33F813
:1010A0001220224B1B681A44204B1A60224B8A1CC8
:1010B00033F812201E4B1B681A441D4B1A60421C49
:1010C000D0B23228DEDB154A12683223B2FBF3F2CB
:1010D000124B1A60124A12683223B2FBF3F2104B21
:1010E0001A60104A12683223B2FBF3F20D4B1A60F9
:1010F0000D4A12683223B2FBF3F20B4B1A600B4A13
:1011000012683223B2FBF3F2084B1A60084A1268E5
:101110003223B2FBF3F2064B1A60704750000020F6
:1011200054000020580000205C00002060000020D7
:101130006400002098000020C401002010B5FFF7D3
:1011400039FF00F001F810BD00B599B001214FF44E
:10115000407000F09BFE0121880500F067FE002032
:101160000D900F904FF4806010904000119080001F
:10117000129040111390400214900020159001200D
:1011800016900020179018904B480B904B480C90ED
:1011900096200E9000200A900AA94948FFF772FC99
:1011A00001214748FFF762FC46480B9046480C90E7
:1011B00096200E904FF000700A900AA940483030F7
:1011C000FFF760FC01213E483030FFF74FFC002064
:1011D00000900190029003906846FFF715FB0020F5
:1011E000049001208DF814008DF815000020069061
:1011F000089003208DF8240004A92F484C38FFF7ED
:1012000031FB03208DF8240004A92E484C38FFF749
:1012100029FB002301220F2127484C38FFF74CFB04
:10122000002302220E2124484C38FFF745FB0023FF
:101230000322072120484C38FFF73EFB0023012200
:10124000042120484C38FFF737FB002302220521F8
:101250001C484C38FFF730FB0023032206211948B5
:101260004C38FFF729FB012113484C38FFF7EFFA00
:10127000012111484C38FFF7DFFA01210E484C38A4
:10128000FFF7B6FA01210F484C38FFF7E0FA0121C9
:101290000C484C38FFF7D0FA01210A484C38FFF7C8
:1012A000A7FA05484C38FFF763FB06484C38FFF7B0
:1012B0005FFB19B000BD00004C20014098000020E9
:1012C000106402404C210140C40100201CB50121E2
:1012D000102000F0ABFD01208DF8040000208DF8F7
:1012E00006008DF8070003208DF805004FF400700C
:1012F000009069460C48FFF709FD4FF4006000902C
:1013000069460948FFF702FD4FF400500090694616
:101310000548FFF7FBFC4FF4007003494883800049
:101320004883800048831CBD001002401CB5012189
:101330001B2000F07BFD01208DF8040000208DF8BB
:1013400006008DF8070003208DF8050001200090AD
:1013500069461C48FFF7DAFC1020009069461A48DD
:10136000FFF7D4FC2020009069461748FFF7CEFC19
:101370004FF48050009069461248FFF7C7FC4FF4C5
:101380000040009069461148FFF7C0FC4FF4007020
:10139000009069460E48FFF7B9FC012009491A314F
:1013A000088010200849488320204883C00105494F
:1013B0001A310880C00005494883801104491A3158
:1013C00008801CBD000402400010024000000240E2
:1013D000000C024010B52DED068B0446F0EE409A4D
:1013E000F0EE608A9FED330AB0EE40AA9FED310A1D
:1013F000B0EE408A9FED2F0AB0EE409A89EEA80A1F
:10140000B0EE40AA9FED2C0AC0EE0A0AF0EE60AAE8
:10141000B0EE6A0A01F0DEFBB0EE408A9FED270ACB
:10142000FEF7CEFEF0EE000A60EE200AB7EE000AEC
:1014300000EE880A08EE080AB0EE409AC4ED008A71
:1014400094ED000AB5EEC00AF1EE10FA2FDD28EE99
:10145000080AC0EE090AC4ED030A94ED030AF0EE8F
:10146000000A20EE200A84ED040A94ED030A84EDBC
:10147000050AB7EE000A18EE080AF0EE000A20EEA0
:10148000200AC0EE090AC4ED010A9FED0C0AFEF71E
:1014900097FEF0EE000A60EE200AB7EE000A00EEBA
:1014A000C80A08EE080AC0EE090AC4ED020ABDEC3B
:1014B000068B10BD00000000DB0F4940DB0F493FE9
:1014C000002001E0411CC8B20528FBDB704700008A
:1014D0001CB501210C2000F0A9FC02208DF80500AC
:1014E00001208DF8060000208DF8070001208DF8FE
:1014F0000400009069460E48FFF708FC4FF4805046
:10150000009069460B48FFF701FC00208DF80600AB
:1015100003208DF805004FF40060009069460548EF
:10152000FFF7F4FB4FF4006002491A3108801CBD3C
:10153000000C02400008024070B50024002516E0AF
:101540006006040E01200C490880FFF7B9FF4FF434
:1015500080510A48FFF745FC08B1601CC4B2012065
:101560000549891C0880FFF7ABFF681CC5B2082D30
:10157000E6DB204670BD0000180C02400008024067
:1015800070B504460D46204600F030F800F0E4F84F
:10159000204600F039F900F015F900B119E02846AD
:1015A00000F032F900F00EF900B112E000F0D4F8CA
:1015B00044F0010000F028F900F004F900B108E05F
:1015C000FFF7BAFF064600F0B1F800F0E1F8304648
:1015D00070BD03A001F0DAFA00F0DAF80020F7E7B6
:1015E000B6C1C8A1B4EDCEF3200A000010B5044680
:1015F00000BF00F0CDF800F0AFF8204600F004F98D
:1016000000F0E0F80028F4D100F0C2F810BD0000AE
:101610002DE9F04105460F4616461C46641C284637
:10162000FFF7E4FF00F098F8284600F0EDF800F02E
:10163000C9F800B127E0384600F0E6F800F0C2F83B
:1016400000B120E000F088F845F0010000F0DCF87F
:1016500000F0B8F800B116E00CE0012C03D100F066
:1016600065F800F095F8FFF767FF3070761C641E90
:1016700000F016F8002CF0D100F058F800F088F8CF
:101680000120BDE8F08103A001F080FA00F080F8AD
:101690000020F6E7B6C1C8A1B4EDCEF3200A0000E1
:1016A00010B54FF48050094908800120084908808E
:1016B000FFF706FF01200649891C08800003034943
:1016C000891E0880FFF7FCFE10BD00001A080240CA
:1016D000180C024070B504460D46164600F03CF862
:1016E000204600F091F800F06DF800B111E02846B6
:1016F00000F08AF800F066F800B10AE0304600F029
:1017000083F800F05FF800B103E000F041F8012039
:1017100070BD03A001F03AFA00F03AF80020F7E7B4
:10172000B7A2CBCDB4EDCEF3200A000010B54FF434
:10173000805007490880012006490880FFF7C0FE55
:1017400001200449891C0880FFF7BAFE10BD000083
:1017500018080240180C024010B54FF480500A4996
:101760000880012009490880FFF7AAFE4FF4805045
:101770000549891C0880FFF7A3FE01200349891C45
:101780000880FFF79DFE10BD18080240180C0240AB
:1017900010B5012009490880000309490880FFF7B6
:1017A0008FFE4FF480500649891E0880FFF788FE9F
:1017B000012002490880FFF783FE10BD180C02408B
:1017C0001A08024010B501200D490880FFF778FE85
:1017D0004FF480510B48FFF704FB08B1012400E0EF
:1017E000002401200649891C0880FFF769FE4FF498
:1017F0008050044918310880FFF762FE204610BD72
:10180000180C02400008024070B5054600241DE097
:1018100005FA04F000F0800020B14FF480500F4929
:10182000088004E04FF480500C49891C0880FFF7C1
:1018300047FE01200A490880FFF742FE01200849BF
:10184000891C0880FFF73CFE601CC4B2082CDFDB5B
:101850004FF480500149088070BD00001808024014
:10186000180C024010B50024234800F0B9F900BF5D
:1018700030E0214A32F91410002901DB0A4600E069
:101880004A42012A09D01C4A32F91400002801DB1F
:10189000024600E04242022A08D19FED180A16488B
:1018A0001A3000EB840080ED000A11E0124830F994
:1018B000140000EE100AB8EEC00A0F481E38D0ED32
:1018C000180A80EE201A383000EB840080ED001AF0
:1018D000601CC4B2032CCCDB07481E3890ED0E0A06
:1018E00080ED140A90ED0F0A80ED150A90ED100AB4
:1018F00080ED160A10BD0000CE030020000000009D
:1019000010B5642001F029FFFFF7E2FD7521D0201A
:10191000FFF736FE80226B21D020FFF7DBFE64202C
:1019200001F01BFF03226B21D020FFF7D3FE002222
:101930001921D020FFF7CEFE05221A21D020FFF773
:10194000C9FE18221B21D020FFF7C4FE10221C2143
:10195000D020FFF7BFFE03221D21D020FFF7BAFEE3
:10196000642001F0FAFE9FED070A074880ED170A90
:101970009FED060A80ED180A9FED050A80ED190A11
:1019800010BD000000008045B00300206F128341AD
:10199000E02E654210B5F3EE090A9FED140A1448D3
:1019A000FFF718FDF3EE090A9FED100A1148FFF743
:1019B00011FDF3EE090A9FED0D0A0F48FFF70AFD2E
:1019C000DFED0E0A9FED090A0D48FFF703FDDFED7D
:1019D0000B0A9FED060A0B48FFF7FCFCDFED070A38
:1019E0009FED020A0848FFF7F5FC10BD0000C84251
:1019F000F0020020100300203003002000003442D9
:101A000050030020700300209003002070B586B0C2
:101A100000240025002600200390049005900090EB
:101A20000190029046A001F0B1F800BF0AE04D48D5
:101A3000406980F020004B494861C82001F08DFECC
:101A4000701CC6B20A2EF2DB20204649088346A04D
:101A500001F09CF8002437E0474800F095F846482C
:101A6000801D00F0BDF844491839B1F918100398E9
:101A70000844039040481838B0F91A000499084403
:101A800004903D481838B0F91C00A0F58050059925
:101A90000844059038491839B1F91E1000980844D7
:101AA000009035481838B0F9200001990844019099
:101AB00031481838B0F922000299084402900120F8
:101AC00001F04BFE601CC4B2642CC5DB642103989A
:101AD00090FBF1F02849183908606421049890FBC4
:101AE000F1F02549183948606421059890FBF1F020
:101AF0002149183988606421009890FBF1F01E4953
:101B00001839C8606421019890FBF1F11A4818381F
:101B100001616421029890FBF1F117481838416186
:101B2000002506E0FFF79EFE0A2001F016FE681C65
:101B3000C5B20A2DF6DB11A001F028F806B070BD81
:101B40000AD5FDD4DABDF8D0D0B4ABB8D0C6F7BD55
:101B5000C3D5FDA3ACC7EBCBAEC6BDB7C5D6C320BE
:101B600020200A00001002400ABFAACABCD0DED55D
:101B7000FD2020200A000000C80300200ABDC3D5B4
:101B8000FDCDEAB3C90A00001CB5044606236A4627
:101B90003B21D020FFF73CFD9DF801009DF800108F
:101BA00040EA01200D490988401A00B220809DF8C2
:101BB00003009DF8021040EA012008498988401A74
:101BC00000B260809DF805009DF8041040EA0120F5
:101BD00002490989401A00B2A0801CBDB003002050
:101BE0001CB5044606236A464321D020FFF710FDAA
:101BF0009DF801009DF8001040EA01200D498989F7
:101C0000401A00B220809DF803009DF8021040EABF
:101C100001210848008A081A00B260809DF805007A
:101C20009DF8041040EA01210248808A081A00B297
:101C3000A0801CBDB003002000BFFEE71CB5012141
:101C4000084600F003F9022201211B48FFF7A6F81D
:101C5000022200211848FFF7A1F8022203211648AA
:101C6000FFF79CF8022211461348FFF797F802206D
:101C70008DF8040000208DF806008DF80700032081
:101C80008DF805000220009069460B48FFF73EF8EA
:101C90000120009069460848FFF738F808200090B6
:101CA00069460548FFF732F804200090694602486B
:101CB000FFF72CF81CBD00000000024010B5FFF734
:101CC000BDFF00F001F810BD00B589B0012108206A
:101CD00000F0BCF840F2E73007900020ADF81800A3
:101CE000ADF82000ADF81A0006A9214800F0EAFD81
:101CF0006020ADF804000220ADF810000120ADF81E
:101D000006000020039001A9194800F061FC082199
:101D1000174800F09BFC0120ADF80600002003905E
:101D200001A9134800F09CFC0821114800F0EAFCCE
:101D30000120ADF806000020039001A90C4800F036
:101D4000EFFC08210A4800F03BFD0120ADF8060039
:101D50000020039001A9064800F03CFD082104483A
:101D600000F074FD0121024800F0D0FA09B000BD76
:101D7000000C0040704708B54FF4C06000F04AF80E
:101D800025208DF8000001208DF801008DF802005B
:101D90008DF80300684600F001F808BD70B5002119
:101DA00000230F22C4781CB3174C246804F4E064A9
:101DB000C4F5E064C4F30721C1F10404E3B20A41AD
:101DC00044789C40E1B28478144021430C07210EF2
:101DD0000E4C05786155047804F01F050124AC40D1
:101DE00005786D11AD0005F1E025C5F8004109E069
:101DF000047804F01F050124AC40054D06787611E7
:101E000045F8264070BD00000CED00E000E400E065
:101E100080E100E002490143024A1160704700007E
:101E20000000FA050CED00E07047000029B1064AF9
:101E300012680243044B1A6004E0034A12688243AA
:101E4000014B1A60704700003038024029B1064A41
:101E500012680243044B1A6004E0034A126882438A
:101E6000014B1A60704700004038024029B1064A11
:101E700012680243044B1A6004E0034A126882436A
:101E8000014B1A60704700002038024029B1064A11
:101E900012680243044B1A6004E0034A126882434A
:101EA000014B1A60704700004438024029B1064ACD
:101EB00012680243044B1A6004E0034A126882432A
:101EC000014B1A607047000024380240F0B5002131
:101ED00000220024022500260223324F3F6807F02B
:101EE0000C0121B1042905D0082937D105E02E4F76
:101EF000076036E02D4F076033E02A4F3F1F3F68F1
:101F0000C7F38056274F3F1F3F6807F03F036EB16E
:101F1000264FB7FBF3F7DFF88CC0ACF1040CDCF80C
:101F200000C0CCF3881C07FB0CF40CE01E4FB7FB81
:101F3000F3F7DFF870C0ACF1040CDCF800C0CCF3B0
:101F4000881C07FB0CF4174F3F1F3F68C7F301477E
:101F50007F1C7D00B4FBF5F7076002E0124F0760BD
:101F600000BF00BF0F4F3F6807F0F0010909104F95
:101F70007A5C0768D74047600A4F3F6807F4E05132
:101F8000890A0B4F7A5C4768D7408760054F3F68E6
:101F900007F46041490B064F7A5C4768D740C76039
:101FA000F0BD0000083802400024F40040787D01B4
:101FB0000000002008B52B208DF8000000208DF8CF
:101FC000010001208DF802008DF803006846FFF73C
:101FD000E5FE08BD0EB501214020FFF737FF632065
:101FE00001905320ADF800000020ADF80800ADF8D6
:101FF00002006946094800F065FCFFF7DBFF01229B
:102000001146064800F0DBFA0021044800F02BFCE2
:102010000121024800F07AF90EBD000000180040CE
:1020200070470EB501210846FFF710FF4FF0FF3053
:1020300001905320ADF800000020ADF80800ADF885
:10204000020069464FF0804000F03CFC00214FF058
:10205000804000F008FC0121880700F057F90EBD10
:102060000CB50020019000903448006840F48030A6
:102070003249086000BF3148006800F40030009029
:102080000198401C0190009818B90198B0F5A04F34
:10209000F1D12A48006800F4003010B1012000900E
:1020A00001E0002000900098012846D123484030EC
:1020B000006840F0805021494031086020480068A5
:1020C00040F440401E4908601C48083000681B4925
:1020D000083108600846006840F40040086008467F
:1020E000006840F4A05008601648091F0860081FE7
:1020F000006840F08070091F086000BF0F4800684A
:1021000000F000700028F9D040F205700E49086018
:102110000A480830006820F00300084908310860C8
:102120000846006840F00200086000BF034808301D
:10213000006800F00C000828F8D10CBD00380240FF
:102140000070004019544007003C024070470000F6
:1021500010B51548006840F4700013490860134832
:10216000006840F001001149086000200F49083163
:1021700008600E4800680E4908400C4908600D4888
:10218000091D0860081F006820F48020091F0860EE
:10219000002006490C310860FFF762FF4FF0006035
:1021A00001498039086010BD88ED00E00038024028
:1021B000FFFFF6FE10300024F0B50C461546002156
:1021C0000022068C4FF6FE773E400684018B028C7F
:1021D0004FF60C7631407E1C06EA03162E4331433F
:1021E0004FF6F576324044F0010632430183028413
:1021F000F0BDF0B50C461546002100220026078CE4
:102200004FF6EF7C07EA0C070784018B028C4FF630
:10221000FF7707EA041640F6FF4739404FF6FF778D
:1022200007EA033739434FF6FF7707EA05273943B3
:102230004FF65F773A4046F010073A430183028435
:10224000F0BDF0B50C461546002100220026078C93
:102250004FF6FF6C07EA0C070784818B028C4FF660
:10226000FF7707EA04264FF60C7739404FF6FF77E1
:1022700007EA03172F4339434FF2FF573A4046F41A
:1022800080773A4381830284F0BDF0B50C46154651
:10229000002100220026078C4EF6FF7C07EA0C077F
:1022A0000784818B028C4FF6FF7707EA043640F6ED
:1022B000FF4739404FF6FF7707EA052739434FF6C6
:1022C000FF7707EA0337394345F6FF773A4046F48C
:1022D00080573A4381830284F0BD000010B500248A
:1022E0000121064800F01AF938B10121034800F035
:1022F0000AF8FEF799FCFEF71BFE10BD001800401F
:10230000CA4302827047CA430282704721B10288E1
:1023100042F00102028004E002884FF6FE731A4088
:102320000280704731B1B0F8442042F40042A0F876
:10233000442005E0B0F84420C2F30E02A0F8442087
:102340007047000010B504465548844208D1012169
:102350000846FFF7ABFD00210120FFF7A7FD9DE038
:10236000B4F1804F08D101210846FFF77FFD00211D
:102370000120FFF77BFD91E04A48844208D101210A
:102380000220FFF773FD00210220FFF76FFD85E0BB
:102390004548844208D101210420FFF767FD002150
:1023A0000420FFF763FD79E04048844208D1012111
:1023B0000820FFF75BFD00210820FFF757FD6DE0C7
:1023C0003B48844208D101211020FFF74FFD002136
:1023D0001020FFF74BFD61E03648844208D101210F
:1023E0002020FFF743FD00212020FFF73FFD55E0AF
:1023F0003148844208D101210220FFF757FD002116
:102400000220FFF753FD49E02C48844209D1012105
:102410000804FFF74BFD00214FF48030FFF746FD25
:102420003CE02748844209D101214804FFF73EFDE2
:1024300000214FF40030FFF739FD2FE0214884429E
:1024400009D101218804FFF731FD00214FF48020DC
:10245000FFF72CFD22E01C48844208D101214020D6
:10246000FFF704FD00214020FFF700FD16E01748AC
:10247000844208D101218020FFF7F8FC0021802050
:10248000FFF7F4FC0AE01248844207D101218015CD
:10249000FFF7ECFC0021A015FFF7E8FC10BD0000E1
:1024A000000001400004004000080040000C004013
:1024B00000100040001400400004014000400140B2
:1024C000004401400048014000180040001C00404A
:1024D00000200040F0B50C4615461E4600210022A3
:1024E00000230189028B038C4FF6F8773940214392
:1024F0004FF6FC473A4040F201173A434FF6DD777A
:102500003B404FF6FF7707EA06172F433B43018115
:1025100002830384F0BD0146486A704730B5024625
:10252000002000230024158A05EA0103958905EAA5
:10253000010413B10CB1012000E0002030BD70B5E2
:1025400005460C46208850B92389A2886188284610
:10255000FFF732FEE188284600F087F925E0208861
:1025600004280AD12389A28861882846FFF741FE02
:10257000E188284600F082F917E0208808280AD16F
:102580002389A28861882846FFF75BFEE1882846F8
:1025900000F081F909E02389A28861882846FFF7C5
:1025A00074FEE188284600F07FF970BD00210180AB
:1025B0004180012181800021C180018170471AB1D1
:1025C00083890B43838102E083898B438381704736
:1025D00070B5002400220023058C4FF6FE763540AE
:1025E0000584028C8388048B4FF68F752C40B51EB2
:1025F0002C400D882C43751E2A408D892A434D8816
:102600002A43104DA84202D00F4DA84213D14FF6D5
:10261000F7752A40CD892A434FF6FB752A408D88ED
:102620002A434FF6FF652B404FF6FF552B400D8A8E
:102630002B434D8A2B43838004838D68456302843A
:1026400070BD000000000140000401400A46002166
:10265000018B4FF6F7731940114301837047000057
:1026600070B5002400220023058C4FF6EF7635402C
:102670000584028C8388048B48F6FF752C404FF646
:10268000FF452C400D884FF6FF7606EA05252C43C2
:102690004FF6DF752A408D8906EA05152A434D88D5
:1026A00006EA05152A43154DA84202D0144DA8424A
:1026B0001DD14FF67F752A40CD894FF6FF7606EA89
:1026C00005152A434FF6BF752A408D8806EA051581
:1026D0002A434FF6FF352B404FF2FF752B400D8AF2
:1026E00006EA85052B434D8A06EA85052B43838040
:1026F00004838D688563028470BD00000000014082
:10270000000401400A460021018B4FF2FF7319407B
:102710004FF6FF7303EA0223194301837047000059
:1027200070B5002400220023058C4FF6FF6635406B
:102730000584028C8388848B4FF68F752C404FF66E
:10274000FC752C400D882C434FF6FF552A408D898F
:102750004FF6FF7606EA05252A434D8806EA052549
:102760002A43154DA84202D0144DA8421DD14FF264
:10277000FF752A40CD894FF6FF7606EA05252A43E4
:102780004FF6FF352A408D8806EA05252A434EF686
:10279000FF752B404DF6FF752B400D8A06EA051597
:1027A0002B434D8A06EA05152B43838084838D686D
:1027B000C563028470BD00000000014000040140B8
:1027C0000A460021818B4FF6F7731940114381832C
:1027D0007047000070B5002200230024058C4EF6DF
:1027E000FF7635400584038C8488828B48F6FF751C
:1027F0002A404FF6FF452A400D884FF6FF7606EA3D
:1028000005252A434DF6FF752B408D8906EA0535CF
:102810002B434D8806EA05352B430A4DA84202D0CA
:10282000094DA84208D14BF6FF752C400D8A4FF692
:10283000FF7606EA85152C43848082838D680564C3
:10284000038470BD00000140000401400A460021DD
:10285000818B4FF2FF7319404FF6FF7303EA022397
:1028600019438183704741627047028B4FF6F373BF
:102870001A400283028B0A4302837047028B4FF295
:10288000FF331A400283028B4FF6FF7303EA0123E2
:102890001A4302837047828B4FF6F3731A40828388
:1028A000828B0A4382837047828B4FF2FF331A4038
:1028B0008283828B4FF6FF7303EA01231A438283DC
:1028C0007047000000220288184B98420ED0184B27
:1028D00098420BD0B0F1804F08D0164B984205D0EB
:1028E000154B984202D0154B984204D14FF68F7386
:1028F0001A404B881A43124B984207D0114B98420A
:1029000004D04FF6FF431A400B891A4302804B68EC
:10291000C3620B880385054B984202D0044B984252
:1029200001D18B7A03860123838270470000014026
:10293000000401400004004000080040000C00407A
:1029400000100040001400404FF0FF3141600021B2
:102950000180018141808172704770B50446002575
:1029600000264FF08040FFF7D6FD0546266825601B
:102970002068A84204D92068C0F1FF30054400E077
:10298000AD1B284670BD000000B587B00121084688
:10299000FFF74CFA01211020FFF778FA07220921EE
:1029A0002148FEF7FBF907220A211F48FEF7F6F936
:1029B00003208DF8190000208DF81A0002208DF8F0
:1029C000180001208DF81B004002059005A916484B
:1029D000FEF79CF94FF48060059005A91248FEF7B8
:1029E00095F94FF4E13001900020ADF80800ADF802
:1029F0000A00ADF80C000C20ADF80E000020ADF878
:102A0000100001A9094800F051F8FFF7B4F90122BC
:102A100040F22551054800F024F80121034800F058
:102A200007F807B000BD00000000024000100140A0
:102A300021B1828942F40052828104E082894DF6FC
:102A4000FF731A408281704702460020B1F5007F73
:102A500000D100BF13880B400BB1012000E0002023
:102A60007047F0B50346002400260025002040F6FC
:102A70006A17B94200D100BF1846C1F3421401F0F1
:102A80001F06012707FA06F5012C01D10C3004E0DE
:102A9000022C01D1103000E014301AB107682F4326
:102AA000076002E00768AF430760F0BD2DE9FF470C
:102AB00005460E460024A14600BFA046B08900B1DD
:102AC00000BF2C8A24F44054F08804432C82AC8943
:102AD00041F20C608443B08831890843718908430E
:102AE0000443AC81AC8A24F44074B0890443AC82C2
:102AF0006846FFF7EBF92048854202D01F4885421F
:102B000002D1DDF80C9001E0DDF80890A88900F40E
:102B1000004040B109EBC90000EB091031684900E1
:102B2000B0FBF1F707E009EBC90000EB09103168D1
:102B30008900B0FBF1F76420B7FBF0F00401200935
:102B4000642101FB1078A88900F4004040B13220D4
:102B500000EBC800B0FBF1F000F00700044308E010
:102B6000322000EB08106421B0FBF1F000F00F0000
:102B700004432C81BDE8FF87001001400014014090
:102B8000C1F308028280704700BFFEE70FB4054B17
:102B900010B503A9044A029800F048FA10BC5DF889
:102BA00014FB000075370008900000204100080267
:102BB00018BF04200A0E18BF40F001004FF07F42FA
:102BC00032EA010108BF40F00200012808BF0520D9
:102BD0007047000000B510EE101A2DED028B81B089
:102BE0004B4A6846B2EB410F3CD94FF0E640B0EBA0
:102BF000410F94BF00204FF0FF3000900098B0EEDE
:102C0000408A00285FDB28EE080ADFED420A9FEDCC
:102C1000421A00EE201ADFED410A10F0010F40EEDB
:102C2000010A9FED3F1A00EE201ADFED3E0A40EE4A
:102C3000010A9FED3D1A00EE201A61EE000AB0EE87
:102C4000480A08EE200A02BF01B0BDEC028B00BDAD
:102C5000BFEE001A01B0C1EE000ABDEC028BB0EE6F
:102C6000600A00BD314B21F00042934228D911F097
:102C7000004FDFED2F0A20EE201ADFED2E0A19BFDC
:102C800031EE601A71EE200A31EE201A71EE600A00
:102C9000BDEEE01A11EE100A9FED271A00F00300B6
:102CA00000EEC10A9FED251A009000EEC10A9FEDCB
:102CB000241A00EEC10A9FED231A00EEC10A9DE717
:102CC00000F04CF89AE718EE100A4000B0F17F4F80
:102CD00088BF38EE080A0DD218EE100AFFF766FF1B
:102CE000042808BF00F032F8B0EE480A01B0BDEC8D
:102CF000028B00BD1EBF01B0BDEC028B00BD0120E8
:102D000000F0DCF8DFED100A80EEA00AEEE700002C
:102D1000B61F927EBBE9223C0C6D063B8A76CE3C08
:102D2000ACB5593D35A1083E29AAAA3E490E4946EF
:102D300083F9223F0000004B0000C93F00A0FD398D
:102D40000020A2331A61342C000000009FED020A1B
:102D500020EE000A70470000000000102DE9F0018D
:102D60004FF07F42B2EB410F9FBF4FF0FF31016048
:102D7000BDE8F00170474FF0004242EA0123C1F381
:102D8000C752783A541102F01F023E4DC2F1200C96
:102D90007D4455F8246005EB840596406C6824FA60
:102DA0000CF73743AE68944026FA0CF8ED6806FA43
:102DB00002F225FA0CFC42EA0C0644EA0804A7FBDE
:102DC00003C5A4FB0342A6FB03631C449C4234BF1F
:102DD0000126002602EB0C03334416B1934202D9BC
:102DE00003E0934201D2012200E000222A4402F1D2
:102DF000200C9206DD0C42EA453200EE102A5B03FD
:102E0000DFED210AF8EEC01A00EE103A4FEA9C1CE2
:102E100011F0004FB8EE400AC0F800C020EE201AB2
:102E200000EE104ADFED190AB8EE400A20EE202A23
:102E300031EE810A30EE020A10EE102A02F500622D
:102E40006FF30B0200EE902A30EEE10ADFED111A6B
:102E500030EE410A32EE401A9FED0D0A20EE800A54
:102E600001EE210A9FED0C1A00EE810A04BFBDE8B5
:102E7000F0017047CCF180510160BDE8F001B1EE86
:102E8000400A7047EC0E0000000000360000802C65
:102E900022AAFD29DB0FC92F0000C92F02E008C8B4
:102EA000121F08C1002AFAD170477047002001E0C4
:102EB00001C1121F002AFBD17047000001490860C0
:102EC00070470000940000202DE9FF5FDDE902203B
:102ED000010DDDF838B0024318D044F61050A1F2CD
:102EE000FF3141430D140F98012820D0A5EB0B00B2
:102EF000401C5FEA000A4FF00004474EDFF81C91C7
:102F0000A046504616D5CAF1000728E00F980124C4
:102F100043A2012808D0002100980F9BC0E900219E
:102F2000C0E90243BDE8FF9F6FEA0B01F4E7CBF174
:102F30000000DEE7074612E0F80707D022463346D6
:102F400040464946FDF7A9FA80468946224633465F
:102F500010461946FDF7A1FA04460E467F10002FD1
:102F6000EAD1DDE90201BAF1000F42464B4602DA2E
:102F7000FDF793FA01E0FDF702FB04460E4600223E
:102F8000284BFDF783FB03D84FF0FF30014607E0E5
:102F90000022254B20463146FDF7D8F9FDF75EFBB0
:102FA000102409E0002C0ADB0A220023FDF79DF91A
:102FB000019B30321A55641E50EA0102F2D1641CA2
:102FC000019AC4F1110314440F9A012A03D001227B
:102FD00008430DD10AE0084304D000204FF0110B44
:102FE0000F9080E7A3EB0B056D1E0DE05B4504DD44
:102FF0004FF0000205F1010504E003DA4FF0000292
:10300000A5F10105002AECD000980F99C0E9023122
:10301000C0E9004586E70000000024400000F03FC2
:10302000300000000000F0430000E03F2DE9FF4FBA
:1030300095B09B468946064600250FE2252877D1A4
:1030400000242746F84A0121059400E0044316F8BD
:10305000013F203B01FA03F01042F7D130782A28D3
:1030600011D06FF02F033078A0F13002092A16D862
:10307000059A44F0020402EB820203EB4202104480
:10308000761C0590EFE759F8042B0592002A03DA25
:10309000504244F40054059044F00204761C307809
:1030A0002E2816D116F8010F44F004042A280DD05A
:1030B0006FF02F023078A0F13003092B09D807EB0D
:1030C000870302EB4303C718761CF3E759F8047B28
:1030D000761C30786C280FD006DC4C2817D0682876
:1030E0000DD06A2814D104E0742810D07A280FD1AA
:1030F0000DE044F400140AE044F4801401E044F4C8
:1031000040147278824202D104F58014761C761C39
:10311000307866280BD013DC582877D009DC0028DB
:1031200075D04528F6D04628F4D047281AD19DE11D
:1031300018E0632835D0642879D0652812D195E14C
:10314000702873D008DC6728F1D069286FD06E280A
:103150000DD06F2806D1B5E073282CD0752875D016
:10316000782874D05A46179990476D1C75E1C4F3BE
:103170000250022809D003280DD0D9F800100428E5
:103180000DD00D6009F1040967E1D9F80010EA17C4
:10319000C1E90052F6E7D9F800100D80F2E70D7092
:1031A000F0E719F8041B8DF8001000208DF80100DD
:1031B000EA46012003E059F804AB4FF0FF30610705
:1031C0004FF0000102D40DE008F101018846B94238
:1031D0000FDA8045F8DB1AF808100029F4D108E06E
:1031E00008F1010188468142FADB1AF8081000292B
:1031F000F6D105985B46A0EB080721463846179A9A
:1032000000F094FA284400EB080507E04DE029E1BE
:103210000DE01AF8010B5A4617999047B8F10108CA
:10322000F7D25B4621463846179A13E142E00A225C
:103230000092C4F302524FF0000A022A08D059F853
:1032400004CB032A4FEAEC710AD00DE029E02AE012
:1032500009F1070121F00702F2E802C1914609E0F5
:103260000FFA8CFC4FEAEC71042A03D14FFA8CFC64
:103270004FEAEC71002907DA0A460021DCF1000C64
:1032800061EB02012D2202E0220504D52B228DF8EC
:103290000420012203E0E20701D02022F7E7904654
:1032A00059E00A2102E010220DE010214FF0000A3F
:1032B00000910BE010224FF0000A44F004040827AC
:1032C000009203E008224FF0000A0092C4F3025279
:1032D000022A05D059F804CB0021032A08D009E0BE
:1032E00009F1070121F00702F2E802C1914605E069
:1032F0001FFA8CFC042A01D10CF0FF0C4FF00008DF
:10330000220728D5702806D0009B83F0100353EACB
:103310000A0305D00EE040228DF80420012208E0C7
:103320005CEA010206D030228DF804208DF80500F9
:1033300002229046009B83F0080353EA0A030AD155
:103340005CEA010201D1620705D530228DF8042024
:103350004FF001087F1E582804D034A003900EA817
:1033600002900DE036A0F9E753466046009AFCF75C
:10337000BCFF84460398825C0298401E0290027053
:103380005CEA0100F0D1029806A9081A00F1200AAF
:10339000600702D524F4803400E00127574502DDA0
:1033A000A7EB0A0000E0002000EB0A01009005985E
:1033B0004144401A0590E00306D45B462146179A23
:1033C000059800F0B3F90544002706E001A85A4625
:1033D000C05D179990476D1C7F1C4745F6DBE003E5
:1033E0000CD55B462146179A059800F09FF90544D5
:1033F00004E030205A46179990476D1C0099481EEA
:1034000000900029F5DC08E0029802995A460078FD
:10341000491C0291179990476D1CBAF10001AAF15D
:10342000010AF1DC65E10000092801003031323386
:1034300034353637383961626364656600000000F0
:1034400030313233343536373839414243444546DA
:103450000000000000F058F90544761C3078002880
:103460007FF4ECAD19B02846BDE8F08F620700D4B8
:10347000062709F1070222F0070CFCE80223E146C7
:1034800003F000485FEA080C02D00FF2702C0DE048
:103490005FEA045C02D50FF2682C07E05FEAC47CA7
:1034A00002D00FF2602C01E0AFF2700C4FF0FF3849
:1034B00023F00043CDF850C065280CD006DC452829
:1034C00009D046281DD047283DD13DE0662818D0B8
:1034D00067287ED138E00021112F01DB112000E0A8
:1034E000781CCDE9000106A90EA8FFF7EDFCDDE987
:1034F0000F010E9A03910021009207F1010A049135
:103500004DE04FF000400097CDE9011006A90EA84C
:10351000FFF7DAFCDDE90F0203920E9B11990022FE
:10352000DDF80CA00093049211B9791C00EB010A9C
:10353000B7EB0A0004D4C0F1FF3007F1010A049090
:10354000AAEB0700019044E0012F00DA01270021D7
:10355000112F01DD112000E03846CDE9000106A958
:103560000EA8FFF7B1FCDDE90F010E9A03910021CF
:1035700004910092BA4621070CD40399514500DA10
:103580008A46BAF1010F05DD009AAAF10101515CEA
:10359000302908D0B84202DA10F1040F06DA01210E
:1035A000CDE9011015E0AAF10101E9E7002805DCE9
:1035B000049901440491AAEB000102E0411C514529
:1035C00000DD8A460499401A401C01904FF00040EB
:1035D0000290200704D40198504501DBCDF8048007
:1035E00000208DF84F0002980DF14F07B0F1004F09
:1035F00025D02B200E9002984FF0020800280CDAFC
:10360000404202902D200E9007E00A210298FCF71C
:1036100056FE3031029007F8011DB8F10001A8F103
:103620000108F2DC02980028EFD1791E0E9808708C
:10363000307800F0200040F0450007F8020D12A895
:10364000C01B00F107081498007800B1012000EBBE
:103650000A01019801EBE07105984144401A401EAF
:103660000590E00306D45B462146179A059800F0C2
:103670005DF805441498007818B15A461799904798
:103680006D1CE00324D55B462146179A059800F08F
:103690004DF805441CE00498002807DBDDE9030130
:1036A000884203DD0098405C179901E017993020AB
:1036B0005A469047049805F10105401C0490019872
:1036C000401E019004D12E205A46179990476D1C38
:1036D000BAF10001AAF1010ADDDC05E017F8010BDF
:1036E0005A46179990476D1CB8F10001A8F10108DE
:1036F000F4DC5B462146179A0598ABE62D000000E6
:103700002B000000200000002DE9F04104460025B8
:103710001E461746880404D405E039462020B047E9
:103720006D1C641EF9D52846BDE8F0812DE9F041F5
:10373000044600251E469046C80301D5302700E008
:103740002027880404D505E041463846B0476D1C63
:10375000641EF9D52846BDE8F081002107E000226B
:1037600000E0521C48F240339A42FAD3491C81428D
:10377000F5D3704770B504460D46E1B20548FFF732
:10378000FFF900BF80210348FFF75EF90028F9D058
:10379000204670BD001001402DED028B3220FFF756
:1037A000DCFFFFF7F1F8FDF7DFF9FDF7BFFDFEF7EE
:1037B00038FCFEF70FFCFEF7A3F8FEF7EBF8FEF778
:1037C0007DFAFDF7FDF8FDF7B9FCFEF71FF92020A3
:1037D000194948830120194908802CE0FEF742F876
:1037E0001748FFF7BAF817490860084690ED000A35
:1037F000B8EE400ADFED140A80EE201A134880ED7F
:10380000001A1348D0ED160A104890ED001A11481E
:1038100090ED000A00EE810A80ED000A0068FCF7D6
:103820003BFD41EC180B0A48B0F9221053EC182B61
:1038300009A0FFF7ABF9D1E70010024018040240DD
:1038400020000020240000200024744928000020CB
:10385000B00300202C00002067793D25356420202E
:103860002020673D25332E32662020200A000000EC
:1038700043EC7F3F0000803F43EC7F3F0FB17F3F31
:103880006D4E7F3F6DC47E3F24137E3FAC3A7D3F3B
:10389000283B7C3FBE147B3F9DC7793FF853783F60
:1038A00007BA763F0BFA743F4714733F0809713F1C
:1038B0009ED86E3F5E836C3FA7096A3FD86B673F17
:1038C00059AA643F98C5613F05BE5E3F1A945B3FAD
:1038D0005348583F31DB543F3D4D513F029F4D3FD0
:1038E00012D1493F03E4453F70D8413FF9AE3D3F17
:1038F0004268393FF304353FBB85303F4AEB2B3FED
:103900005636273F9967223FD17F1D3FC07F183F22
:103910002A68133FDA390E3F9BF5083F3D9C033F71
:10392000275DFC3EEA5AF13E7533E63E80E8DA3E1A
:10393000CA7BCF3E15EFC33E2A44B83ED47CAC3E92
:10394000E59AA03E31A0943E938E883ECCCF783E3F
:10395000135C603EC2C5473EA2102F3E8340163E18
:1039600073B2FA3D36BDC83D05A9963D30FB483DD2
:10397000B00AC93C0BA88C24B00AC9BC30FB48BDB6
:1039800005A996BD36BDC8BD73B2FABD834016BE4B
:10399000A2102FBEC2C547BE135C60BECCCF78BE9E
:1039A000938E88BE31A094BEE59AA0BED47CACBEF6
:1039B0002A44B8BE15EFC3BECA7BCFBE80E8DABECC
:1039C0007533E6BEEA5AF1BE275DFCBE3D9C03BFDF
:1039D0009BF508BFDA390EBF2A6813BFC07F18BF36
:1039E000D17F1DBF996722BF563627BF4AEB2BBF39
:1039F000BB8530BFF30435BF426839BFF9AE3DBF68
:103A000070D841BF03E445BF12D149BF029F4DBFEB
:103A10003D4D51BF31DB54BF534858BF1A945BBF73
:103A200005BE5EBF98C561BF59AA64BFD86B67BFAA
:103A3000A7096ABF5E836CBF9ED86EBF080971BFBD
:103A4000471473BF0BFA74BF07BA76BFF85378BF39
:103A50009DC779BFBE147BBF283B7CBFAC3A7DBFFE
:103A600024137EBF6DC47EBF6D4E7FBF0FB17FBF7D
:103A700043EC7FBF000080BF43EC7FBF0FB17FBF2F
:103A80006D4E7FBF6DC47EBF24137EBFAC3A7DBF39
:103A9000283B7CBFBE147BBF9DC779BFF85378BF5E
:103AA00007BA76BF0BFA74BF471473BF080971BF1A
:103AB0009ED86EBF5E836CBFA7096ABFD86B67BF15
:103AC00059AA64BF98C561BF05BE5EBF1A945BBFAB
:103AD000534858BF31DB54BF3D4D51BF029F4DBFCE
:103AE00012D149BF03E445BF70D841BFF9AE3DBF15
:103AF000426839BFF30435BFBB8530BF4AEB2BBFEB
:103B0000563627BF996722BFD17F1DBFC07F18BF20
:103B10002A6813BFDA390EBF9BF508BF3D9C03BF6F
:103B2000275DFCBEEA5AF1BE7533E6BE80E8DABE18
:103B3000CA7BCFBE15EFC3BE2A44B8BED47CACBE90
:103B4000E59AA0BE31A094BE938E88BECCCF78BE3D
:103B5000135C60BEC2C547BEA2102FBE834016BE16
:103B600073B2FABD36BDC8BD05A996BD30FB48BDD0
:103B7000B00AC9BC372354A5B00AC93C30FB483D44
:103B800005A9963D36BDC83D73B2FA3D8340163E49
:103B9000A2102F3EC2C5473E135C603ECCCF783E9C
:103BA000938E883E31A0943EE59AA03ED47CAC3EF4
:103BB0002A44B83E15EFC33ECA7BCF3E80E8DA3ECA
:103BC0007533E63EEA5AF13E275DFC3E3D9C033FDD
:103BD0009BF5083FDA390E3F2A68133FC07F183F34
:103BE000D17F1D3F9967223F5636273F4AEB2B3F37
:103BF000BB85303FF304353F4268393FF9AE3D3F66
:103C000070D8413F03E4453F12D1493F029F4D3FE9
:103C10003D4D513F31DB543F5348583F1A945B3F71
:103C200005BE5E3F98C5613F59AA643FD86B673FA8
:103C3000A7096A3F5E836C3F9ED86E3F0809713FBB
:103C40004714733F0BFA743F07BA763FF853783F37
:103C50009DC7793FBE147B3F283B7C3FAC3A7D3FFC
:103C600024137E3F6DC47E3F6D4E7F3F0FB17F3F7B
:103C700043EC7F3F0000803F43EC7F3F0FB17F3F2D
:103C8000000000006E83F9A22915444ED15727FC8D
:103C9000C0DD34F5999562DB4190433CAB6351FE46
:103CA000C03C000800000020980000009C2E000886
:103CB000583D00089800002090070000AC2E000836
:103CC00000000000010203040102030406070809C2
:103CD00000000000000000000000000000000000E4
:103CE00000000000000000000000000000000000D4
:103CF00000000000000000000000000000000000C4
:103D000000000000000000000000000000000000B3
:103D100000000000000000000000000000000000A3
:103D20000000000000000000000000000000000093
:103D30000000000000000000000000000000000083
:103D40000000000000000000000000000000000073
:083D500000000000000000006B
:040000050800018965
:00000001FF
