:020000040800F2
:10000000180800209D01000801190008ED080008EB
:10001000C5170008730400086527000800000000E9
:10002000000000000000000000000000AD1B000800
:10003000D505000800000000B5190008D91C00080B
:10004000B7010008B7010008B7010008B7010008B0
:10005000B7010008B7010008B7010008B7010008A0
:10006000B7010008B7010008B7010008B701000890
:10007000B7010008B7010008B7010008B701000880
:10008000B7010008B7010008B7010008B701000870
:10009000B7010008B7010008B7010008B701000860
:1000A000B7010008B7010008B7010008B701000850
:1000B000B7010008B7010008B7010008B701000840
:1000C000B7010008B7010008B7010008B701000830
:1000D000B7010008B7010008B7010008B701000820
:1000E000B7010008B7010008B7010008691E000841
:1000F000B7010008B7010008B7010008B701000800
:10010000B7010008B7010008B7010008B7010008EF
:10011000B7010008B7010008B7010008B7010008DF
:10012000B7010008B7010008B7010008B7010008CF
:10013000B7010008B7010008B7010008B7010008BF
:10014000B7010008B7010008B7010008B7010008AF
:10015000B7010008B7010008B7010008B70100089F
:10016000B7010008B7010008B7010008B70100088F
:10017000B7010008B7010008B7010008B70100087F
:10018000B7010008B7010008DFF80CD000F09AF8BA
:1001900000480047252E0008180800200648804720
:1001A00006480047FEE7FEE7FEE7FEE7FEE7FEE75C
:1001B000FEE7FEE7FEE7FEE7DD1C00088901000818
:1001C000DFED300AB5EEC00A60EE200ABDEEE01A9F
:1001D00011EE100AF1EE10FA38BF401E00EE100AC0
:1001E0009FED291AB8EEC00A70EEC00A20EE810A0F
:1001F000BCEEC00A10EE100A00EE100A0028B8EE9D
:10020000C00A10EE810AB8BF002004DBB0F5807F81
:10021000C8BF4FF480701D4960EE000AB6EE001AA8
:10022000DFED1C2A9FED1A2A60EE011A60EE225AB9
:1002300020EE813A20EE022A21EEA01A01EB800086
:1002400073EE655A62EE202AB7EE006A33EE003A8A
:10025000D0EC043A76EE611A71EE600A35EEE20AED
:1002600033EE413A32EEC21A70EEA10A20EE230AB2
:1002700064EE831A04EE200A45EE011A31EE800A7C
:100280007047000083F9223E00008043A02E000842
:10029000ABAA2A3EABAAAA3E30B50B4601460020C7
:1002A0002022012409E021FA02F59D4205D303FA38
:1002B00002F5491B04FA02F52844151EA2F10102B9
:1002C000F1DC30BD064C074D06E0E06840F001036C
:1002D00094E8070098471034AC42F6D3FFF758FF74
:1002E000D0320008F032000821B1826842F00102E9
:1002F000826003E0826822F00102826070470000A1
:100300000021084A1168084A1140D0E900231A4325
:1003100083681A43C3681A431143044AC2F804139A
:100320007047000004230140E030FCFF0020014042
:1003300021B1826842F48072826003E0826822F414
:1003400080728260704721B1826842F400728260DC
:1003500003E0826822F400728260704730B5024682
:10036000002000235068104C20400D790C6844EAAE
:1003700005242043506090680C4C2040D1E9035480
:100380002C438D682C434D7944EA4504204390600A
:10039000D06A20F470000C7D641EE4B2234340EA6E
:1003A0000350D06230BD0000FFFEFFFCFDF7FFC030
:1003B000F0B504460D4600200021092D11DDE0684E
:1003C000A5F10A0606EB4607072606FA07F1884359
:1003D000A5F10A0606EB460603FA06F10843E060BB
:1003E0000CE0206905EB4507072606FA07F188436C
:1003F00005EB450603FA06F108432061072A0FDAE8
:10040000606B561E06EB86071F2606FA07F1884327
:10041000561E06EB860605FA06F10843606322E0E5
:100420000D2A0FDA206BD61F06EB86071F2606FA69
:1004300007F18843D61F06EB860605FA06F1084346
:10044000206310E0E06AA2F10D0606EB86071F2686
:1004500006FA07F18843A2F10D0606EB860605FAB7
:1004600006F10843E062F0BD816841F0804181609F
:10047000704700BFFEE700001CB50121102001F00D
:100480009BFA01220E210B4800F004FA02208DF89D
:10049000040000208DF806008DF8070003208DF879
:1004A00005004FF4804000906946024800F0AAF928
:1004B0001CBD00000010024010B5FFF7DDFF00F08A
:1004C0003FFC00F001F810BD00B589B001210846DD
:1004D00001F0A2FA5A2007903B20ADF81800002046
:1004E000ADF82000ADF81A008DF8220006A91C48CE
:1004F00001F0ECFF6020ADF804000020ADF8100022
:100500000120ADF806000020039001A9144801F075
:1005100063FE0821124801F09DFE01A9104801F078
:10052000A3FE08210E4801F0F1FE01A90C4801F0DC
:10053000FBFE08210A4801F047FF01A9084801F025
:100540004DFF0821064801F085FF0121044801F014
:10055000E1FC0121024801F0E9FC09B000BD000006
:100560000000014021B1026842F00102026003E094
:10057000026822F0010202607047000010B50022FC
:100580000268134B1A40CC680B6823434C69234321
:100590008C692343CC6923430C6A23434C6A23436D
:1005A0008C6A23434C6B23438C6B23431A430260B6
:1005B000426922F00702D1E90B3423431A43426116
:1005C0000B6943604B6883608B68C36010BD00009B
:1005D0003F801CF0704700001CB501210C2001F089
:1005E000EBF9022207211C4800F054F902220621EF
:1005F000194800F04FF902220D21184800F04AF97D
:1006000002220C21154800F045F902208DF8040063
:1006100000208DF8060001208DF8070003208DF8DA
:1006200005008020009069460B4800F0EBF8402060
:1006300000906946084800F0E5F84FF4005000903B
:100640006946064800F0DEF84FF480500090694695
:10065000024800F0D7F81CBD00080240000C024020
:1006600010B5FFF7B9FF00F001F810BD00B587B075
:100670000121062001F0B0F9274801F067FC274866
:1006800001F064FC01A801F063FF4FF6FE700290D8
:100690000020ADF80400ADF80600ADF80C0001A98B
:1006A0001D4801F013FF01A91C4801F00FFF0023B2
:1006B0001A460321184801F011FD00231A460321B0
:1006C000164801F00BFD04A801F074FD0620ADF8FA
:1006D000180004A9104801F036FD04A90F4801F0E4
:1006E00032FD01210C4801F00FFC01210B4801F003
:1006F0000BFC0021084801F0BAFE0021074801F078
:10070000B6FE0121044801F005FC0121034801F077
:1007100001FC07B000BD00000004004000080040DC
:1007200010B52E4801F0FBFC2D4908600846006812
:100730002C490968401A2C49086029480068294951
:10074000086029480068B0F5004F06DB26480068BD
:10075000A0F58030244908600AE02348006810F5BD
:10076000004F05DC2048006800F580301E49086015
:100770001E4800681C49096808441C4908601C4858
:1007800001F0CDFC1B490860084600681A49096859
:10079000401A1A4908601748006817490860174846
:1007A0000068B0F5004F06DB14480068A0F5803003
:1007B000124908600AE01148006810F5004F05DC96
:1007C0000E48006800F580300C4908600C4800684D
:1007D0000A49096808440A49086010BD000400403D
:1007E00030000020380000202000002028000020D9
:1007F00000080040340000203C00002024000020BD
:100800002C000020F0B50A4600210023002400BF80
:100810003DE0012505FA01F3156805EA03049C4251
:1008200034D105684F000326BE40B54305601579F5
:100830004E00B5400668354305601579012D02D09C
:100840001579022D16D185684F000326BE40B543A9
:10085000856055794E00B5408668354385604568AA
:1008600001268E40B5434560456896798E40B6B204
:1008700035434560C5684F000326BE40B543C5609B
:10088000D5794E00B540C6683543C560491C10296E
:10089000BFD3F0BDF0B5002300244D07ED0E02FAE2
:1008A00005F3CE1000F1200555F826504E07F70E3F
:1008B0000F26BE40B543CF1000F1200646F8275062
:1008C000CE1000F1200555F8265045EA0304CE105D
:1008D00000F1200545F82640F0BD024600201369CE
:1008E0000B400BB1012000E00020704700BFFEE785
:1008F00040480068B0F57A7F00D970473D480068ED
:10090000B0F57A7F35D13C4800684FF47A71B0FB7E
:10091000F1F039490860394800684FF47A71B0FB4A
:10092000F1F036490860364800684FF47A71B0FB40
:10093000F1F033490860334800684FF47A71B0FB36
:10094000F1F030490860304800684FF47A71B0FB2C
:10095000F1F02D4908602D4800684FF47A71B0FB22
:10096000F1F02A49086023480068401C21490860CA
:10097000C3E72048006860B900201F4908601F498C
:1009800008601F4908601F4908601F4908601F4927
:100990000860194800681E4909680844164908603B
:1009A000164800681B49096808441449086014483F
:1009B000006819490968084411490860114800682D
:1009C0001649096808440F4908600F48006814492F
:1009D000096808440C4908600C4800681149096816
:1009E00008440A49086003480068401C014908603F
:1009F00000BF82E77C000020640000206800002027
:100A00006C0000207000002074000020780000209E
:100A10004000002044000020480000204C0000203E
:100A200050000020540000201CB50121052000F0DA
:100A3000C3FF03208DF8040000208DF8070020205C
:100A4000009069461048FFF7DDFE102000906946CF
:100A50000D48FFF7D7FE8020009069460B48FFF74E
:100A6000D1FE1020009069460848FFF7CBFE2020F9
:100A7000009069460548FFF7C5FE40200090694692
:100A80000248FFF7BFFE1CBD000802400000024004
:100A90000021002000223E4B1A603E4B1A603E4B64
:100AA0001A603E4B1A603E4B1A603E4B1A6000BF04
:100AB0001EE000EB4002D1B23B4A32F81120344B29
:100AC0001B681A44324B1A60374B4A1C33F8122009
:100AD000304B1B681A442F4B1A60334B8A1C33F877
:100AE00012202D4B1B681A442B4B1A60421CD0B2AB
:100AF0003228DEDB00201EE000EB4002D1B22B4AA0
:100B000032F81120254B1B681A44244B1A60274BDE
:100B10004A1C33F81220224B1B681A44204B1A60DF
:100B2000224B8A1C33F812201E4B1B681A441D4BA3
:100B30001A60421CD0B23228DEDB154A126832231A
:100B4000B2FBF3F2124B1A60124A12683223B2FB64
:100B5000F3F2104B1A60104A12683223B2FBF3F220
:100B60000D4B1A600D4A12683223B2FBF3F20B4BA5
:100B70001A600B4A12683223B2FBF3F2084B1A6078
:100B8000084A12683223B2FBF3F2064B1A60704730
:100B90004000002044000020480000204C000020BD
:100BA000500000205400002088000020B4010020E4
:100BB00010B5FFF739FF00F001F810BD00B599B08E
:100BC00001214FF4407000F027FF0121880500F05B
:100BD000F3FE00200D900F904FF4806010904000C5
:100BE0001190800012904011139040021490002048
:100BF0001590012016900020179018904B480B90EC
:100C00004B480C9096200E9000200A900AA9494863
:100C1000FFF7B4FC01214748FFF7A4FC46480B90BE
:100C200046480C9096200E904FF000700A900AA94A
:100C300040483030FFF7A2FC01213E483030FFF73A
:100C400091FC002000900190029003906846FFF70D
:100C500057FB0020049001208DF814008DF815003A
:100C600000200690089003208DF8240004A92F4846
:100C70004C38FFF773FB03208DF8240004A92E489D
:100C80004C38FFF76BFB002301220F2127484C381B
:100C9000FFF78EFB002302220E2124484C38FFF779
:100CA00087FB00230322072120484C38FFF780FBF5
:100CB00000230122042120484C38FFF779FB002350
:100CC000022205211C484C38FFF772FB0023032247
:100CD000062119484C38FFF76BFB012113484C38AB
:100CE000FFF731FB012111484C38FFF721FB0121AF
:100CF0000E484C38FFF7F8FA01210F484C38FFF73F
:100D000022FB01210C484C38FFF712FB01210A4855
:100D10004C38FFF7E9FA05484C38FFF7A5FB0648C1
:100D20004C38FFF7A1FB19B000BD00004C2001407A
:100D300088000020106402404C210140B4010020D2
:100D40001CB50121102000F037FE01208DF80400B1
:100D500000208DF806008DF8070003208DF80500AF
:100D60004FF40070009069460C48FFF74BFD4FF4BC
:100D70000060009069460948FFF744FD4FF40050B9
:100D8000009069460548FFF73DFD4FF400700349A8
:100D9000488380004883800048831CBD00100240C7
:100DA0001CB501211B2000F007FE01208DF8040076
:100DB00000208DF806008DF8070003208DF805004F
:100DC0000120009069461C48FFF71CFD1020009090
:100DD00069461A48FFF716FD20200090694617481B
:100DE000FFF710FD4FF48050009069461248FFF75E
:100DF00009FD4FF40040009069461148FFF702FDDD
:100E00004FF40070009069460E48FFF7FBFC01208C
:100E100009491A3108801020084948832020488356
:100E2000C00105491A310880C00005494883801176
:100E300004491A3108801CBD000402400010024021
:100E400000000240000C0240B0EE401A9FED280A5C
:100E5000F0EE400A9FED260AF0EE401A90ED000AEF
:100E6000B5EEC00AF1EE10FA02D8B0EE410A7047B2
:100E700090ED062AD0ED012AB0EE410A02EE620A98
:100E800090ED072AD0ED022A02EE620AF0EE400A47
:100E900010EE901A21F00042C2F1FF42D20F52B977
:100EA00010EE901A4FF07F42B2EB410F01D10122B8
:100EB00000E000220AB1F0EE410A90ED060A90ED42
:100EC000042A20EE020A90ED032A00EE820A90ED39
:100ED000072AD0ED052A02EE220AF0EE401A90ED24
:100EE000060A80ED070AC0ED060AB0EE610ABEE709
:100EF0000000000010B52DED068B0446F0EE409A80
:100F0000F0EE608A9FED330AB0EE40AA9FED310A01
:100F1000B0EE408A9FED2F0AB0EE409A89EEA80A03
:100F2000B0EE40AA9FED2C0AC0EE0A0AF0EE60AACD
:100F3000B0EE6A0A01F03CFCB0EE408A9FED270A51
:100F4000FFF73EF9F0EE000A60EE200AB7EE000A65
:100F500000EE880A08EE080AB0EE409AC4ED008A56
:100F600094ED000AB5EEC00AF1EE10FA2FDD28EE7E
:100F7000080AC0EE090AC4ED030A94ED030AF0EE74
:100F8000000A20EE200A84ED040A94ED030A84EDA1
:100F9000050AB7EE000A18EE080AF0EE000A20EE85
:100FA000200AC0EE090AC4ED010A9FED0C0AFFF702
:100FB00007F9F0EE000A60EE200AB7EE000A00EE34
:100FC000C80A08EE080AC0EE090AC4ED020ABDEC20
:100FD000068B10BD00000000DB0F4940DB0F493FCE
:100FE000002001E0411CC8B23228FBDB7047000042
:100FF0001CB501210C2000F0DFFC02208DF805005B
:1010000001208DF8060000208DF8070001208DF8E2
:101010000400009069460E48FFF7F4FB4FF480503F
:10102000009069460B48FFF7EDFB00208DF80600A5
:1010300003208DF805004FF40060009069460548D4
:10104000FFF7E0FB4FF4006002491A3108801CBD35
:10105000000C02400008024070B50024002516E094
:101060006006040E01200C490880FFF7B9FF4FF419
:1010700080510A48FFF731FC08B1601CC4B201205E
:101080000549891C0880FFF7ABFF681CC5B2082D15
:10109000E6DB204670BD0000180C0240000802404C
:1010A00070B504460D46204600F030F800F0E4F834
:1010B000204600F039F900F015F900B119E0284692
:1010C00000F032F900F00EF900B112E000F0D4F8AF
:1010D00044F0010000F028F900F004F900B108E044
:1010E000FFF7BAFF064600F0B1F800F0E1F830462D
:1010F00070BD03A001F038FB00F0DAF80020F7E73C
:10110000B6C1C8A1B4EDCEF3200A000010B5044664
:1011100000BF00F0CDF800F0AFF8204600F004F971
:1011200000F0E0F80028F4D100F0C2F810BD000093
:101130002DE9F04105460F4616461C46641C28461C
:10114000FFF7E4FF00F098F8284600F0EDF800F013
:10115000C9F800B127E0384600F0E6F800F0C2F820
:1011600000B120E000F088F845F0010000F0DCF864
:1011700000F0B8F800B116E00CE0012C03D100F04B
:1011800065F800F095F8FFF767FF3070761C641E75
:1011900000F016F8002CF0D100F058F800F088F8B4
:1011A0000120BDE8F08103A001F0DEFA00F080F834
:1011B0000020F6E7B6C1C8A1B4EDCEF3200A0000C6
:1011C00010B54FF480500949088001200849088073
:1011D000FFF706FF01200649891C08800003034928
:1011E000891E0880FFF7FCFE10BD00001A080240AF
:1011F000180C024070B504460D46164600F03CF847
:10120000204600F091F800F06DF800B111E028469A
:1012100000F08AF800F066F800B10AE0304600F00D
:1012200083F800F05FF800B103E000F041F801201E
:1012300070BD03A001F098FA00F03AF80020F7E73B
:10124000B7A2CBCDB4EDCEF3200A000010B54FF419
:10125000805007490880012006490880FFF7C0FE3A
:1012600001200449891C0880FFF7BAFE10BD000068
:1012700018080240180C024010B54FF480500A497B
:101280000880012009490880FFF7AAFE4FF480502A
:101290000549891C0880FFF7A3FE01200349891C2A
:1012A0000880FFF79DFE10BD18080240180C024090
:1012B00010B5012009490880000309490880FFF79B
:1012C0008FFE4FF480500649891E0880FFF788FE84
:1012D000012002490880FFF783FE10BD180C024070
:1012E0001A08024010B501200D490880FFF778FE6A
:1012F0004FF480510B48FFF7F0FA08B1012400E0E9
:10130000002401200649891C0880FFF769FE4FF47C
:101310008050044918310880FFF762FE204610BD56
:10132000180C02400008024070B5054600241DE07C
:1013300005FA04F000F0800020B14FF480500F490E
:10134000088004E04FF480500C49891C0880FFF7A6
:1013500047FE01200A490880FFF742FE01200849A4
:10136000891C0880FFF73CFE601CC4B2082CDFDB40
:101370004FF480500149088070BD000018080240F9
:10138000180C024010B53B4800F0C4F93948801DE4
:1013900000F0ECF9002426E0364830F9140000EEA5
:1013A000100AB8EEC00A33481838D0ED170A80EE9C
:1013B000201A2C3000EB840080ED001A2D48801D8F
:1013C00030F9140000EE100AB8EEC00A29481838A7
:1013D000D0ED180A80EE201A383000EB840080ED42
:1013E000001A601CC4B2032CD6DB22481838D0ED9A
:1013F0000B0AB0EE600A2048FFF726FD1D4818389A
:1014000080ED110AD0ED0C0AB0EE600A1B48FFF720
:101410001BFD1848183880ED120AD0ED0D0AB0EE09
:10142000600A1748FFF710FD1248183880ED130ABC
:10143000D0ED0E0AB0EE600A1248FFF705FD0D4828
:10144000183880ED140AD0ED0F0AB0EE600A0E488D
:10145000FFF7FAFC0748183880ED150AD0ED100A9E
:10146000B0EE600A0948FFF7EFFC0248183880ED3B
:10147000160A10BDB8030020E0020020000300207F
:101480002003002040030020600300208003002090
:1014900010B50024642001F0A6FCFFF7A9FD75211A
:1014A000D020FFF7FDFD80226B21D020FFF7A2FEA8
:1014B000642001F098FC03226B21D020FFF79AFEF4
:1014C00000221921D020FFF795FE05221A21D020F5
:1014D000FFF790FE18221B21D020FFF78BFE102271
:1014E0001C21D020FFF786FE03221D21D020FFF70C
:1014F00081FE642001F077FC9FED060A064880ED2E
:10150000170A9FED060A80ED180A9FED050A80ED87
:10151000190A10BD00008045A00300206F1283410E
:10152000E02E654210B5F3EE090A9FED140A144847
:10153000FFF7E0FCF3EE090A9FED100A1148FFF7F0
:10154000D9FCF3EE090A9FED0D0A0F48FFF7D2FC14
:10155000DFED0E0A9FED090A0D48FFF7CBFCDFED2A
:101560000B0A9FED060A0B48FFF7C4FCDFED070AE4
:101570009FED020A0848FFF7BDFC10BD0000C842FD
:10158000E00200200003002020030020000034427D
:1015900040030020600300208003002070B586B067
:1015A000002003900490059000900190029047A0C5
:1015B00001F0DAF800260DE04FF480504C49088025
:1015C000C82001F010FC4FF480504949891C088064
:1015D000701CC6B20A2EEFDB46A001F0C5F800244D
:1015E00037E0484800F096F84648801D00F0BEF805
:1015F00044491839B1F91810039808440390414838
:101600001838B0F91A000499084404903D48183875
:10161000B0F91C00A0F5805005990844059039499F
:101620001839B1F91E100098084400903548183850
:10163000B0F9200001990844019032481838B0F9F7
:101640002200029908440290012001F0CCFB601CAA
:10165000C4B2642CC5DB6421039890FBF1F02949E6
:10166000183908606421049890FBF1F02549183975
:1016700048606421059890FBF1F022491839886090
:101680006421009890FBF1F01E491839C86064216C
:10169000019890FBF1F11B48183801616421029810
:1016A00090FBF1F1174818384161002506E0FFF77B
:1016B00069FE0A2001F097FB681CC5B20A2DF6DB13
:1016C00011A001F051F806B070BD00000AD5FDD49C
:1016D000DABDF8D0D0B4ABB8D0C6F7BDC3D5FDA342
:1016E000ACC7EBCBAEC6BDB7C5D6C32020200A0021
:1016F000180402400ABFAACABCD0DED5FD202020B3
:101700000A000000B80300200ABDC3D5FDCDEAB32E
:10171000C90A00001CB5044606236A463B21D020B6
:10172000FFF706FD9DF801009DF8001040EA01203A
:101730000D490988401A00B220809DF803009DF8E9
:10174000021040EA012008498988401A00B26080EE
:101750009DF805009DF8041040EA0120024909891E
:10176000401A00B2A0801CBDA00300201CB5044696
:1017700006236A464321D020FFF7DAFC9DF80100DA
:101780009DF8001040EA01200D498989401A00B2F5
:1017900020809DF803009DF8021040EA01210848CE
:1017A000008A081A00B260809DF805009DF80410B8
:1017B00040EA01210248808A081A00B2A0801CBDBC
:1017C000A003002000BFFEE71CB50121084600F081
:1017D00003F9022201211B48FFF75CF802220021D5
:1017E0001848FFF757F8022203211648FFF752F86E
:1017F000022211461348FFF74DF802208DF804002D
:1018000000208DF806008DF8070003208DF80500F4
:101810000220009069460B48FEF7F4FF012000907B
:1018200069460848FEF7EEFF082000906946054823
:10183000FEF7E8FF0420009069460248FEF7E2FF49
:101840001CBD00000000024010B5FFF7BDFF00F016
:1018500001F810BD00B589B00121082000F0BCF8E6
:1018600040F2E73007900020ADF81800ADF82000F6
:10187000ADF81A0006A9214800F028FE6020ADF856
:1018800004000220ADF810000120ADF80600002091
:10189000039001A9194800F09FFC0821174800F0A7
:1018A000D9FC0120ADF806000020039001A91348DF
:1018B00000F0DAFC0821114800F028FD0120ADF805
:1018C00006000020039001A90C4800F02DFD08211E
:1018D0000A4800F079FD0120ADF8060000200390D1
:1018E00001A9064800F07AFD0821044800F0B2FD85
:1018F0000121024800F00EFB09B000BD000C0040C1
:10190000704708B54FF4C06000F04AF825208DF804
:10191000000001208DF801008DF802008DF8030011
:10192000684600F001F808BD70B5002100230F22C1
:10193000C4781CB3174C246804F4E064C4F5E06474
:10194000C4F30721C1F10404E3B20A4144789C4086
:10195000E1B28478144021430C07210E0E4C057827
:101960006155047804F01F050124AC4005786D1121
:10197000AD0005F1E025C5F8004109E0047804F068
:101980001F050124AC40054D0678761145F8264028
:1019900070BD00000CED00E000E400E080E100E03C
:1019A00002490143024A1160704700000000FA0535
:1019B0000CED00E07047000029B1064A12680243AE
:1019C000044B1A6004E0034A12688243014B1A6018
:1019D000704700003038024029B1064A12680243BD
:1019E000044B1A6004E0034A12688243014B1A60F8
:1019F000704700004038024029B1064A126802438D
:101A0000044B1A6004E0034A12688243014B1A60D7
:101A1000704700002038024029B1064A126802438C
:101A2000044B1A6004E0034A12688243014B1A60B7
:101A3000704700004438024029B1064A1268024348
:101A4000044B1A6004E0034A12688243014B1A6097
:101A50007047000024380240F0B500210022002425
:101A6000022500260223324F3F6807F00C0121B106
:101A7000042905D0082937D105E02E4F076036E04C
:101A80002D4F076033E02A4F3F1F3F68C7F3805652
:101A9000274F3F1F3F6807F03F036EB1264FB7FB4C
:101AA000F3F7DFF88CC0ACF1040CDCF800C0CCF329
:101AB000881C07FB0CF40CE01E4FB7FBF3F7DFF8B4
:101AC00070C0ACF1040CDCF800C0CCF3881C07FB40
:101AD0000CF4174F3F1F3F68C7F301477F1C7D0081
:101AE000B4FBF5F7076002E0124F076000BF00BFCC
:101AF0000F4F3F6807F0F0010909104F7A5C076843
:101B0000D74047600A4F3F6807F4E051890A0B4FFE
:101B10007A5C4768D7408760054F3F6807F46041AB
:101B2000490B064F7A5C4768D740C760F0BD00009C
:101B3000083802400024F40040787D0100000020B5
:101B400008B52B208DF8000000208DF80100012041
:101B50008DF802008DF803006846FFF7E5FE08BD2A
:101B60000EB501214020FFF737FF40F2F31001903E
:101B70005320ADF800000020ADF80800ADF80200D9
:101B80006946094800F0A2FCFFF7DAFF012211467E
:101B9000054800F018FB0021034800F068FC012113
:101BA000014800F0B7F90EBD0018004070470EB5AF
:101BB00001210846FFF710FF4FF0FF30019053203E
:101BC000ADF800000020ADF80800ADF8020069464D
:101BD0004FF0804000F07AFC00214FF0804000F090
:101BE00046FC0121880700F095F90EBD0CB50020D8
:101BF000019000903448006840F480303249086019
:101C000000BF3148006800F4003000900198401C8B
:101C10000190009818B90198B0F5A04FF1D12A4869
:101C2000006800F4003010B10120009001E00020B5
:101C300000900098012846D123484030006840F0C9
:101C400080502149403108602048006840F44040FD
:101C50001E4908601C48083000681B4908310860AC
:101C60000846006840F4004008600846006840F4F8
:101C7000A05008601648091F0860081F006840F05F
:101C80008070091F086000BF0F48006800F00070F6
:101C90000028F9D040F205700E4908600A48083063
:101CA000006820F003000849083108600846006811
:101CB00040F00200086000BF03480830006800F0F0
:101CC0000C000828F8D10CBD00380240007000401C
:101CD00019544007003C02407047000010B51548F9
:101CE000006840F47000134908601348006840F031
:101CF00001001149086000200F49083108600E48B2
:101D000000680E4908400C4908600D48091D08602C
:101D1000081F006820F48020091F08600020064981
:101D20000C310860FFF762FF4FF000600149803915
:101D3000086010BD88ED00E000380240FFFFF6FEAD
:101D400010300024F0B50C46154600210022068C08
:101D50004FF6FE773E400684018B028C4FF60C76E0
:101D600031407E1C06EA03162E4331434FF6F576CA
:101D7000324044F00106324301830284F0BDF0B5E5
:101D80000C461546002100220026078C4FF6EF7CFA
:101D900007EA0C070784018B028C4FF6FF7707EAEE
:101DA000041640F6FF4739404FF6FF7707EA03373E
:101DB00039434FF6FF7707EA052739434FF65F7738
:101DC0003A4046F010073A4301830284F0BDF0B573
:101DD0000C461546002100220026078C4FF6FF6CAA
:101DE00007EA0C070784818B028C4FF6FF7707EA1E
:101DF00004264FF60C7739404FF6FF7707EA0317B2
:101E00002F4339434FF2FF573A4046F480773A4325
:101E100081830284F0BDF0B50C46154600210022F6
:101E20000026078C4EF6FF7C07EA0C070784818B9F
:101E3000028C4FF6FF7707EA043640F6FF47394039
:101E40004FF6FF7707EA052739434FF6FF7707EA92
:101E50000337394345F6FF773A4046F480573A4313
:101E600081830284F0BD000010B50121194800F003
:101E700059F968B30121174800F049F8FEF750FC02
:101E8000FEF706FEFEF734FD13480068C0F30F109E
:101E90001249088012480068C0F30F1011490880E9
:101EA00011480068C0F30F101049088010480068FE
:101EB000C0F30F100F4908800F480068C0F30F10DF
:101EC0000E4908800E480068C0F30F100D490880C5
:101ED00010BD000000180040400000205800002005
:101EE000440000205A000020480000205C00002030
:101EF0004C0000205E000020500000206000002008
:101F00005400002062000020CA4302827047CA4386
:101F10000282704721B1028842F00102028004E08F
:101F200002884FF6FE731A400280704731B1B0F854
:101F3000442042F40042A0F8442005E0B0F84420D8
:101F4000C2F30E02A0F844207047000010B504460A
:101F50005548844208D101210846FFF76DFD002154
:101F60000120FFF769FD9DE0B4F1804F08D1012108
:101F70000846FFF741FD00210120FFF73DFD91E0FC
:101F80004A48844208D101210220FFF735FD002193
:101F90000220FFF731FD85E04548844208D1012148
:101FA0000420FFF729FD00210420FFF725FD79E03B
:101FB0004048844208D101210820FFF71DFD00217F
:101FC0000820FFF719FD6DE03B48844208D101214C
:101FD0001020FFF711FD00211020FFF70DFD61E03B
:101FE0003648844208D101212020FFF705FD002159
:101FF0002020FFF701FD55E03148844208D101213E
:102000000220FFF719FD00210220FFF715FD49E02E
:102010002C48844209D101210804FFF70DFD00215D
:102020004FF48030FFF708FD3CE02748844209D197
:1020300001214804FFF700FD00214FF40030FFF7B5
:10204000FBFC2FE02148844209D101218804FFF7DD
:10205000F3FC00214FF48020FFF7EEFC22E01C4847
:10206000844208D101214020FFF7C6FC0021402016
:10207000FFF7C2FC16E01748844208D101218020F6
:10208000FFF7BAFC00218020FFF7B6FC0AE01248F7
:10209000844207D101218015FFF7AEFC0021A01575
:1020A000FFF7AAFC10BD0000000001400004004042
:1020B00000080040000C00400010004000140040E8
:1020C000000401400040014000440140004801403C
:1020D00000180040001C004000200040F0B50C46F5
:1020E00015461E460021002200230189028B038C25
:1020F0004FF6F877394021434FF6FC473A4040F21B
:1021000001173A434FF6DD773B404FF6FF7707EA7A
:1021100006172F433B43018102830384F0BD014630
:10212000486A704730B50246002000230024158A13
:1021300005EA0103958905EA010413B10CB10120F8
:1021400000E0002030BD70B505460C46208850B92F
:102150002389A28861882846FFF7F4FDE188284694
:1021600000F087F925E0208804280AD12389A28875
:1021700061882846FFF703FEE188284600F082F9CF
:1021800017E0208808280AD12389A2886188284678
:10219000FFF71DFEE188284600F081F909E0238958
:1021A000A28861882846FFF736FEE188284600F0BD
:1021B0007FF970BD002101804180012181800021D3
:1021C000C180018170471AB183890B43838102E08A
:1021D00083898B438381704770B5002400220023DC
:1021E000058C4FF6FE7635400584028C8388048B7F
:1021F0004FF68F752C40B51E2C400D882C43751E54
:102200002A408D892A434D882A43104DA84202D086
:102210000F4DA84213D14FF6F7752A40CD892A43B6
:102220004FF6FB752A408D882A434FF6FF652B40F9
:102230004FF6FF552B400D8A2B434D8A2B4383804D
:1022400004838D684563028470BD00000000014076
:10225000000401400A460021018B4FF6F773194034
:10226000114301837047000070B500240022002351
:10227000058C4FF6EF7635400584028C8388048BFD
:1022800048F6FF752C404FF6FF452C400D884FF661
:10229000FF7606EA05252C434FF6DF752A408D8927
:1022A00006EA05152A434D8806EA05152A43154D09
:1022B000A84202D0144DA8421DD14FF67F752A4086
:1022C000CD894FF6FF7606EA05152A434FF6BF750E
:1022D0002A408D8806EA05152A434FF6FF352B4024
:1022E0004FF2FF752B400D8A06EA85052B434D8A78
:1022F00006EA85052B43838004838D688563028409
:1023000070BD000000000140000401400A460021A9
:10231000018B4FF2FF7319404FF6FF7303EA02235C
:10232000194301837047000070B500240022002388
:10233000058C4FF6FF6635400584028C8388848BBC
:102340004FF68F752C404FF6FC752C400D882C43B2
:102350004FF6FF552A408D894FF6FF7606EA052590
:102360002A434D8806EA05252A43154DA84202D086
:10237000144DA8421DD14FF2FF752A40CD894FF66A
:10238000FF7606EA05252A434FF6FF352A408D8859
:1023900006EA05252A434EF6FF752B404DF6FF75DC
:1023A0002B400D8A06EA05152B434D8A06EA0515D2
:1023B0002B43838084838D68C563028470BD0000D5
:1023C00000000140000401400A460021818B4FF6C5
:1023D000F7731940114381837047000070B50022E4
:1023E00000230024058C4EF6FF7635400584038CCF
:1023F0008488828B48F6FF752A404FF6FF452A40B5
:102400000D884FF6FF7606EA05252A434DF6FF753F
:102410002B408D8906EA05352B434D8806EA0535A4
:102420002B430A4DA84202D0094DA84208D14BF6D1
:10243000FF752C400D8A4FF6FF7606EA85152C4372
:10244000848082838D680564038470BD0000014030
:10245000000401400A460021818B4FF2FF731940AE
:102460004FF6FF7303EA02231943818370474162E9
:102470007047028B4FF6F3731A400283028B0A43B4
:1024800002837047028B4FF2FF331A400283028BA4
:102490004FF6FF7303EA01231A4302837047828BCE
:1024A0004FF6F3731A408283828B0A43828370470C
:1024B000828B4FF2FF331A408283828B4FF6FF7379
:1024C00003EA01231A438283704700000022028836
:1024D000184B98420ED0184B98420BD0B0F1804F59
:1024E00008D0164B984205D0154B984202D0154B98
:1024F000984204D14FF68F731A404B881A43124BFF
:10250000984207D0114B984204D04FF6FF431A402F
:102510000B891A4302804B68C3620B880385054B05
:10252000984202D0044B984201D18B7A0386012352
:102530008382704700000140000401400004004015
:1025400000080040000C0040001000400014004053
:102550004FF0FF3141600021018001814180817293
:102560007047000000B587B001210846FFF724FA44
:1025700001211020FFF750FA072209212148FEF718
:1025800089F907220A211F48FEF784F903208DF8F4
:10259000190000208DF81A0002208DF81800012083
:1025A0008DF81B004002059005A91648FEF72AF990
:1025B0004FF48060059005A91248FEF723F94FF407
:1025C000E13001900020ADF80800ADF80A00ADF848
:1025D0000C000C20ADF80E000020ADF8100001A991
:1025E000094800F051F8FFF78CF9012240F225511B
:1025F000054800F024F80121034800F007F807B06F
:1026000000BD0000000002400010014021B182899D
:1026100042F40052828104E082894DF6FF731A4031
:102620008281704702460020B1F5007F00D100BFD3
:1026300013880B400BB1012000E000207047F0B57B
:102640000346002400260025002040F66A17B94200
:1026500000D100BF1846C1F3421401F01F06012744
:1026600007FA06F5012C01D10C3004E0022C01D14F
:10267000103000E014301AB107682F43076002E001
:102680000768AF430760F0BD2DE9FF4705460E46DA
:102690000024A14600BFA046B08900B100BF2C8A2B
:1026A00024F44054F08804432C82AC8941F20C603D
:1026B0008443B08831890843718908430443AC815D
:1026C000AC8A24F44074B0890443AC826846FFF7B6
:1026D000C3F92048854202D01F48854202D1DDF867
:1026E0000C9001E0DDF80890A88900F4004040B1AA
:1026F00009EBC90000EB091031684900B0FBF1F7A4
:1027000007E009EBC90000EB091031688900B0FB54
:10271000F1F76420B7FBF0F004012009642101FB0C
:102720001078A88900F4004040B1322000EBC800C6
:10273000B0FBF1F000F00700044308E0322000EBAA
:1027400008106421B0FBF1F000F00F0004432C816D
:10275000BDE8FF870010014000140140C1F30802EA
:102760008280704700BFFEE70FB4054B10B503A988
:10277000044A029800F096F910BC5DF814FB0000C2
:10278000012E0008800000204100080218BF04202C
:102790000A0E18BF40F001004FF07F4232EA0101FB
:1027A00008BF40F00200012808BF05207047000064
:1027B00000B510EE101A2DED028B81B04B4A684621
:1027C000B2EB410F3CD94FF0E640B0EB410F94BF64
:1027D00000204FF0FF3000900098B0EE408A0028B3
:1027E0005FDB28EE080ADFED420A9FED421A00EE99
:1027F000201ADFED410A10F0010F40EE010A9FEDB3
:102800003F1A00EE201ADFED3E0A40EE010A9FED6E
:102810003D1A00EE201A61EE000AB0EE480A08EEFA
:10282000200A02BF01B0BDEC028B00BDBFEE001A52
:1028300001B0C1EE000ABDEC028BB0EE600A00BD33
:10284000314B21F00042934228D911F0004FDFEDC7
:102850002F0A20EE201ADFED2E0A19BF31EE601A82
:1028600071EE200A31EE201A71EE600ABDEEE01A18
:1028700011EE100A9FED271A00F0030000EEC10AC6
:102880009FED251A009000EEC10A9FED241A00EE7C
:10289000C10A9FED231A00EEC10A9DE700F04CF833
:1028A0009AE718EE100A4000B0F17F4F88BF38EE6B
:1028B000080A0DD218EE100AFFF766FF042808BFB9
:1028C00000F032F8B0EE480A01B0BDEC028B00BD5A
:1028D0001EBF01B0BDEC028B00BD012000F0DCF892
:1028E000DFED100A80EEA00AEEE70000B61F927E30
:1028F000BBE9223C0C6D063B8A76CE3CACB5593D1B
:1029000035A1083E29AAAA3E490E494683F9223F2D
:102910000000004B0000C93F00A0FD390020A23399
:102920001A61342C000000009FED020A20EE000A1C
:1029300070470000000000102DE9F0014FF07F42C9
:10294000B2EB410F9FBF4FF0FF310160BDE8F001D6
:1029500070474FF0004242EA0123C1F3C752783A70
:10296000541102F01F023E4DC2F1200C7D4455F877
:10297000246005EB840596406C6824FA0CF7374315
:10298000AE68944026FA0CF8ED6806FA02F225FAD1
:102990000CFC42EA0C0644EA0804A7FB03C5A4FBAE
:1029A0000342A6FB03631C449C4234BF012600265D
:1029B00002EB0C03334416B1934202D903E0934275
:1029C00001D2012200E000222A4402F1200C9206EA
:1029D000DD0C42EA453200EE102A5B03DFED210AEE
:1029E000F8EEC01A00EE103A4FEA9C1C11F0004FAE
:1029F000B8EE400AC0F800C020EE201A00EE104ADF
:102A0000DFED190AB8EE400A20EE202A31EE810AE5
:102A100030EE020A10EE102A02F500626FF30B028C
:102A200000EE902A30EEE10ADFED111A30EE410A95
:102A300032EE401A9FED0D0A20EE800A01EE210AC7
:102A40009FED0C1A00EE810A04BFBDE8F00170474B
:102A5000CCF180510160BDE8F001B1EE400A704751
:102A600040090000000000360000802C22AAFD2949
:102A7000DB0FC92F0000C92F02E008C8121F08C1D0
:102A8000002AFAD170477047002001E001C1121FEF
:102A9000002AFBD170470000014908607047000020
:102AA000840000202DE9FF4F8BB0884605460026A4
:102AB00006E025280BD0DDE90D1290476D1C761C31
:102AC00028780028F5D10FB03046BDE8F08F0024FB
:102AD000A146A2460122AE4900E0044315F8013F99
:102AE000203B02FA03F00842F7D128782A2810D0B8
:102AF0006FF02F022878A0F13001092915D809EBD1
:102B0000890102EB410144F0020400EB01096D1C54
:102B1000F0E758F8041B5FEA010903D544F40054B8
:102B2000C9F1000944F002046D1C28782E2817D141
:102B300015F8010F44F004042A280ED06FF02F027C
:102B40002878A0F1300109290AD80AEB8A0102EBA2
:102B5000410100EB010A6D1CF2E758F804AB6D1C53
:102B600028786C280FD006DC4C2817D068280DD0A8
:102B70006A2814D104E0742810D07A280FD10DE00F
:102B800044F400140AE044F4801401E044F44014D6
:102B90006978814202D104F580146D1C6D1C28787F
:102BA000692865D006DC00288DD0632827D06428EA
:102BB00006D15DE06E2808D073282AD0752877D01A
:102BC000DDE90D129047761CE0E0C4F302500228C4
:102BD00009D003280DD0D8F8001004280DD00E60BD
:102BE00008F10408D2E0D8F80010F217C1E9006239
:102BF000F6E7D8F800100E80F2E70E70F0E718F84C
:102C0000041B8DF8001000208DF80100EB46012018
:102C100003E058F804BB4FF0FF3061074FF00007A6
:102C200001D40AE07F1C57450DDA8742FADB1BF816
:102C300007100029F6D106E07F1C8742FCDB1BF859
:102C400007100029F8D1DDE90D23A9EB0700814623
:102C5000214600F0B1F83044C61904E0DDE90D1258
:102C60001BF8010B90477F1EF8D22146484688E0AA
:102C700058F8040BC4F302514FF00A0B032900D19A
:102C800000B2042900D140B2002802DA40422D21CE
:102C900002E0210505D52B218DF82410012104E047
:102CA00006E0E10710D02021F6E708AF089113E015
:102CB00058F8040BC4F302514FF00A0B032900D15A
:102CC00080B2042900D1C0B20021EEE75946FDF7D9
:102CD000E3FA303107F8011D0028F7D1ADEB07000A
:102CE00000F1200B600702D524F4803401E04FF09E
:102CF000010ADA4502DDAAEB0B0000E00020824663
:102D000000EB0B0108980144A9EB01000A90E003D5
:102D100006D4DDE90D2321460A9800F04DF806445B
:102D20004FF0000908E009A911F80900DDE90D12CA
:102D3000904709F10109761C08998945F3DBE00306
:102D40000CD5DDE90D2321460A9800F035F806443C
:102D500004E0DDE90D1230209047761CBAF1000145
:102D6000AAF1010AF5DC05E0DDE90D1217F8010B07
:102D70009047761CBBF10001ABF1010BF4DC0A9823
:102D80002146DDE90D2300F005F806446D1C97E6A9
:102D9000092801002DE9F041044600251E4617468A
:102DA000880404D405E039462020B0476D1C641E19
:102DB000F9D52846BDE8F0812DE9F041044600250B
:102DC0001E469046C80301D5302700E0202788041E
:102DD00004D505E041463846B0476D1C641EF9D560
:102DE0002846BDE8F081002107E0002200E0521CE7
:102DF00048F240339A42FAD3491C8142F5D37047D6
:102E000070B504460D46E1B20548FFF7A7FC00BFC8
:102E100080210348FFF706FC0028F9D0204670BD4A
:102E2000001001403220FFF7DEFFFFF79BFBFDF7AC
:102E300017FCFDF7B5FFFEF7BAFEFEF791FEFEF7B1
:102E400027FBFEF76FFBFEF7FFFCFDF735FBFDF7F9
:102E5000AFFEFEF7A3FB0120094908800FE0012027
:102E6000FFF7C1FF0748FEF781FC0648B0F90430C0
:102E7000B0F90220B0F9001003A0FFF775FCEEE7EF
:102E8000180402401A000020783D25356420793D61
:102E90002535642C207A3D253564200A0000000089
:102EA00043EC7F3F0000803F43EC7F3F0FB17F3F0B
:102EB0006D4E7F3F6DC47E3F24137E3FAC3A7D3F15
:102EC000283B7C3FBE147B3F9DC7793FF853783F3A
:102ED00007BA763F0BFA743F4714733F0809713FF6
:102EE0009ED86E3F5E836C3FA7096A3FD86B673FF1
:102EF00059AA643F98C5613F05BE5E3F1A945B3F87
:102F00005348583F31DB543F3D4D513F029F4D3FA9
:102F100012D1493F03E4453F70D8413FF9AE3D3FF0
:102F20004268393FF304353FBB85303F4AEB2B3FC6
:102F30005636273F9967223FD17F1D3FC07F183FFC
:102F40002A68133FDA390E3F9BF5083F3D9C033F4B
:102F5000275DFC3EEA5AF13E7533E63E80E8DA3EF4
:102F6000CA7BCF3E15EFC33E2A44B83ED47CAC3E6C
:102F7000E59AA03E31A0943E938E883ECCCF783E19
:102F8000135C603EC2C5473EA2102F3E8340163EF2
:102F900073B2FA3D36BDC83D05A9963D30FB483DAC
:102FA000B00AC93C0BA88C24B00AC9BC30FB48BD90
:102FB00005A996BD36BDC8BD73B2FABD834016BE25
:102FC000A2102FBEC2C547BE135C60BECCCF78BE78
:102FD000938E88BE31A094BEE59AA0BED47CACBED0
:102FE0002A44B8BE15EFC3BECA7BCFBE80E8DABEA6
:102FF0007533E6BEEA5AF1BE275DFCBE3D9C03BFB9
:103000009BF508BFDA390EBF2A6813BFC07F18BF0F
:10301000D17F1DBF996722BF563627BF4AEB2BBF12
:10302000BB8530BFF30435BF426839BFF9AE3DBF41
:1030300070D841BF03E445BF12D149BF029F4DBFC5
:103040003D4D51BF31DB54BF534858BF1A945BBF4D
:1030500005BE5EBF98C561BF59AA64BFD86B67BF84
:10306000A7096ABF5E836CBF9ED86EBF080971BF97
:10307000471473BF0BFA74BF07BA76BFF85378BF13
:103080009DC779BFBE147BBF283B7CBFAC3A7DBFD8
:1030900024137EBF6DC47EBF6D4E7FBF0FB17FBF57
:1030A00043EC7FBF000080BF43EC7FBF0FB17FBF09
:1030B0006D4E7FBF6DC47EBF24137EBFAC3A7DBF13
:1030C000283B7CBFBE147BBF9DC779BFF85378BF38
:1030D00007BA76BF0BFA74BF471473BF080971BFF4
:1030E0009ED86EBF5E836CBFA7096ABFD86B67BFEF
:1030F00059AA64BF98C561BF05BE5EBF1A945BBF85
:10310000534858BF31DB54BF3D4D51BF029F4DBFA7
:1031100012D149BF03E445BF70D841BFF9AE3DBFEE
:10312000426839BFF30435BFBB8530BF4AEB2BBFC4
:10313000563627BF996722BFD17F1DBFC07F18BFFA
:103140002A6813BFDA390EBF9BF508BF3D9C03BF49
:10315000275DFCBEEA5AF1BE7533E6BE80E8DABEF2
:10316000CA7BCFBE15EFC3BE2A44B8BED47CACBE6A
:10317000E59AA0BE31A094BE938E88BECCCF78BE17
:10318000135C60BEC2C547BEA2102FBE834016BEF0
:1031900073B2FABD36BDC8BD05A996BD30FB48BDAA
:1031A000B00AC9BC372354A5B00AC93C30FB483D1E
:1031B00005A9963D36BDC83D73B2FA3D8340163E23
:1031C000A2102F3EC2C5473E135C603ECCCF783E76
:1031D000938E883E31A0943EE59AA03ED47CAC3ECE
:1031E0002A44B83E15EFC33ECA7BCF3E80E8DA3EA4
:1031F0007533E63EEA5AF13E275DFC3E3D9C033FB7
:103200009BF5083FDA390E3F2A68133FC07F183F0D
:10321000D17F1D3F9967223F5636273F4AEB2B3F10
:10322000BB85303FF304353F4268393FF9AE3D3F3F
:1032300070D8413F03E4453F12D1493F029F4D3FC3
:103240003D4D513F31DB543F5348583F1A945B3F4B
:1032500005BE5E3F98C5613F59AA643FD86B673F82
:10326000A7096A3F5E836C3F9ED86E3F0809713F95
:103270004714733F0BFA743F07BA763FF853783F11
:103280009DC7793FBE147B3F283B7C3FAC3A7D3FD6
:1032900024137E3F6DC47E3F6D4E7F3F0FB17F3F55
:1032A00043EC7F3F0000803F43EC7F3F0FB17F3F07
:1032B000000000006E83F9A22915444ED15727FC67
:1032C000C0DD34F5999562DB4190433CAB6351FE20
:1032D000F03200080000002088000000782A000872
:1032E000783300088800002090070000882A000832
:1032F000000000000102030401020304060708099C
:1033000000000000000000000000000000000000BD
:1033100000000000000000000000000000000000AD
:10332000000000000000000000000000000000009D
:10333000000000000000000000000000000000008D
:10334000000000000000000000000000000000007D
:10335000000000000000000000000000000000006D
:10336000000000000000000000000000000000005D
:08337000000000000000000055
:040000050800018965
:00000001FF
