:020000040800F2
:10000000380400209D01000865070008230500084A
:10001000C9050008110200082915000800000000A9
:10002000000000000000000000000000110A0008AD
:100030001502000800000000190800083D0B000828
:10004000B7010008B7010008B7010008B7010008B0
:10005000B7010008B7010008B7010008B7010008A0
:10006000B7010008B7010008B7010008B701000890
:10007000B7010008B7010008B7010008B701000880
:10008000B7010008B7010008B7010008B701000870
:10009000B7010008B7010008B7010008B701000860
:1000A000B7010008B7010008B7010008B701000850
:1000B000B7010008B7010008B7010008B701000840
:1000C000B7010008B7010008B7010008B701000830
:1000D000B7010008B7010008B7010008B701000820
:1000E000B7010008B7010008B7010008CD0C0008EF
:1000F000B7010008B7010008B7010008B701000800
:10010000B7010008B7010008B7010008B7010008EF
:10011000B7010008B7010008B7010008B7010008DF
:10012000B7010008B7010008B7010008B7010008CF
:10013000B7010008B7010008B7010008B7010008BF
:10014000B7010008B7010008B7010008B7010008AF
:10015000B7010008B7010008B7010008B70100089F
:10016000B7010008B7010008B7010008B70100088F
:10017000B7010008B7010008B7010008B70100087F
:10018000B7010008B7010008DFF80CD000F02EF826
:10019000004800470117000838040020064880473F
:1001A00006480047FEE7FEE7FEE7FEE7FEE7FEE75C
:1001B000FEE7FEE7FEE7FEE7410B000889010008C5
:1001C00030B50B46014600202022012409E021FA27
:1001D00002F59D4205D303FA02F5491B04FA02F524
:1001E0002844151EA2F10102F1DC30BD064C074D7A
:1001F00006E0E06840F0010394E8070098471034F7
:10020000AC42F6D3FFF7C4FF8C170008AC17000808
:1002100000BFFEE7704700001CB501210C2000F074
:10022000FDFA0121062000F009FB022207211C48EB
:1002300000F054F902220621194800F04FF9022279
:100240000D21184800F04AF902220C21154800F04F
:1002500045F902208DF8040000208DF806000120E9
:100260008DF8070003208DF8050080200090694676
:100270000B4800F0EBF8402000906946084800F079
:10028000E5F84FF4005000906946064800F0DEF8AB
:100290004FF4805000906946024800F0D7F81CBD2A
:1002A00000080240000C024010B5FFF7B5FF00F057
:1002B00001F810BD00B587B00121062000F0BEFA9C
:1002C000274800F025FD274800F022FD01A801F095
:1002D00021F84FF6FE7002900020ADF80400ADF852
:1002E0000600ADF80C0001A91D4800F0D1FF01A9DE
:1002F0001C4800F0CDFF00231A460321184800F0E7
:10030000CFFD00231A460321164800F0C9FD04A8BA
:1003100000F032FE0620ADF8180004A9104800F0E5
:10032000F4FD04A90F4800F0F0FD01210C4800F095
:10033000DDFC01210B4800F0D9FC0021084800F049
:1003400078FF0021074800F074FF0121044800F005
:10035000D3FC0121034800F0CFFC07B000BD000032
:10036000000400400008004010B52E4800F0B9FD20
:100370002D490860084600682C490968401A2C4934
:100380000860294800682949086029480068B0F5D4
:10039000004F06DB26480068A0F58030244908603D
:1003A0000AE02348006810F5004F05DC204800688B
:1003B00000F580301E4908601E4800681C49096825
:1003C00008441C4908601C4800F08BFD1B4908606C
:1003D000084600681A490968401A1A49086017480F
:1003E00000681749086017480068B0F5004F06DB41
:1003F00014480068A0F58030124908600AE01148EE
:10040000006810F5004F05DC0E48006800F58030EC
:100410000C4908600C4800680A49096808440A4900
:10042000086010BD000400402000002028000020CB
:1004300010000020180000200008004024000020C8
:100440002C000020140000201C000020F0B50A46FB
:1004500000210023002400BF3DE0012505FA01F33F
:10046000156805EA03049C4234D105684F00032651
:10047000BE40B543056015794E00B540066835436A
:1004800005601579012D02D01579022D16D18568E8
:100490004F000326BE40B543856055794E00B540F8
:1004A000866835438560456801268E40B5434560C2
:1004B000456896798E40B6B235434560C5684F00B1
:1004C0000326BE40B543C560D5794E00B540C66829
:1004D0003543C560491C1029BFD3F0BDF0B50023DA
:1004E00000244D07ED0E02FA05F3CE1000F12005B1
:1004F00055F826504E07F70E0F26BE40B543CF10D5
:1005000000F1200646F82750CE1000F1200555F8DE
:10051000265045EA0304CE1000F1200545F8264098
:10052000F0BD00BFFEE700001CB501211A2000F05D
:1005300075F901208DF8040000208DF806008DF873
:10054000070003208DF805000120009069461B4834
:10055000FFF77CFF1020009069461948FFF776FFEF
:100560002020009069461648FFF770FF4FF4805036
:10057000009069461148FFF769FF04200090694622
:100580001048FFF763FF4FF40070009069460D4874
:10059000FFF75CFF01200949183108801020084945
:1005A000088320200883C0010449183108800420F2
:1005B000044918310880C00108801CBD00040240B5
:1005C00000100240000C024000BFFEE71CB50121F4
:1005D000084600F033F9022201211B48FFF77EFF95
:1005E000022200211848FFF779FF02220321164852
:1005F000FFF774FF022211461348FFF76FFF022036
:100600008DF8040000208DF806008DF80700032007
:100610008DF805000220009069460B48FFF716FF91
:100620000120009069460848FFF710FF082000905D
:1006300069460548FFF70AFF042000906946024812
:10064000FFF704FF1CBD00000000024010B5FFF7DB
:10065000BDFF00F001F810BD00B589B001210820F0
:1006600000F0ECF840F2E73007905320ADF81800A6
:100670000020ADF82000ADF81A0006A9214800F0CE
:1006800007FE6020ADF804000220ADF81000012044
:10069000ADF806000020039001A91A4800F07EFC86
:1006A0000821184800F0B8FC0120ADF80600002031
:1006B000039001A9134800F0B9FC0821114800F08B
:1006C00007FD0120ADF806000020039001A90D48A8
:1006D00000F00CFD08210B4800F058FD0120ADF89A
:1006E00006000020039001A9064800F059FD0821EA
:1006F000044800F091FD0121024800F0FDFA09B024
:1007000000BD0000000C004010B5B0F5FA7F01DB21
:100710004FF4FA70B1F5FA7F01DB4FF4FA71B2F5DC
:10072000FA7F01DB4FF4FA72B3F5FA7F01DB4FF485
:10073000FA73002800DC0020002900DC0021002AD8
:1007400000DC0022002B00DC0023054C2060241F6D
:100750002160034C08342260241F236010BD000078
:10076000380C0040704708B54FF4C06000F04AF8FC
:1007700025208DF8000001208DF801008DF8020081
:100780008DF80300684600F001F808BD70B500213F
:1007900000230F22C4781CB3174C246804F4E064CF
:1007A000C4F5E064C4F30721C1F10404E3B20A41D3
:1007B00044789C40E1B28478144021430C07210E18
:1007C0000E4C05786155047804F01F050124AC40F7
:1007D00005786D11AD0005F1E025C5F8004109E08F
:1007E000047804F01F050124AC40054D067876110D
:1007F00045F8264070BD00000CED00E000E400E08C
:1008000080E100E002490143024A116070470000A4
:100810000000FA050CED00E07047000029B1064A1F
:1008200012680243044B1A6004E0034A12688243D0
:10083000014B1A60704700003038024029B1064A67
:1008400012680243044B1A6004E0034A12688243B0
:10085000014B1A60704700004038024029B1064A37
:1008600012680243044B1A6004E0034A1268824390
:10087000014B1A60704700002038024029B1064A37
:1008800012680243044B1A6004E0034A1268824370
:10089000014B1A60704700004438024029B1064AF3
:1008A00012680243044B1A6004E0034A1268824350
:1008B000014B1A607047000024380240F0B5002157
:1008C00000220024022500260223324F3F6807F051
:1008D0000C0121B1042905D0082937D105E02E4F9C
:1008E000076036E02D4F076033E02A4F3F1F3F6817
:1008F000C7F38056274F3F1F3F6807F03F036EB195
:10090000264FB7FBF3F7DFF88CC0ACF1040CDCF832
:1009100000C0CCF3881C07FB0CF40CE01E4FB7FBA7
:10092000F3F7DFF870C0ACF1040CDCF800C0CCF3D6
:10093000881C07FB0CF4174F3F1F3F68C7F30147A4
:100940007F1C7D00B4FBF5F7076002E0124F0760E3
:1009500000BF00BF0F4F3F6807F0F0010909104FBB
:100960007A5C0768D74047600A4F3F6807F4E05158
:10097000890A0B4F7A5C4768D7408760054F3F680C
:1009800007F46041490B064F7A5C4768D740C7605F
:10099000F0BD0000083802400024F40040787D01DA
:1009A0000000002008B52B208DF8000000208DF8F5
:1009B000010001208DF802008DF803006846FFF762
:1009C000E5FE08BD0EB501214020FFF737FF40F2DC
:1009D000F31001905320ADF800000020ADF808009E
:1009E000ADF802006946094800F052FCFFF7DAFF53
:1009F00001221146054800F0C8FA0021034800F022
:100A000018FC0121014800F077F90EBD00180040E4
:100A100070470EB501210846FFF710FF4FF0FF3079
:100A200001905320ADF800000020ADF80800ADF8AB
:100A3000020069464FF0804000F02AFC00214FF090
:100A4000804000F0F6FB0121880700F055F90EBD4B
:100A50000CB50020019000903448006840F48030CC
:100A60003249086000BF3148006800F4003000904F
:100A70000198401C0190009818B90198B0F5A04F5A
:100A8000F1D12A48006800F4003010B10120009034
:100A900001E0002000900098012846D12348403012
:100AA000006840F0805021494031086020480068CB
:100AB00040F440401E4908601C48083000681B494B
:100AC000083108600846006840F4004008600846A5
:100AD000006840F4A05008601648091F0860081F0D
:100AE000006840F08070091F086000BF0F48006870
:100AF00000F000700028F9D040F205700E4908603F
:100B00000A480830006820F00300084908310860EE
:100B10000846006840F00200086000BF0348083043
:100B2000006800F00C000828F8D10CBD0038024025
:100B30000070004019544007003C0240704700001C
:100B400010B51548006840F4700013490860134858
:100B5000006840F001001149086000200F49083189
:100B600008600E4800680E4908400C4908600D48AE
:100B7000091D0860081F006820F48020091F086014
:100B8000002006490C310860FFF762FF4FF000605B
:100B900001498039086010BD88ED00E0003802404E
:100BA000FFFFF6FE10300024F0B50C46154600217C
:100BB0000022068C4FF6FE773E400684018B028CA5
:100BC0004FF60C7631407E1C06EA03162E43314365
:100BD0004FF6F576324044F0010632430183028439
:100BE000F0BDF0B50C461546002100220026078C0A
:100BF0004FF6EF7C07EA0C070784018B028C4FF657
:100C0000FF7707EA041640F6FF4739404FF6FF77B3
:100C100007EA033739434FF6FF7707EA05273943D9
:100C20004FF65F773A4046F010073A43018302845B
:100C3000F0BDF0B50C461546002100220026078CB9
:100C40004FF6FF6C07EA0C070784818B028C4FF686
:100C5000FF7707EA04264FF60C7739404FF6FF7707
:100C600007EA03172F4339434FF2FF573A4046F440
:100C700080773A4381830284F0BDF0B50C46154677
:100C8000002100220026078C4EF6FF7C07EA0C07A5
:100C90000784818B028C4FF6FF7707EA043640F613
:100CA000FF4739404FF6FF7707EA052739434FF6EC
:100CB000FF7707EA0337394345F6FF773A4046F4B2
:100CC00080573A4381830284F0BD000010B50121B2
:100CD000054800F009F928B10121034800F009F89E
:100CE000FFF742FB10BD000000180040CA4302821B
:100CF0007047CA430282704721B1028842F0010264
:100D0000028004E002884FF6FE731A4002807047AA
:100D100010B504465548844208D101210846FFF722
:100D2000BDFD00210120FFF7B9FD9DE0B4F1804F2A
:100D300008D101210846FFF791FD00210120FFF7AE
:100D40008DFD91E04A48844208D101210220FFF73D
:100D500085FD00210220FFF781FD85E045488442A2
:100D600008D101210420FFF779FD00210420FFF7BD
:100D700075FD79E04048844208D101210820FFF741
:100D80006DFD00210820FFF769FD6DE03B488442BE
:100D900008D101211020FFF761FD00211020FFF78D
:100DA0005DFD61E03648844208D101212020FFF733
:100DB00055FD00212020FFF751FD55E031488442C8
:100DC00008D101210220FFF769FD00210220FFF771
:100DD00065FD49E02C48844209D101210804FFF750
:100DE0005DFD00214FF48030FFF758FD3CE02748BF
:100DF000844209D101214804FFF750FD00214FF43E
:100E00000030FFF74BFD2FE02148844209D101213A
:100E10008804FFF743FD00214FF48020FFF73EFDDB
:100E200022E01C48844208D101214020FFF716FD32
:100E300000214020FFF712FD16E01748844208D138
:100E400001218020FFF70AFD00218020FFF706FD29
:100E50000AE01248844207D101218015FFF7FEFC09
:100E60000021A015FFF7FAFC10BD000000000140B2
:100E70000004004000080040000C0040001000404A
:100E800000140040000401400040014000440140C3
:100E90000048014000180040001C004000200040B5
:100EA000F0B50C4615461E4600210022002301899C
:100EB000028B038C4FF6F877394021434FF6FC47FD
:100EC0003A4040F201173A434FF6DD773B404FF688
:100ED000FF7707EA06172F433B4301810283038410
:100EE000F0BD0146486A704730B502460020002335
:100EF0000024158A05EA0103958905EA010413B166
:100F00000CB1012000E0002030BD70B505460C4654
:100F1000208850B92389A28861882846FFF744FEBB
:100F2000E188284600F087F925E0208804280AD1C6
:100F30002389A28861882846FFF753FEE188284666
:100F400000F082F917E0208808280AD12389A288B6
:100F500061882846FFF76DFEE188284600F081F998
:100F600009E02389A28861882846FFF786FEE18888
:100F7000284600F07FF970BD0021018041800121E9
:100F800081800021C180018170471AB183890B43A0
:100F9000838102E083898B438381704770B500248D
:100FA00000220023058C4FF6FE7635400584028C26
:100FB0008388048B4FF68F752C40B51E2C400D880E
:100FC0002C43751E2A408D892A434D882A43104D93
:100FD000A84202D00F4DA84213D14FF6F7752A4010
:100FE000CD892A434FF6FB752A408D882A434FF658
:100FF000FF652B404FF6FF552B400D8A2B434D8A42
:101000002B43838004838D684563028470BD000098
:1010100000000140000401400A460021018B4FF608
:10102000F7731940114301837047000070B5002425
:1010300000220023058C4FF6EF7635400584028CA4
:101040008388048B48F6FF752C404FF6FF452C40F3
:101050000D884FF6FF7606EA05252C434FF6DF751F
:101060002A408D8906EA05152A434D8806EA0515AA
:101070002A43154DA84202D0144DA8421DD14FF667
:101080007F752A40CD894FF6FF7606EA05152A437B
:101090004FF6BF752A408D8806EA05152A434FF69C
:1010A000FF352B404FF2FF752B400D8A06EA850570
:1010B0002B434D8A06EA85052B43838004838D6884
:1010C0008563028470BD00000000014000040140FF
:1010D0000A460021018B4FF2FF7319404FF6FF7350
:1010E00003EA0223194301837047000070B500240E
:1010F00000220023058C4FF6FF6635400584028CE4
:101100008388848B4FF68F752C404FF6FC752C40EE
:101110000D882C434FF6FF552A408D894FF6FF76F8
:1011200006EA05252A434D8806EA05252A43154D7A
:10113000A84202D0144DA8421DD14FF2FF752A409B
:10114000CD894FF6FF7606EA05252A434FF6FF358F
:101150002A408D8806EA05252A434EF6FF752B4066
:101160004DF6FF752B400D8A06EA05152B434D8A77
:1011700006EA05152B43838084838D68C56302844A
:1011800070BD000000000140000401400A4600213B
:10119000818B4FF6F773194011438183704700002C
:1011A00070B5002200230024058C4EF6FF763540F2
:1011B0000584038C8488828B48F6FF752A404FF69D
:1011C000FF452A400D884FF6FF7606EA05252A439B
:1011D0004DF6FF752B408D8906EA05352B434D886A
:1011E00006EA05352B430A4DA84202D0094DA84214
:1011F00008D14BF6FF752C400D8A4FF6FF7606EAB4
:1012000085152C43848082838D680564038470BDBA
:1012100000000140000401400A460021818B4FF28A
:10122000FF7319404FF6FF7303EA022319438183CA
:10123000704741627047028B4FF6F3731A40028386
:10124000028B0A4302837047028B4FF2FF331A402E
:101250000283028B4FF6FF7303EA01231A430283D2
:101260007047828B4FF6F3731A408283828B0A4356
:1012700082837047828B4FF2FF331A408283828BC6
:101280004FF6FF7303EA01231A438283704700007D
:1012900000220288184B98420ED0184B98420BD06F
:1012A000B0F1804F08D0164B984205D0154B9842AC
:1012B00002D0154B984204D14FF68F731A404B88D9
:1012C0001A43124B984207D0114B984204D04FF664
:1012D000FF431A400B891A4302804B68C3620B8894
:1012E0000385054B984202D0044B984201D18B7A7A
:1012F00003860123838270470000014000040140FF
:101300000004004000080040000C004000100040B5
:10131000001400404FF0FF31416000210180018145
:10132000418081727047000000B587B001210846F6
:10133000FFF774FA01211020FFF7A0FA0722092114
:101340002148FFF7CBF807220A211F48FFF7C6F80C
:1013500003208DF8190000208DF81A0002208DF866
:10136000180001208DF81B004002059005A91648C1
:10137000FFF76CF84FF48060059005A91248FFF75D
:1013800065F84FF4E13001900020ADF80800ADF8A9
:101390000A00ADF80C000C20ADF80E000020ADF8EE
:1013A000100001A9094800F051F8FFF7DCF901220B
:1013B00040F22551054800F024F80121034800F0CF
:1013C00007F807B000BD0000000002400010014017
:1013D00021B1828942F40052828104E082894DF673
:1013E000FF731A408281704702460020B1F5007FEA
:1013F00000D100BF13880B400BB1012000E000209A
:101400007047F0B50346002400260025002040F672
:101410006A17B94200D100BF1846C1F3421401F067
:101420001F06012707FA06F5012C01D10C3004E054
:10143000022C01D1103000E014301AB107682F439C
:10144000076002E00768AF430760F0BD2DE9FF4782
:1014500005460E460024A14600BFA046B08900B153
:1014600000BF2C8A24F44054F08804432C82AC89B9
:1014700041F20C608443B088318908437189084384
:101480000443AC81AC8A24F44074B0890443AC8238
:101490006846FFF713FA2048854202D01F4885426C
:1014A00002D1DDF80C9001E0DDF80890A88900F485
:1014B000004040B109EBC90000EB09103168490058
:1014C000B0FBF1F707E009EBC90000EB0910316848
:1014D0008900B0FBF1F76420B7FBF0F004012009AC
:1014E000642101FB1078A88900F4004040B132204B
:1014F00000EBC800B0FBF1F000F00700044308E087
:10150000322000EB08106421B0FBF1F000F00F0076
:1015100004432C81BDE8FF87001001400014014006
:10152000C1F308028280704700BFFEE70FB4054B8D
:1015300010B503A9044A029800F018F810BC5DF831
:1015400014FB0000DD1600083000002002E008C88F
:10155000121F08C1002AFAD170477047002001E02D
:1015600001C1121F002AFBD1704700002DE9FF4F77
:1015700089B09B460446002506E025280BD05A4634
:101580000B999047641C6D1C20780028F5D10DB094
:101590002846BDE8F08F0027B8460122474900E001
:1015A000074314F8013F203B02FA03F00842F7D149
:1015B00020782E2819D114F8010F47F004072A28A3
:1015C0000ED06FF02F022078A0F1300109290CD83D
:1015D00008EB880102EB410100EB0108641CF2E713
:1015E0000A98641C50F8048B0A9020780028CED00A
:1015F000642808D0692806D075281ED05A460B9951
:1016000090476D1C58E00A994FF00A0901C90A91E8
:10161000002802DA40422D2102E0390504D52B21B1
:101620008DF82010012103E0F90704D02021F7E70D
:101630008A4608AE0DE00021FAE70A994FF00A0940
:1016400001C90A91F7E74946FEF7BAFD303106F8BD
:10165000011D0028F7D1ADEB060000F12009780745
:1016600001D44FF00108C84502DDA8EB090000E0F5
:1016700000208046002706E008A85A46C05D0B9966
:1016800090476D1C7F1C5745F6DB04E030205A461E
:101690000B9990476D1CB8F10001A8F10108F5DC29
:1016A00005E016F8010B5A460B9990476D1CB9F1ED
:1016B0000001A9F10109F4DC641C65E709280100B7
:1016C000002107E0002200E0521C48F240339A4219
:1016D000FAD3491C8142F5D37047000070B5044627
:1016E0000D46E1B20548FFF71BFF00BF802103480C
:1016F000FFF77AFE0028F9D0204670BD00100140A7
:101700003220FFF7DDFFFFF70FFEFEF7CDFDFEF7FE
:101710000BFFFFF77EF9FFF755F9FEF797FF10A0D3
:10172000FFF704FF1BE03220FFF7CAFF00231A4631
:1017300019464FF4C870FEF7E7FF0A480468E0173F
:1017400004EB9070811008A0FFF7F0FE0A480468CF
:10175000E01704EB9070811008A0FFF7E7FEE2E7C6
:101760004F4B000018000020656E636F6465313DCB
:1017700025642020202000001C000020656E636F7F
:101780006465313D256420200A000000AC17000884
:1017900000000020340000004C150008E01700088D
:1017A00034000020040400005C1500080000000064
:1017B00001020304010203040607080900000000F7
:1017C0000000000000000000000000000000000019
:1017D0000000000000000000000000000000000009
:040000050800018965
:00000001FF
