:020000040800F2
:10000000180400209D010008090400085B03000893
:1000100005040008E501000841090008000000008F
:10002000000000000000000000000000E9050008DA
:10003000E901000800000000BD040008D90600081E
:10004000B7010008B7010008B7010008B7010008B0
:10005000B7010008B7010008B7010008B7010008A0
:10006000B7010008B7010008B7010008B701000890
:10007000B7010008B7010008B7010008B701000880
:10008000B7010008B7010008B7010008B701000870
:10009000B7010008B7010008B7010008B701000860
:1000A000B7010008B7010008B7010008B701000850
:1000B000B7010008B7010008B7010008B701000840
:1000C000B7010008B7010008B7010008B701000830
:1000D000B7010008B7010008B7010008B701000820
:1000E000B7010008B7010008B7010008B701000810
:1000F000B7010008B7010008B7010008B701000800
:10010000B7010008B7010008B7010008B7010008EF
:10011000B7010008B7010008B7010008B7010008DF
:10012000B7010008B7010008B7010008B7010008CF
:10013000B7010008B7010008B7010008B7010008BF
:10014000B7010008B7010008B7010008B7010008AF
:10015000B7010008B7010008B7010008B70100089F
:10016000B7010008B7010008B7010008B70100088F
:10017000B7010008B7010008B7010008B70100087F
:10018000B7010008B7010008DFF80CD000F018F83C
:1001900000480047D5090008180400200648804799
:1001A00006480047FEE7FEE7FEE7FEE7FEE7FEE75C
:1001B000FEE7FEE7FEE7FEE7DD060008890100082E
:1001C000064C074D06E0E06840F0010394E80700A4
:1001D00098471034AC42F6D3FFF7DAFF200A000844
:1001E000400A000800BFFEE7704700001CB501216F
:1001F0000C2000F065F90121032000F071F90222C2
:1002000007211C4800F086F802220621194800F058
:1002100081F802220D21184800F07CF802220C21FE
:10022000154800F077F802208DF8040000208DF8C2
:1002300006008DF8070003208DF80500802000904F
:1002400069460C4800F01EF84020009069460948B5
:1002500000F018F84FF4005000906946064800F08E
:1002600011F84FF4805000906946034800F00AF8F6
:100270001CBD000000080240000C024010B5FFF752
:10028000B5FF10BDF0B50A4600210023002400BFD1
:100290003DE0012505FA01F3156805EA03049C42D7
:1002A00034D105684F000326BE40B543056015797B
:1002B0004E00B5400668354305601579012D02D022
:1002C0001579022D16D185684F000326BE40B5432F
:1002D000856055794E00B540866835438560456830
:1002E00001268E40B5434560456896798E40B6B28A
:1002F00035434560C5684F000326BE40B543C56021
:10030000D5794E00B540C6683543C560491C1029F3
:10031000BFD3F0BDF0B5002300244D07ED0E02FA67
:1003200005F3CE1000F1200555F826504E07F70EC4
:100330000F26BE40B543CF1000F1200646F82750E7
:10034000CE1000F1200555F8265045EA0304CE10E2
:1003500000F1200545F82640F0BD00BFFEE7000093
:100360001CB501211A2000F0ABF801208DF8040023
:1003700000208DF806008DF8070003208DF8050099
:100380000120009069461C48FFF77CFF1020009078
:1003900069461A48FFF776FF202000906946174803
:1003A000FFF770FF4FF48050009069461248FFF746
:1003B00069FF4FF48050009069460F48FFF762FFD5
:1003C0004FF40070009069460D48FFF75BFF012075
:1003D00009491A31088010200849488320204883A1
:1003E000C00105491A310880042005491A310880E6
:1003F000C00108801CBD0000000402400010024043
:10040000000C024000BFFEE7704708B54FF4C06023
:1004100000F04AF826208DF8000001208DF8010038
:100420008DF802008DF80300684600F001F808BD61
:1004300070B5002100230F22C4781CB3174C246828
:1004400004F4E064C4F5E064C4F30721C1F10404DA
:10045000E3B20A4144789C40E1B2847814402143DD
:100460000C07210E0E4C05786155047804F01F0529
:100470000124AC4005786D11AD0005F1E025C5F80B
:10048000004109E0047804F01F050124AC40054D4B
:100490000678761145F8264070BD00000CED00E0AE
:1004A00000E400E080E100E002490143024A1160FB
:1004B000704700000000FA050CED00E070470000F6
:1004C00029B1064A12680243044B1A6004E0034A49
:1004D00012688243014B1A607047000030380240B6
:1004E00029B1064A12680243044B1A6004E0034A29
:1004F00012688243014B1A60704700004038024086
:10050000F0B5002100220024022500260223324FEC
:100510003F6807F00C0121B1042905D0082937D123
:1005200005E02E4F076036E02D4F076033E02A4F7D
:100530003F1F3F68C7F38056274F3F1F3F6807F0B4
:100540003F036EB1264FB7FBF3F7DFF88CC0ACF179
:10055000040CDCF800C0CCF3881C07FB0CF40CE0A6
:100560001E4FB7FBF3F7DFF870C0ACF1040CDCF8FA
:1005700000C0CCF3881C07FB0CF4174F3F1F3F68EB
:10058000C7F301477F1C7D00B4FBF5F7076002E06D
:10059000124F076000BF00BF0F4F3F6807F0F00128
:1005A0000909104F7A5C0768D74047600A4F3F68D7
:1005B00007F4E051890A0B4F7A5C4768D74087609F
:1005C000054F3F6807F46041490B064F7A5C476866
:1005D000D740C760F0BD0000083802400024F40096
:1005E00000127A0000000020704700000CB50020C7
:1005F000019000903448006840F48030324908602F
:1006000000BF3148006800F4003000900198401CA1
:100610000190009818B90198B0F5A04FF1D12A487F
:10062000006800F4003010B10120009001E00020CB
:1006300000900098012846D123484030006840F0DF
:1006400080502149403108602048006840F4404013
:100650001E4908601C48083000681B4908310860C2
:100660000846006840F4004008600846006840F40E
:10067000A05008601648091F0860081F006840F075
:100680008070091F086000BF0F48006800F000700C
:100690000028F9D040F205700E4908600A48083079
:1006A000006820F003000849083108600846006827
:1006B00040F00200086000BF03480830006800F006
:1006C0000C000828F8D10CBD003802400070004032
:1006D00019544007003C02407047000010B515480F
:1006E000006840F47000134908601348006840F047
:1006F00001001149086000200F49083108600E48C8
:1007000000680E4908400C4908600D48091D086042
:10071000081F006820F48020091F08600020064997
:100720000C310860FFF762FF4FF00060014980392B
:10073000086010BD88ED00E000380240FFFFF6FEC3
:100740001030002400B587B001210846FFF7B8FE3D
:1007500001214804FFF7C4FE072202212048FFF7C9
:10076000D9FD072203211E48FFF7D4FD03208DF891
:10077000190000208DF81A0002208DF818000120C1
:100780008DF81B000420059005A91548FFF77AFD98
:100790000820059005A91248FFF774FD4FF4E130D9
:1007A00001900020ADF80800ADF80A00ADF80C008B
:1007B0000C20ADF80E000020ADF8100001A909488A
:1007C00000F050F8FFF721FE012240F225510548C4
:1007D00000F023F80121034800F006F807B000BD3F
:1007E000000002400044004021B1828942F40052DE
:1007F000828104E082894DF6FF731A40828170473E
:1008000002460020B1F5007F00D100BF13880B40E5
:100810000BB1012000E000207047F0B50346002432
:1008200000260025002040F66A17B94200D100BF1B
:100830001846C1F3421401F01F06012707FA06F516
:10084000012C01D10C3004E0022C01D1103000E069
:1008500014301AB107682F43076002E00768AF43FE
:100860000760F0BD2DE9FF4705460E460024A1466E
:1008700000BFA046B08900B100BF2C8A24F44054C8
:10088000F08804432C82AC8941F20C608443B08828
:1008900031890843718908430443AC81AC8A24F44C
:1008A0004074B0890443AC826846FFF729FE2048B3
:1008B000854202D01F48854202D1DDF80C9001E04C
:1008C000DDF80890A88900F4004040B109EBC900A8
:1008D00000EB091031684900B0FBF1F707E009EBC4
:1008E000C90000EB091031688900B0FBF1F7642002
:1008F000B7FBF0F004012009642101FB1078A889FE
:1009000000F4004040B1322000EBC800B0FBF1F031
:1009100000F00700044308E0322000EB08106421D7
:10092000B0FBF1F000F00F0004432C81BDE8FF871D
:100930000010014000140140C1F30802828070479A
:1009400000BFFEE7014A024900F013B8B1090008F0
:100950001000002002E008C8121F08C1002AFAD1C6
:1009600070477047002001E001C1121F002AFBD12F
:1009700070472DE9F04116460F460446002503E076
:100980003946B047641C6D1C20780028F8D12846F1
:10099000BDE8F081002107E0002200E0521C48F28F
:1009A00040339A42FAD3491C8142F5D37047000084
:1009B00070B504460D46E1B20548FFF7BDFF00BF24
:1009C00080210348FFF71CFF0028F9D0204670BDA6
:1009D000004400403220FFF7DDFFFFF7B3FEFFF7D2
:1009E0004DFCFFF7BDFC0AA0FFF7ACFF0FE00120B4
:1009F0000849088010200849088320200883C00186
:100A000004490880042005490880C0010880EEE7F9
:100A10004F4B00001804024000100240180C024026
:100A2000400A0008000000201400000054090008DB
:100A3000540A00081400002004040000640900089F
:100A40000000000001020304010203040607080974
:040A500000000000A2
:040000050800018965
:00000001FF
