:020000040800F2
:10000000480400209D010008A90F00087B0D00088E
:10001000210E000847090008951E00080000000096
:100020000000000000000000000000005D13000858
:10003000750A0008000000005D100008891400081F
:10004000B7010008B7010008B7010008B7010008B0
:10005000B7010008B7010008B7010008B7010008A0
:10006000B7010008B7010008B7010008B701000890
:10007000B7010008B7010008B7010008B701000880
:10008000B7010008B7010008B7010008B701000870
:10009000B7010008B7010008B7010008B701000860
:1000A000B7010008B7010008B7010008B701000850
:1000B000B7010008B7010008B7010008B701000840
:1000C000B7010008B7010008B7010008B701000830
:1000D000B7010008B7010008B7010008B701000820
:1000E000B7010008B7010008B70100081916000899
:1000F000B7010008B7010008B7010008B701000800
:10010000B7010008B7010008B7010008B7010008EF
:10011000B7010008B7010008B7010008B7010008DF
:10012000B7010008B7010008B7010008B7010008CF
:10013000B7010008B7010008B7010008B7010008BF
:10014000B7010008B7010008B7010008B7010008AF
:10015000B7010008B7010008B7010008B70100089F
:10016000B7010008B7010008B7010008B70100088F
:10017000B7010008B7010008B7010008B70100087F
:10018000B7010008B7010008DFF80CD000F0D4FA7E
:1001900000480047A9270008480400200648804777
:1001A00006480047FEE7FEE7FEE7FEE7FEE7FEE75C
:1001B000FEE7FEE7FEE7FEE78D1400088901000870
:1001C0002DE9F04D81EA030404F0004B21F00045D5
:1001D00014464FF0000A23F0004150EA050220D0F7
:1001E00054EA01021DD0C5F30A570246C5F31303B2
:1001F000C1F31300C1F30A5640F4801543F4801391
:10020000A7EB0608101BD64608F2FD3873EB050075
:1002100002D308F1010801E092185B41B8F1000F28
:1002200003DA00200146BDE8F08D00204FF4801174
:10023000064684460EE0171B73EB050705D3121B19
:1002400063EB050306434CEA010C49084FEA300012
:1002500092185B4150EA0107EDD152EA030012D037
:1002600082EA040083EA0501084305D0101BAB4174
:1002700006D20122002306E000224FF0004302E0F4
:100280006FF0010253101AEB06004CEB085110EB13
:100290000A0041EB0B01BDE8F04D00F0ADB800F0F5
:1002A000004230F000400AD0C10D01F56071C0F38A
:1002B000160042EA0151C20840071143704700206E
:1002C0000146704701F0004330B421F0004150EA8C
:1002D000010206D00A0DA2F56072C1F31301002AD3
:1002E00002DC30BC00207047440F44EAC104C10066
:1002F000E01830BC00EBC25000F047B830B50B46F8
:10030000014600202022012409E021FA02F59D4245
:1003100005D303FA02F5491B04FA02F52844151E19
:10032000A2F10102F1DC30BD2DE9F05F05460020AD
:1003300092469B4688460646814640241BE0284656
:1003400041464746224600F018FA53465A46C01A1C
:10035000914110D311461846224600F0FFF92D1A9C
:1003600067EB01084F4622460120002100F0F6F914
:1003700017EB00094E41201EA4F10104DFDC4846C2
:1003800031462A464346BDE8F09F0029A8BF704782
:10039000401C490008BF20F00100704710B4B0FABB
:1003A00080FC00FA0CF050EA010404BF10BC704756
:1003B00049B1CCF1200421FA04F411FA0CF118BF70
:1003C000012121430843A3EB0C01CB1D4FEA00613F
:1003D0004FEA102042BF002010BC704700EBC35012
:1003E00010440029A4BF10BC7047401C490008BF3E
:1003F00020F0010010BC704710B5002B08DA401C3B
:1004000041F1000192185B411A4301D120F0010033
:1004100010BD2DE9F04D92469B4611B1B1FA81F223
:1004200002E0B0FA80F22032904600F097F90446DC
:100430000F4640EA0A0041EA0B0153465A46084378
:1004400013D0114653EA010019D0C8F140025046BA
:1004500000F093F905460E4650465946424600F0D4
:100460007DF9084305D0012004E020463946BDE867
:10047000F08D0020054346EAE0762C4337430A9886
:100480006305E40AA0EB08000022FD0A44EA475491
:100490000A3002D500200146E9E70105101969413B
:1004A000DDE9084500196941BDE8F04DA4E72DE9F3
:1004B000FE4F804681EA0300C00F0C46009021F0F9
:1004C000004123F00045B8EB0200A94105D24046A7
:1004D000214690461C460B46024623F0004010433E
:1004E00047D0270DC7F30A00C3F30A510290401A00
:1004F000019040286BDAC3F3130040F4801B00988E
:10050000924620B10023D2EB030A63EB0B0B019858
:100510005946C0F14002504600F020F906460D460B
:1005200050465946019A00F038F910EB0800614135
:10053000002487EA115284EAE7731A4340D0009AF4
:1005400062B3019A012A4FEA075215DC001B61EBE6
:1005500002014FF0004202EA0752CDE90042001CBE
:1005600041F5801132462B46FFF753FF03B0BDE83B
:10057000F08F40462146F9E7001B61EB0201001CA9
:1005800041F5801300185B412018A2F5001747EBD6
:10059000030140EAD570B6196D4111E06D084FEACC
:1005A000360645EAC0754FEA0752001B61EB0201AF
:1005B000001C41F5801149084FEA300000195141F3
:1005C00032462B4603B0BDE8F04FFFF715BF009849
:1005D000012240000023D0EB020263EBE07300989D
:1005E00021464FEAE074B8EB000061EB0401E9E753
:1005F00083F000435BE781F0004158E72DE9FE4FAF
:1006000081EA030404F0004421F0004100944FF01B
:10061000000B23F0004350EA01045ED052EA0304C9
:100620005BD0C3F30A54C1F30A552C44A4F2F3344B
:100630000194A0FB0254C1F3130141F48011C3F3F0
:10064000130343F4801301FB024400FB034E840AAE
:10065000970A44EA815447EA8357A4FB0768029546
:100660008D0A05FB07854FEA932C04FB0C542705E4
:10067000029D4FEA065847EA1637B5EB08056EEBC0
:10068000070C870E920E47EA811742EA8312A7FBF6
:100690000201B6EB0B0164EB00042B0D43EA0C33B3
:1006A0005E1844EB1C50DA465146E7FB0201C5F3E5
:1006B00013044FEA0B3343EA14534FEA0432019C0C
:1006C00043EA0603A4F10C040294009CCDE900B4B3
:1006D000FFF79FFE03B0BDE8F08F00200146F9E769
:1006E000C1F30A52C1F3130140F2FF3341F4801108
:1006F0009A4202DA00200146704740F233439A42A0
:10070000A2F2334202DC524200F037B800F026B8C1
:1007100030B5002904DB4FF00044404264EB010196
:10072000002B04DB4FF00044524264EB0303994278
:1007300008BF904230BD0000064C074D06E0E0685F
:1007400040F0010394E8070098471034AC42F6D318
:10075000FFF71EFD84280008A4280008202A04DBD7
:10076000203A00FA02F1002070479140C2F12003C4
:1007700020FA03F3194390407047202A04DB203A03
:1007800021FA02F00021704721FA02F3D040C2F1B1
:1007900020029140084319467047202A06DBCB17F8
:1007A000203A41FA02F043EAE07306E041FA02F32C
:1007B000D040C2F12002914008431946704721B150
:1007C000826842F00102826003E0826822F0010246
:1007D000826070470021084A1168084A1140D0E938
:1007E00000231A4383681A43C3681A431143044A17
:1007F000C2F804137047000004230140E030FCFFFE
:100800000020014021B1826842F48072826003E0DE
:10081000826822F480728260704721B1826842F45B
:100820000072826003E0826822F400728260704786
:1008300030B50246002000235068104C20400D794E
:100840000C6844EA05242043506090680C4C20401A
:10085000D1E903542C438D682C434D7944EA450477
:1008600020439060D06A20F470000C7D641EE4B2D6
:10087000234340EA0350D06230BD0000FFFEFFFC7E
:10088000FDF7FFC0F0B504460D4600200021092DFC
:1008900011DDE068A5F10A0606EB4607072606FA11
:1008A00007F18843A5F10A0606EB460603FA06F1AE
:1008B0000843E0600CE0206905EB4507072606FACF
:1008C00007F1884305EB450603FA06F1084320616A
:1008D000072A0FDA606B561E06EB86071F2606FAFC
:1008E00007F18843561E06EB860605FA06F1084313
:1008F000606322E00D2A0FDA206BD61F06EB860715
:100900001F2606FA07F18843D61F06EB860605FA6E
:1009100006F10843206310E0E06AA2F10D0606EB41
:1009200086071F2606FA07F18843A2F10D0606EB9B
:10093000860605FA06F10843E062F0BD816841F0E1
:1009400080418160704700BFFEE700001CB50121B7
:10095000102000F085FB01220E210B4800F0EAF97F
:1009600002208DF8040000208DF806008DF80700A5
:1009700003208DF805004FF480400090694602483E
:1009800000F090F91CBD00000010024010B5FFF708
:10099000DDFF00F001F810BD00B589B00121084667
:1009A00000F08EFB5A2007903B20ADF81800002085
:1009B000ADF82000ADF81A008DF8220006A9104805
:1009C00001F01CF96020ADF804000020ADF8100023
:1009D0000120ADF806000020039001A9084801F0AD
:1009E00095F80821064801F0CDF80121044800F0EF
:1009F00029FE0121024800F031FE09B000BD0000CF
:100A00000000014021B1026842F00102026003E0EF
:100A1000026822F0010202607047000010B5002257
:100A20000268134B1A40CC680B6823434C6923437C
:100A30008C692343CC6923430C6A23434C6A2343C8
:100A40008C6A23434C6B23438C6B23431A43026011
:100A5000426922F00702D1E90B3423431A43426171
:100A60000B6943604B6883608B68C36010BD0000F6
:100A70003F801CF0704700001CB501210C2000F0E5
:100A8000EFFA022207211C4800F054F90222062145
:100A9000194800F04FF902220D21184800F04AF9D8
:100AA00002220C21154800F045F902208DF80400BF
:100AB00000208DF8060001208DF8070003208DF836
:100AC00005008020009069460B4800F0EBF84020BC
:100AD00000906946084800F0E5F84FF40050009097
:100AE0006946064800F0DEF84FF4805000906946F1
:100AF000024800F0D7F81CBD00080240000C02407C
:100B000010B5FFF7B9FF00F001F810BD00B587B0D0
:100B10000121062000F0B4FA274800F0AFFD274875
:100B200000F0ACFD01A801F0ABF84FF6FE700290AA
:100B30000020ADF80400ADF80600ADF80C0001A9E6
:100B40001D4801F05BF801A91C4801F057F800238B
:100B50001A460321184800F059FE00231A460321C3
:100B6000164800F053FE04A800F0BCFE0620ADF8C5
:100B7000180004A9104800F07EFE04A90F4800F0F8
:100B80007AFE01210C4800F057FD01210B4800F0CE
:100B900053FD0021084801F002F80021074800F049
:100BA000FEFF0121044800F04DFD0121034800F043
:100BB00049FD07B000BD00000004004000080040EF
:100BC00010B52E4800F043FE2D4908600846006825
:100BD0002C490968401A2C490860294800682949AD
:100BE000086029480068B0F5004F06DB2648006819
:100BF000A0F58030244908600AE02348006810F519
:100C0000004F05DC2048006800F580301E49086070
:100C10001E4800681C49096808441C4908601C48B3
:100C200000F015FE1B490860084600681A4909686B
:100C3000401A1A49086017480068174908601748A1
:100C40000068B0F5004F06DB14480068A0F580305E
:100C5000124908600AE01148006810F5004F05DCF1
:100C60000E48006800F580300C4908600C480068A8
:100C70000A49096808440A49086010BD0004004098
:100C80002C000020340000201C0000202400002044
:100C90000008004030000020380000202000002024
:100CA00028000020F0B50A4600210023002400BFE0
:100CB0003DE0012505FA01F3156805EA03049C42AD
:100CC00034D105684F000326BE40B5430560157951
:100CD0004E00B5400668354305601579012D02D0F8
:100CE0001579022D16D185684F000326BE40B54305
:100CF000856055794E00B540866835438560456806
:100D000001268E40B5434560456896798E40B6B25F
:100D100035434560C5684F000326BE40B543C560F6
:100D2000D5794E00B540C6683543C560491C1029C9
:100D3000BFD3F0BDF0B5002300244D07ED0E02FA3D
:100D400005F3CE1000F1200555F826504E07F70E9A
:100D50000F26BE40B543CF1000F1200646F82750BD
:100D6000CE1000F1200555F8265045EA0304CE10B8
:100D700000F1200545F82640F0BD00BFFEE7000069
:100D80001CB501211A2000F06BF901208DF8040038
:100D900000208DF806008DF8070003208DF805006F
:100DA0000120009069461B48FFF77CFF102000904F
:100DB00069461948FFF776FF2020009069461648DB
:100DC000FFF770FF4FF48050009069461148FFF71D
:100DD00069FF0420009069461048FFF763FF4FF455
:100DE0000070009069460D48FFF75CFF012009493B
:100DF0001831088010200849088320200883C0018A
:100E00000449183108800420044918310880C001C1
:100E100008801CBD0004024000100240000C02408B
:100E200000BFFEE71CB50121084600F029F90222A7
:100E300001211B48FFF77EFF022200211848FFF71F
:100E400079FF022203211648FFF774FF02221146A0
:100E50001348FFF76FFF02208DF8040000208DF883
:100E600006008DF8070003208DF805000220009091
:100E700069460B48FFF716FF0120009069460848B5
:100E8000FFF710FF0820009069460548FFF70AFFAA
:100E90000420009069460248FFF704FF1CBD0000D3
:100EA0000000024010B5FFF7BDFF00F001F810BDD3
:100EB00000B589B00121082000F0E2F840F2E730E7
:100EC00007900020ADF81800ADF82000ADF81A002A
:100ED00006A9214800F092FE6020ADF8040002202F
:100EE000ADF810000120ADF806000020039001A924
:100EF000194800F009FD0821174800F043FD0120C2
:100F0000ADF806000020039001A9134800F044FD4D
:100F10000821114800F092FD0120ADF806000020E4
:100F2000039001A90C4800F097FD08210A4800F041
:100F3000E3FD0120ADF806000020039001A906485A
:100F400000F0E4FD0821044800F01CFE01210248E5
:100F500000F078FB09B000BD000C004010B5C828B7
:100F600000DBC820C82900DBC821C82A00DBC82252
:100F7000C82B00DBC823002800DC0020002900DC8F
:100F80000021002A00DC0022002B00DC0023054C9D
:100F90002060241F2160034C08342260241F23603A
:100FA00010BD0000380C0040704708B54FF4C06019
:100FB00000F04AF825208DF8000001208DF801008E
:100FC0008DF802008DF80300684600F001F808BDB6
:100FD00070B5002100230F22C4781CB3174C24687D
:100FE00004F4E064C4F5E064C4F30721C1F104042F
:100FF000E3B20A4144789C40E1B284781440214332
:101000000C07210E0E4C05786155047804F01F057D
:101010000124AC4005786D11AD0005F1E025C5F85F
:10102000004109E0047804F01F050124AC40054D9F
:101030000678761145F8264070BD00000CED00E002
:1010400000E400E080E100E002490143024A11604F
:10105000704700000000FA050CED00E0704700004A
:1010600029B1064A12680243044B1A6004E0034A9D
:1010700012688243014B1A6070470000303802400A
:1010800029B1064A12680243044B1A6004E0034A7D
:1010900012688243014B1A607047000040380240DA
:1010A00029B1064A12680243044B1A6004E0034A5D
:1010B00012688243014B1A607047000020380240DA
:1010C00029B1064A12680243044B1A6004E0034A3D
:1010D00012688243014B1A60704700004438024096
:1010E00029B1064A12680243044B1A6004E0034A1D
:1010F00012688243014B1A60704700002438024096
:10110000F0B5002100220024022500260223324FE0
:101110003F6807F00C0121B1042905D0082937D117
:1011200005E02E4F076036E02D4F076033E02A4F71
:101130003F1F3F68C7F38056274F3F1F3F6807F0A8
:101140003F036EB1264FB7FBF3F7DFF88CC0ACF16D
:10115000040CDCF800C0CCF3881C07FB0CF40CE09A
:101160001E4FB7FBF3F7DFF870C0ACF1040CDCF8EE
:1011700000C0CCF3881C07FB0CF4174F3F1F3F68DF
:10118000C7F301477F1C7D00B4FBF5F7076002E061
:10119000124F076000BF00BF0F4F3F6807F0F0011C
:1011A0000909104F7A5C0768D74047600A4F3F68CB
:1011B00007F4E051890A0B4F7A5C4768D740876093
:1011C000054F3F6807F46041490B064F7A5C47685A
:1011D000D740C760F0BD0000083802400024F4008A
:1011E00040787D010000002008B52B208DF800001C
:1011F00000208DF8010001208DF802008DF8030019
:101200006846FFF7E5FE08BD0EB501214020FFF757
:1012100037FF40F2F31001905320ADF8000000209A
:10122000ADF80800ADF802006946094800F0E6FC98
:10123000FFF7DAFF01221146054800F05CFB0021B0
:10124000034800F0ACFC0121014800F0FBF90EBDA1
:10125000001800401CB501210420FFF701FF1020F9
:10126000009003208DF8040000208DF807006946E7
:101270000148FFF717FD1CBD0008024000B599B0FA
:1012800001210802FFF71CFF01218805FFF7E8FE96
:101290002C480B902C480C9000200D9001200E90B3
:1012A00000200F9010904FF4006011908000129079
:1012B00040111390400214900020159001201690C8
:1012C0000020179018900A900AA92048FFF7A6FB63
:1012D00001211E48FFF796FB00200090019002902C
:1012E00003906846FFF776FA002004908DF814000A
:1012F00001208DF8150000200690089001208DF83F
:10130000240004A90F484C38FFF792FA0023012269
:101310000E210C484C38FFF7B5FA012109484C382A
:10132000FFF77BFA012107484C38FFF76BFA0121E0
:1013300004484C38FFF743FA02484C38FFF7FEFAEE
:1013400019B000BD4C2001403C0000201064024058
:1013500010B5FFF77FFFFFF791FF10BD70470EB587
:1013600001210846FFF78CFE4FF0FF30019053201B
:10137000ADF800000020ADF80800ADF802006946A5
:101380004FF0804000F03AFC00214FF0804000F028
:1013900006FC0121880700F055F90EBD0CB50020B0
:1013A000019000903448006840F480303249086071
:1013B00000BF3148006800F4003000900198401CE4
:1013C0000190009818B90198B0F5A04FF1D12A48C2
:1013D000006800F4003010B10120009001E000200E
:1013E00000900098012846D123484030006840F022
:1013F00080502149403108602048006840F4404056
:101400001E4908601C48083000681B490831086004
:101410000846006840F4004008600846006840F450
:10142000A05008601648091F0860081F006840F0B7
:101430008070091F086000BF0F48006800F000704E
:101440000028F9D040F205700E4908600A480830BB
:10145000006820F003000849083108600846006869
:1014600040F00200086000BF03480830006800F048
:101470000C000828F8D10CBD003802400070004074
:1014800019544007003C02407047000010B5154851
:10149000006840F47000134908601348006840F089
:1014A00001001149086000200F49083108600E480A
:1014B00000680E4908400C4908600D48091D086085
:1014C000081F006820F48020091F086000200649DA
:1014D0000C310860FFF762FF4FF00060014980396E
:1014E000086010BD88ED00E000380240FFFFF6FE06
:1014F00010300024F0B50C46154600210022068C61
:101500004FF6FE773E400684018B028C4FF60C7638
:1015100031407E1C06EA03162E4331434FF6F57622
:10152000324044F00106324301830284F0BDF0B53D
:101530000C461546002100220026078C4FF6EF7C52
:1015400007EA0C070784018B028C4FF6FF7707EA46
:10155000041640F6FF4739404FF6FF7707EA033796
:1015600039434FF6FF7707EA052739434FF65F7790
:101570003A4046F010073A4301830284F0BDF0B5CB
:101580000C461546002100220026078C4FF6FF6C02
:1015900007EA0C070784818B028C4FF6FF7707EA76
:1015A00004264FF60C7739404FF6FF7707EA03170A
:1015B0002F4339434FF2FF573A4046F480773A437E
:1015C00081830284F0BDF0B50C461546002100224F
:1015D0000026078C4EF6FF7C07EA0C070784818BF8
:1015E000028C4FF6FF7707EA043640F6FF47394092
:1015F0004FF6FF7707EA052739434FF6FF7707EAEB
:101600000337394345F6FF773A4046F480573A436B
:1016100081830284F0BD000010B50121054800F06F
:1016200019F928B10121034800F009F8FFF7C8FAB9
:1016300010BD000000180040CA4302827047CA4330
:101640000282704721B1028842F00102028004E068
:1016500002884FF6FE731A400280704731B1B0F82D
:10166000442042F40042A0F8442005E0B0F84420B1
:10167000C2F30E02A0F844207047000010B50446E3
:101680005548844208D101210846FFF729FD002171
:101690000120FFF725FD9DE0B4F1804F08D1012125
:1016A0000846FFF7FDFC00210120FFF7F9FC91E05F
:1016B0004A48844208D101210220FFF7F1FC0021B1
:1016C0000220FFF7EDFC85E04548844208D1012166
:1016D0000420FFF7E5FC00210420FFF7E1FC79E09E
:1016E0004048844208D101210820FFF7D9FC00219D
:1016F0000820FFF7D5FC6DE03B48844208D101216A
:101700001020FFF7CDFC00211020FFF7C9FC61E09D
:101710003648844208D101212020FFF7C1FC002176
:101720002020FFF7BDFC55E03148844208D101215B
:101730000220FFF7D5FC00210220FFF7D1FC49E091
:101740002C48844209D101210804FFF7C9FC00217B
:101750004FF48030FFF7C4FC3CE02748844209D1B5
:1017600001214804FFF7BCFC00214FF40030FFF7D3
:10177000B7FC2FE02148844209D101218804FFF7FA
:10178000AFFC00214FF48020FFF7AAFC22E01C48A8
:10179000844208D101214020FFF782FC0021402033
:1017A000FFF77EFC16E01748844208D10121802013
:1017B000FFF776FC00218020FFF772FC0AE0124858
:1017C000844207D101218015FFF76AFC0021A01592
:1017D000FFF766FC10BD000000000140000400405F
:1017E00000080040000C00400010004000140040C1
:1017F0000004014000400140004401400048014015
:1018000000180040001C004000200040F0B50C46CD
:1018100015461E460021002200230189028B038CFD
:101820004FF6F877394021434FF6FC473A4040F2F3
:1018300001173A434FF6DD773B404FF6FF7707EA53
:1018400006172F433B43018102830384F0BD014609
:10185000486A704730B50246002000230024158AEC
:1018600005EA0103958905EA010413B10CB10120D1
:1018700000E0002030BD70B505460C46208850B908
:101880002389A28861882846FFF734FEE18828462C
:1018900000F087F925E0208804280AD12389A2884E
:1018A00061882846FFF743FEE188284600F082F968
:1018B00017E0208808280AD12389A2886188284651
:1018C000FFF75DFEE188284600F081F909E02389F1
:1018D000A28861882846FFF776FEE188284600F056
:1018E0007FF970BD002101804180012181800021AC
:1018F000C180018170471AB183890B43838102E063
:1019000083898B438381704770B5002400220023B4
:10191000058C4FF6FE7635400584028C8388048B57
:101920004FF68F752C40B51E2C400D882C43751E2C
:101930002A408D892A434D882A43104DA84202D05F
:101940000F4DA84213D14FF6F7752A40CD892A438F
:101950004FF6FB752A408D882A434FF6FF652B40D2
:101960004FF6FF552B400D8A2B434D8A2B43838026
:1019700004838D684563028470BD0000000001404F
:10198000000401400A460021018B4FF6F77319400D
:10199000114301837047000070B50024002200232A
:1019A000058C4FF6EF7635400584028C8388048BD6
:1019B00048F6FF752C404FF6FF452C400D884FF63A
:1019C000FF7606EA05252C434FF6DF752A408D8900
:1019D00006EA05152A434D8806EA05152A43154DE2
:1019E000A84202D0144DA8421DD14FF67F752A405F
:1019F000CD894FF6FF7606EA05152A434FF6BF75E7
:101A00002A408D8806EA05152A434FF6FF352B40FC
:101A10004FF2FF752B400D8A06EA85052B434D8A50
:101A200006EA85052B43838004838D6885630284E1
:101A300070BD000000000140000401400A46002182
:101A4000018B4FF2FF7319404FF6FF7303EA022335
:101A5000194301837047000070B500240022002361
:101A6000058C4FF6FF6635400584028C8388848B95
:101A70004FF68F752C404FF6FC752C400D882C438B
:101A80004FF6FF552A408D894FF6FF7606EA052569
:101A90002A434D8806EA05252A43154DA84202D05F
:101AA000144DA8421DD14FF2FF752A40CD894FF643
:101AB000FF7606EA05252A434FF6FF352A408D8832
:101AC00006EA05252A434EF6FF752B404DF6FF75B5
:101AD0002B400D8A06EA05152B434D8A06EA0515AB
:101AE0002B43838084838D68C563028470BD0000AE
:101AF00000000140000401400A460021818B4FF69E
:101B0000F7731940114381837047000070B50022BC
:101B100000230024058C4EF6FF7635400584038CA7
:101B20008488828B48F6FF752A404FF6FF452A408D
:101B30000D884FF6FF7606EA05252A434DF6FF7518
:101B40002B408D8906EA05352B434D8806EA05357D
:101B50002B430A4DA84202D0094DA84208D14BF6AA
:101B6000FF752C400D8A4FF6FF7606EA85152C434B
:101B7000848082838D680564038470BD0000014009
:101B8000000401400A460021818B4FF2FF73194087
:101B90004FF6FF7303EA02231943818370474162C2
:101BA0007047028B4FF6F3731A400283028B0A438D
:101BB00002837047028B4FF2FF331A400283028B7D
:101BC0004FF6FF7303EA01231A4302837047828BA7
:101BD0004FF6F3731A408283828B0A4382837047E5
:101BE000828B4FF2FF331A408283828B4FF6FF7352
:101BF00003EA01231A43828370470000002202880F
:101C0000184B98420ED0184B98420BD0B0F1804F31
:101C100008D0164B984205D0154B984202D0154B70
:101C2000984204D14FF68F731A404B881A43124BD7
:101C3000984207D0114B984204D04FF6FF431A4008
:101C40000B891A4302804B68C3620B880385054BDE
:101C5000984202D0044B984201D18B7A038601232B
:101C600083827047000001400004014000040040EE
:101C700000080040000C004000100040001400402C
:101C80004FF0FF314160002101800181418081726C
:101C90007047000000B587B001210846FFF7E0F962
:101CA00001211020FFF70CFA072209212148FFF734
:101CB00041F807220A211F48FFF73CF803208DF85E
:101CC000190000208DF81A0002208DF8180001205C
:101CD0008DF81B004002059005A91648FEF7E2FFAB
:101CE0004FF48060059005A91248FEF7DBFF4FF422
:101CF000E13001900020ADF80800ADF80A00ADF821
:101D00000C000C20ADF80E000020ADF8100001A969
:101D1000094800F051F8FFF748F9012240F2255137
:101D2000054800F024F80121034800F007F807B047
:101D300000BD0000000002400010014021B1828976
:101D400042F40052828104E082894DF6FF731A400A
:101D50008281704702460020B1F5007F00D100BFAC
:101D600013880B400BB1012000E000207047F0B554
:101D70000346002400260025002040F66A17B942D9
:101D800000D100BF1846C1F3421401F01F0601271D
:101D900007FA06F5012C01D10C3004E0022C01D128
:101DA000103000E014301AB107682F43076002E0DA
:101DB0000768AF430760F0BD2DE9FF4705460E46B3
:101DC0000024A14600BFA046B08900B100BF2C8A04
:101DD00024F44054F08804432C82AC8941F20C6016
:101DE0008443B08831890843718908430443AC8136
:101DF000AC8A24F44074B0890443AC826846FFF78F
:101E00007FF92048854202D01F48854202D1DDF883
:101E10000C9001E0DDF80890A88900F4004040B182
:101E200009EBC90000EB091031684900B0FBF1F77C
:101E300007E009EBC90000EB091031688900B0FB2D
:101E4000F1F76420B7FBF0F004012009642101FBE5
:101E50001078A88900F4004040B1322000EBC8009F
:101E6000B0FBF1F000F00700044308E0322000EB83
:101E700008106421B0FBF1F000F00F0004432C8146
:101E8000BDE8FF870010014000140140C1F30802C3
:101E90008280704700BFFEE70FB4054B10B503A961
:101EA000044A029800F0CAF810BC5DF814FB000068
:101EB000852700084000002002E008C8121F08C162
:101EC000002AFAD170477047002001E001C1121FBB
:101ED000002AFBD1704700002DE9FF5FDDE90220F9
:101EE000010DDDF838B0024318D044F61050A1F2CD
:101EF000FF3141430D140F98012820D0A5EB0B00B2
:101F0000401C5FEA000A4FF00004474EDFF81C91C6
:101F1000A046504616D5CAF1000728E00F980124C4
:101F200043A2012808D0002100980F9BC0E900219E
:101F3000C0E90243BDE8FF9F6FEA0B01F4E7CBF174
:101F40000000DEE7074612E0F80707D022463346D6
:101F500040464946FEF752FB8046894622463346B4
:101F600010461946FEF74AFB04460E467F10002F26
:101F7000EAD1DDE90201BAF1000F42464B4602DA2E
:101F8000FEF73CFB01E0FEF71BF904460E4600227B
:101F9000284BFEF7BDFB03D84FF0FF30014607E0AA
:101FA0000022254B20463146FEF781FAFEF798FBCA
:101FB000102409E0002C0ADB0A220023FEF7B4F902
:101FC000019B30321A55641E50EA0102F2D1641CA2
:101FD000019AC4F1110314440F9A012A03D001227B
:101FE00008430DD10AE0084304D000204FF0110B44
:101FF0000F9080E7A3EB0B056D1E0DE05B4504DD44
:102000004FF0000205F1010504E003DA4FF0000291
:10201000A5F10105002AECD000980F99C0E9023122
:10202000C0E9004586E70000000024400000F03FC2
:10203000300000000000F0430000E03F2DE9FF4FBA
:1020400095B09B468946064600250FE2252877D1A4
:1020500000242746F84A0121059400E0044316F8BD
:10206000013F203B01FA03F01042F7D130782A28D3
:1020700011D06FF02F033078A0F13002092A16D862
:10208000059A44F0020402EB820203EB4202104480
:10209000761C0590EFE759F8042B0592002A03DA25
:1020A000504244F40054059044F00204761C307809
:1020B0002E2816D116F8010F44F004042A280DD05A
:1020C0006FF02F023078A0F13003092B09D807EB0D
:1020D000870302EB4303C718761CF3E759F8047B28
:1020E000761C30786C280FD006DC4C2817D0682876
:1020F0000DD06A2814D104E0742810D07A280FD1AA
:102100000DE044F400140AE044F4801401E044F4C7
:1021100040147278824202D104F58014761C761C39
:10212000307866280BD013DC582877D009DC0028DB
:1021300075D04528F6D04628F4D047281AD19DE11D
:1021400018E0632835D0642879D0652812D195E14C
:10215000702873D008DC6728F1D069286FD06E280A
:102160000DD06F2806D1B5E073282CD0752875D016
:10217000782874D05A46179990476D1C75E1C4F3BE
:102180000250022809D003280DD0D9F800100428E5
:102190000DD00D6009F1040967E1D9F80010EA17C4
:1021A000C1E90052F6E7D9F800100D80F2E70D7092
:1021B000F0E719F8041B8DF8001000208DF80100DD
:1021C000EA46012003E059F804AB4FF0FF30610705
:1021D0004FF0000102D40DE008F101018846B94238
:1021E0000FDA8045F8DB1AF808100029F4D108E06E
:1021F00008F1010188468142FADB1AF8081000292B
:10220000F6D105985B46A0EB080721463846179A99
:1022100000F094FA284400EB080507E04DE029E1BE
:102220000DE01AF8010B5A4617999047B8F10108CA
:10223000F7D25B4621463846179A13E142E00A225C
:102240000092C4F302524FF0000A022A08D059F853
:1022500004CB032A4FEAEC710AD00DE029E02AE012
:1022600009F1070121F00702F2E802C1914609E0F5
:102270000FFA8CFC4FEAEC71042A03D14FFA8CFC64
:102280004FEAEC71002907DA0A460021DCF1000C64
:1022900061EB02012D2202E0220504D52B228DF8EC
:1022A0000420012203E0E20701D02022F7E7904654
:1022B00059E00A2102E010220DE010214FF0000A3F
:1022C00000910BE010224FF0000A44F004040827AC
:1022D000009203E008224FF0000A0092C4F3025279
:1022E000022A05D059F804CB0021032A08D009E0BE
:1022F00009F1070121F00702F2E802C1914605E069
:102300001FFA8CFC042A01D10CF0FF0C4FF00008DE
:10231000220728D5702806D0009B83F0100353EACB
:102320000A0305D00EE040228DF80420012208E0C7
:102330005CEA010206D030228DF804208DF80500F9
:1023400002229046009B83F0080353EA0A030AD155
:102350005CEA010201D1620705D530228DF8042024
:102360004FF001087F1E582804D034A003900EA817
:1023700002900DE036A0F9E753466046009AFDF75B
:10238000D3FF84460398825C0298401E029002703C
:102390005CEA0100F0D1029806A9081A00F1200AAF
:1023A000600702D524F4803400E00127574502DDA0
:1023B000A7EB0A0000E0002000EB0A01009005985E
:1023C0004144401A0590E00306D45B462146179A23
:1023D000059800F0B3F90544002706E001A85A4625
:1023E000C05D179990476D1C7F1C4745F6DBE003E5
:1023F0000CD55B462146179A059800F09FF90544D5
:1024000004E030205A46179990476D1C0099481EE9
:1024100000900029F5DC08E0029802995A460078FD
:10242000491C0291179990476D1CBAF10001AAF15D
:10243000010AF1DC65E10000092801003031323386
:1024400034353637383961626364656600000000F0
:1024500030313233343536373839414243444546DA
:102460000000000000F058F90544761C3078002880
:102470007FF4ECAD19B02846BDE8F08F620700D4B8
:10248000062709F1070222F0070CFCE80223E146C7
:1024900003F000485FEA080C02D00FF2702C0DE048
:1024A0005FEA045C02D50FF2682C07E05FEAC47CA7
:1024B00002D00FF2602C01E0AFF2700C4FF0FF3849
:1024C00023F00043CDF850C065280CD006DC452829
:1024D00009D046281DD047283DD13DE0662818D0B8
:1024E00067287ED138E00021112F01DB112000E0A8
:1024F000781CCDE9000106A90EA8FFF7EDFCDDE987
:102500000F010E9A03910021009207F1010A049134
:102510004DE04FF000400097CDE9011006A90EA84C
:10252000FFF7DAFCDDE90F0203920E9B11990022FE
:10253000DDF80CA00093049211B9791C00EB010A9C
:10254000B7EB0A0004D4C0F1FF3007F1010A049090
:10255000AAEB0700019044E0012F00DA01270021D7
:10256000112F01DD112000E03846CDE9000106A958
:102570000EA8FFF7B1FCDDE90F010E9A03910021CF
:1025800004910092BA4621070CD40399514500DA10
:102590008A46BAF1010F05DD009AAAF10101515CEA
:1025A000302908D0B84202DA10F1040F06DA01210E
:1025B000CDE9011015E0AAF10101E9E7002805DCE9
:1025C000049901440491AAEB000102E0411C514529
:1025D00000DD8A460499401A401C01904FF00040EB
:1025E0000290200704D40198504501DBCDF8048007
:1025F00000208DF84F0002980DF14F07B0F1004F09
:1026000025D02B200E9002984FF0020800280CDAFB
:10261000404202902D200E9007E00A210298FDF71B
:102620006DFE3031029007F8011DB8F10001A8F1EC
:102630000108F2DC02980028EFD1791E0E9808708C
:10264000307800F0200040F0450007F8020D12A895
:10265000C01B00F107081498007800B1012000EBBE
:102660000A01019801EBE07105984144401A401EAF
:102670000590E00306D45B462146179A059800F0C2
:102680005DF805441498007818B15A461799904798
:102690006D1CE00324D55B462146179A059800F08F
:1026A0004DF805441CE00498002807DBDDE9030130
:1026B000884203DD0098405C179901E017993020AB
:1026C0005A469047049805F10105401C0490019872
:1026D000401E019004D12E205A46179990476D1C38
:1026E000BAF10001AAF1010ADDDC05E017F8010BDF
:1026F0005A46179990476D1CB8F10001A8F10108DE
:10270000F4DC5B462146179A0598ABE62D000000E5
:102710002B000000200000002DE9F04104460025B8
:102720001E461746880404D405E039462020B047E9
:102730006D1C641EF9D52846BDE8F0812DE9F041F5
:10274000044600251E469046C80301D5302700E008
:102750002027880404D505E041463846B0476D1C63
:10276000641EF9D52846BDE8F081002107E000226B
:1027700000E0521C48F240339A42FAD3491C81428D
:10278000F5D3704770B504460D46E1B20548FFF732
:102790007DFB00BF80210348FFF7DCFA0028F9D059
:1027A000204670BD001001402DED048B3220FFF754
:1027B000DCFFFFF76FFAFEF7A3F9FEF7E1FAFEF789
:1027C000CEFDFEF721FDFEF76DFBFEF7DFF8FEF70D
:1027D000BFFD1FA0FFF760FB00231A4619461846ED
:1027E000FEF7BCFB33E03220FFF7BFFF194800883B
:1027F00000EE100AB8EE400A9FED171AC0EE010A6B
:102800009FED160A20EE800A10EE104A2046FDF7D2
:1028100046FD41EC190B9FED120B53EC102BFDF70D
:10282000CFFC41EC180BFDF74DFD0F49086009483E
:1028300001880EA0FFF730FB0B480068FDF72FFD65
:1028400041EC180B53EC182B0BA0FFF725FBCAE744
:102850004F4B00003C0000200000804533335340C4
:1028600000000000000030401800002020313D2012
:10287000256420202000000020323D2566205620BF
:102880000D0A0000A42800080000002044000000F9
:10289000B81E0008E82800084400002004040000D6
:1028A000C81E000800000000010203040102030426
:1028B00006070809000000000000000000000000FA
:1028C0000000000000000000000000000000000008
:1028D00000000000000000000000000000000000F8
:0828E0000000000000000000F0
:040000050800018965
:00000001FF
