:020000040800F2
:10000000D08800209D010008091600081708000884
:1000100085130008EF0300082126000800000000F7
:10002000000000000000000000000000091B0008A4
:1000300041050008000000006D180008FD1B0008C5
:10004000B7010008B7010008B7010008B7010008B0
:10005000B7010008B7010008B7010008B7010008A0
:10006000B7010008B7010008B7010008B701000890
:10007000B7010008B7010008B7010008B701000880
:10008000B7010008B7010008B7010008B701000870
:10009000B7010008B7010008B7010008B701000860
:1000A000B7010008B7010008B7010008B701000850
:1000B000B7010008B7010008B7010008B701000840
:1000C000B7010008B7010008B7010008B701000830
:1000D000B7010008B7010008B7010008B701000820
:1000E000B7010008B7010008B7010008811D00082A
:1000F000B7010008B7010008B7010008B701000800
:10010000B7010008B7010008B7010008B7010008EF
:10011000B7010008B7010008B7010008B7010008DF
:10012000B7010008B7010008B7010008B7010008CF
:10013000B7010008B7010008B7010008B7010008BF
:10014000B7010008B7010008B7010008B7010008AF
:10015000B7010008B7010008B7010008B70100089F
:10016000B7010008B7010008B7010008B70100088F
:10017000B7010008B7010008B7010008B70100087F
:10018000B7010008B7010008DFF80CD000F084F8D0
:1001900000480047B1290008D08800200648804761
:1001A00006480047FEE7FEE7FEE7FEE7FEE7FEE75C
:1001B000FEE7FEE7FEE7FEE7011C000889010008F4
:1001C000DFED300AB5EEC00A60EE200ABDEEE01A9F
:1001D00011EE100AF1EE10FA38BF401E00EE100AC0
:1001E0009FED291AB8EEC00A70EEC00A20EE810A0F
:1001F000BCEEC00A10EE100A00EE100A0028B8EE9D
:10020000C00A10EE810AB8BF002004DBB0F5807F81
:10021000C8BF4FF480701D4960EE000AB6EE001AA8
:10022000DFED1C2A9FED1A2A60EE011A60EE225AB9
:1002300020EE813A20EE022A21EEA01A01EB800086
:1002400073EE655A62EE202AB7EE006A33EE003A8A
:10025000D0EC043A76EE611A71EE600A35EEE20AED
:1002600033EE413A32EEC21A70EEA10A20EE230AB2
:1002700064EE831A04EE200A45EE011A31EE800A7C
:100280007047000083F9223E00008043782B00086D
:10029000ABAA2A3EABAAAA3E064C074D06E0E06890
:1002A00040F0010394E8070098471034AC42F6D3BD
:1002B000FFF76EFFA82F0008C82F000800298168EB
:1002C00002D041F0010101E021F00101816070479D
:1002D000084B10B5D3F8042307490A40D0E90014AD
:1002E0002143D0E90240044321431143C3F80413DE
:1002F00010BD000000200140E030FCFF00298168B3
:1003000002D041F4807101E021F480718160704776
:100310000029816802D041F4007101E021F40071EC
:100320008160704730B542680F4B0C791A400B68FA
:1003300042EA04221343436082680C4B4D791A4011
:10034000D1E9034323438C6844EA45042343134320
:100350008360C26A097D22F47002491EC9B242EA72
:100360000151C16230BD0000FFFEFFFCFDF7FFC080
:1003700070B5072609290AD9C568A1F10A0404EB5A
:100380004404A640B543A3401D43C56007E005698A
:1003900001EB4104A640B543A3401D4305611F2363
:1003A000072A09D2446B521E02EB820293409C43FF
:1003B00091400C43446370BD0D2A09D2046BD21FD7
:1003C00002EB820293409C4391400C43046370BD56
:1003D000C46A0D3A02EB820293409C4391400C4365
:1003E000C46270BD816841F080418160704700BF88
:1003F000FEE700001CB50121102001F039FA0F4C76
:1004000001220E21204600F0EFF902218DF80410A0
:1004100000218DF806108DF8071003208DF80500D7
:100420004FF4804000906946204600F0A1F900F0AA
:100430006DFBBDE81C4000F003B800000010024056
:1004400030B5012189B0084601F042FA5A200690E1
:100450003B200024ADF814001E4DADF81C40ADF853
:1004600016408DF81E4005A9284601F083FF602044
:10047000ADF800000120ADF80200ADF80C4069466F
:100480002846029401F0FCFD0821284601F036FEC2
:100490006946284601F03CFE0821284601F08AFE04
:1004A0006946284601F094FE0821284601F0E0FE46
:1004B0006946284601F0E6FE0821284601F01EFFA5
:1004C0000121284601F07AFC0121284601F082FC36
:1004D00009B030BD000001400029016802D041F0A0
:1004E000010101E021F001010160704730B50368AE
:1004F000124ACC6813400A682243D1E905452C43CF
:100500002243CC6922430C6A22434C6A22438C6A00
:1005100022434C6B22438C6B22431A430260426994
:1005200022F00703D1E90B2422431A4342610A69EE
:1005300042604A6882608968C16030BD3F801CF0BB
:10054000704700001CB501210C2001F091F9022236
:1005500007211C4800F048F902220621194800F042
:1005600043F902220D21184800F03EF902220C2125
:10057000154800F039F902208DF8040000208DF8AC
:10058000060001208DF8070003208DF8050080206B
:10059000009069460B4800F0EBF840200090694657
:1005A000084800F0E5F84FF400500090694606480E
:1005B00000F0DEF84FF4805000906946024800F0E9
:1005C000D7F81CBD00080240000C024010B5FFF730
:1005D000B9FF00F001F810BD00B587B00121062079
:1005E00001F056F9274801F005FC274801F002FC0C
:1005F00001A801F001FF4FF6FE7002900020ADF857
:100600000400ADF80600ADF80C0001A91D4801F08A
:10061000B1FE01A91C4801F0ADFE00231A460321DA
:10062000184801F0AFFC00231A460321164801F0D8
:10063000A9FC04A801F012FD0620ADF8180004A9D9
:10064000104801F0D4FC04A90F4801F0D0FC0121AE
:100650000C4801F0ADFB01210B4801F0A9FB002182
:10066000084801F058FE0021074801F054FE01211E
:10067000044801F0A3FB0121034801F09FFB07B0F0
:1006800000BD0000000400400008004010B52E48E6
:1006900001F099FC2D490860084600682C4909685A
:1006A000401A2C49086029480068294908602948EF
:1006B0000068B0F5004F06DB26480068A0F58030E2
:1006C000244908600AE02348006810F5004F05DC63
:1006D0002048006800F580301E4908601E48006808
:1006E0001C49096808441C4908601C4801F06BFC5F
:1006F0001B490860084600681A490968401A1A49E7
:100700000860174800681749086017480068B0F586
:10071000004F06DB14480068A0F5803012490860DD
:100720000AE01148006810F5004F05DC0E4800682B
:1007300000F580300C4908600C4800680A490968D7
:1007400008440A49086010BD00040040240000204D
:100750002C000020140000201C0000200008004095
:100760002800002030000020180000202000002079
:10077000F0B5002201274FF0030C0B6807FA02F5D1
:100780002B40AB422CD1066853000CFA03F4A6436D
:1007900006600E79D0F800E09E4046EA0E0606603C
:1007A0000E79012E01D0022E12D18668A6438660F2
:1007B0004E79D0F808E09E4046EA0E06866046680C
:1007C000AE43466045688E799640B6B23543456083
:1007D000C568A543C560CC799C40C3681C43C46010
:1007E000521C102AC9D3F0BD4B07DB0E9A40C90832
:1007F00010B500EB8100016A0F249C40A143016207
:10080000016A1143016210BD0246002012690A42CA
:1008100000D00120704700BFFEE7000010B500F0D7
:10082000F5FB0D4801F0F1FD00EE100A9FED0B1AEB
:100830000949B8EE400A48600948C0EE010AC1ED16
:10084000020A90ED161A91ED030A01EE200A81EDDD
:10085000030A80ED1C0A10BD90000020002474499A
:10086000E403002000B500F045F80748C1680180A6
:1008700001694180416981808169C180C1690181CB
:10088000016A418100BD0000400000207CB50121CB
:10089000052000F0EDFF03208DF804000020134E2A
:1008A0008DF807002024694630460094FFF760FF6A
:1008B0001025694630460095FFF75AFF80200C4E00
:1008C000009069463046FFF753FF69463046009571
:1008D000FFF74EFF694630460094FFF749FF40207E
:1008E000009069463046FFF743FF7CBD0008024098
:1008F0000000024030B528490020C8600861486106
:100900008861C8610862254B00EB4002D2B233F81F
:100910001240CD682C44CC6003EB420254880D6930
:100920002C440C6192884C6922444A61401CC0B23C
:100930003228E9D31A4B002000EB4002D2B233F840
:1009400012408D692C448C6103EB42025488CD69BE
:100950002C44CC6192880C6A22440A62401CC0B2CA
:100960003228E9D3CA683220B2FBF0F2CA600A69C1
:10097000B2FBF0F20A614A69B2FBF0F24A618A699D
:10098000B2FBF0F28A61CA69B2FBF0F2CA610A6A8C
:10099000B2FBF0F0086230BD40000020CC00002027
:1009A000F801002010B5FFF771FFBDE8104000F01E
:1009B00001B80000F0B599B001214FF4407000F08B
:1009C00087FF0121880500F053FF00244FF4806069
:1009D0000394CDE905404000079080000890401145
:1009E00009900AA94002012581E83100424801909E
:1009F0004248434F0E94962602900D946946049601
:100A000000943846FFF772FD01213846FFF764FD78
:100A10003C4801903C4804960290394E68063036B6
:100A2000009069463046FFF761FD01213046FFF72F
:100A300053FD15941694179415A81894FFF748FCC5
:100A40008DF840508DF841502B4D0F941194139414
:100A500003244C3D8DF850400FA92846FFF762FC57
:100A60008DF85040274C0FA94C3C2046FFF75AFC0C
:100A7000002301220F212846FFF77AFC00230222DF
:100A80000E212846FFF774FC002303220721284685
:100A9000FFF76EFC0023012204212046FFF768FCCB
:100AA0000023022205212046FFF762FC00230322D7
:100AB00006212046FFF75CFC01212846FFF728FCB1
:100AC00001212846FFF71AFC01212846FFF7F6FB13
:100AD00001212046FFF71CFC01212046FFF70EFCF8
:100AE00001212046FFF7EAFB2846FFF77BFC204662
:100AF000FFF778FC19B0F0BD4C200140CC0000207D
:100B0000106402404C210140F80100202DE9FC4115
:100B10000121102000F0ACFE01208DF8040000201F
:100B20008DF806008DF8070003200D4C8DF80500A8
:100B30004FF40076694620460096FFF719FEE71449
:100B4000694620460097FFF713FE350169462046A7
:100B50000095FFF70DFE668367836583BDE8FC8122
:100B6000001002401CB501211B2000F081FE012075
:100B70008DF8040000208DF806008DF80700032092
:100B80008DF805000120009069461C48FFF7F0FD34
:100B90001020009069461A48FFF7EAFD20200090D7
:100BA00069461748FFF7E4FD4FF48050009069460E
:100BB0001248FFF7DDFD4FF40040009069461148F0
:100BC000FFF7D6FD4FF40070009069460E48FFF71E
:100BD000CFFD012009491A310880102008494883B7
:100BE00020204883C00105491A310880C00005490A
:100BF0004883801104491A3108801CBD000402405A
:100C00000010024000000240000C024010B52DED23
:100C1000068B0446F0EE409AF0EE608A9FED330AB0
:100C2000B0EE40AA9FED310AB0EE408A9FED2F0A48
:100C3000B0EE409A89EEA80AB0EE40AA9FED2C0AC9
:100C4000C0EE0A0AF0EE60AAB0EE6A0A01F006FDF4
:100C5000B0EE408A9FED270AFFF7B2FAF0EE000AE5
:100C600060EE200AB7EE000A00EE880A08EE080AD5
:100C7000B0EE409AC4ED008A94ED000AB5EEC00AC9
:100C8000F1EE10FA2FDD28EE080AC0EE090AC4EDD5
:100C9000030A94ED030AF0EE000A20EE200A84ED28
:100CA000040A94ED030A84ED050AB7EE000A18EE73
:100CB000080AF0EE000A20EE200AC0EE090AC4ED90
:100CC000010A9FED0C0AFFF77BFAF0EE000A60EED6
:100CD000200AB7EE000A00EEC80A08EE080AC0EEC5
:100CE000090AC4ED020ABDEC068B10BD000000002D
:100CF000DB0F4940DB0F493F0020401CC0B20528F4
:100D0000FBD370472DE9F0470024104FDFF840A0D7
:100D100025464FF48059012607F102086006040EAB
:100D20003E80FFF7E9FF49465046FFF76DFD08B1E9
:100D3000641CE4B2A8F80060FFF7DEFF6D1CEDB2A2
:100D4000082DEBD32046BDE8F0870000180C0240C8
:100D50000008024070B50D46044600F02DF800F082
:100D6000D9F8204600F028F900F006F970B92846B5
:100D700000F022F900F000F940B900F0CBF844F09F
:100D8000010000F019F900F0F7F830B107A001F008
:100D900049FC00F0D9F8002070BDFFF7B3FF04460E
:100DA00000F0A2F800F0D0F8204670BDB6C1C8A18E
:100DB000B4EDCEF3200A000010B5044600F0C4F8EC
:100DC00000F0A8F8204600F0F7F800F0D5F8002869
:100DD000F4D1BDE8104000F0B7B800002DE9F05F95
:100DE00015460F4606465C1CFFF7E6FF00F092F83A
:100DF000304600F0E1F800F0BFF870B9384600F076
:100E0000DBF800F0B9F840B900F084F846F00100D2
:100E100000F0D2F800F0B0F8F8B119A001F002FC2F
:100E200000F092F80020BDE8F09F012C03D100F003
:100E30005BF800F089F8FFF765FF05F8010BA8F8EB
:100E40000060A9F80070641EFFF756FFAAF8007052
:100E5000ABF80060FFF750FF09E0DFF83080DFF803
:100E6000309001273E0309F1020AA8F1020B002C81
:100E7000DBD100F039F800F067F80120D3E700007B
:100E8000B6C1C8A1B4EDCEF3200A00001A08024092
:100E9000180C024070B515460E46044600F03AF8AC
:100EA000204600F089F800F067F858B9304600F0A5
:100EB00083F800F061F828B9284600F07DF800F0CA
:100EC0005BF830B105A001F0ADFB00F03DF800206B
:100ED00070BD00F039F8012070BD0000B7A2CBCD85
:100EE000B4EDCEF3200A0000084910B54FF480504D
:100EF0000880074801240480FFF7FEFE0448801C98
:100F00000480BDE81040FFF7F7BE0000180802405B
:100F1000180C024070B50A484FF480550580094806
:100F200001240480FFF7E8FE0548801C0580FFF7D8
:100F3000E3FE0448801C0480BDE87040FFF7DCBE7F
:100F400018080240180C024070B5094E0124348084
:100F5000084825030580FFF7CFFE0648801E058060
:100F6000FFF7CAFE3480BDE87040FFF7C5BE000041
:100F7000180C02401A08024070B50D480125058082
:100F8000FFF7BAFE2E0331460A48FFF73DFC08B1D1
:100F9000012400E000240648801C0580FFF7ACFE19
:100FA000044818300680FFF7A7FE204670BD0000F9
:100FB000180C0240000802402DE9F05F114EDFF8E6
:100FC00048A00024B514804606F1020901270AF161
:100FD000020B08FA04F0000601D5358001E0A9F8FB
:100FE0000050FFF789FEAAF80070FFF785FEABF806
:100FF0000070FFF781FE641CE4B2082CE9D3358051
:10100000BDE8F09F18080240180C024010B50024FB
:10101000174800F099F91649DFED160A1E3901EB61
:101020004400B0F91E00821D0C2A04D801EB840094
:10103000C0ED0E0A0BE000EE100A91ED181A01EB5C
:101040008400B8EEC00AC0EE011AC0ED0E1A641C8E
:10105000E4B2032CE3D391ED0E0A81ED140A91ED75
:101060000F0A81ED150A91ED100A81ED160A10BDE7
:1010700002040020000000007CB5642001F079FC2F
:1010800001210C2000F0F4FB02208DF80500012066
:101090008DF8060000248DF807408DF804000090BC
:1010A00069462A48FFF764FB4FF48050284D0090B2
:1010B00069462846FFF75CFB8DF8064003208DF853
:1010C0000500EC14694628460094FFF751FB2048C0
:1010D0001A3004807521D020FFF73CFE80226B215E
:1010E000D020FFF7D7FE642001F043FC03226B21E0
:1010F000D020FFF7CFFE00221921D020FFF7CAFE33
:1011000005221A21D020FFF7C5FE18221B21D0206E
:10111000FFF7C0FE10221C21D020FFF7BBFE0322E8
:101120001D21D020FFF7B6FE642001F022FC0A4802
:101130009FED080A80ED170A9FED080A80ED180A56
:101140009FED070A80ED190A7CBD0000000C0240EB
:101150000008024000008045E40300206F12834134
:10116000E02E654210B5F3EE090A2DED028B9FEDDE
:101170001A8A1A48B0EE480AFFF748FD1748F3EEFE
:10118000090AB0EE480A2030FFF740FD1348F3EE9D
:10119000090AB0EE480A4030FFF738FDDFED108A4B
:1011A0000E48B0EE480AF0EE680A6030FFF72EFDF8
:1011B0000A48F0EE680AB0EE480A8030FFF726FDD4
:1011C000F0EE680AB0EE480ABDEC028B0348BDE8B9
:1011D0001040A030FFF71ABD0000C84224030020D1
:1011E000000034422DE9FC5F00242546A946CA468A
:1011F00056463746B84633A001F014FADFF8E8B097
:10120000DBF8141081F02001CBF81410C82001F095
:10121000B0FB641CE4B20A2CF2D32021ABF8181006
:1012200032A001F0FFF9DFF8D4B000240BF1180070
:101230000190801D0090019800F068F8009800F07F
:1012400083F8BBF91C10BBF918200D44BBF91E1024
:1012500091440E44BBF92200BBF91A20BBF92010BF
:10126000804492440F440120A5F5805501F081FB94
:10127000641CE4B2642CDED3642199FBF1F2CBF858
:1012800000209AFBF1F2CBF8042095FBF1F2CBF8A9
:10129000082096FBF1F2CBF80C2097FBF1F298FBBB
:1012A000F1F1CBE904210024FFF7B0FE0A2001F0A0
:1012B00060FB641CE4B20A2CF6D3BDE8FC5F10A00E
:1012C00001F0B0B90AD5FDD4DABDF8D0D0B4ABB8CE
:1012D000D0C6F7BDC3D5FDA3ACC7EBCBAEC6BDB77B
:1012E000C5D6C32020200A00001002400ABFAACAA7
:1012F000BCD0DED5FD2020200A000000E403002041
:101300000ABDC3D5FDCDEAB3C90A00001CB5044629
:1013100006236A463B21D020FFF760FDBDF80000A0
:1013200041BA08480288891A2180BDF802108288D3
:1013300049BA891A6180BDF80410008949BA081AAF
:10134000A0801CBDE40300201CB5044606236A46A9
:101350004321D020FFF742FDBDF8000041BA084804
:101360008289891A2180BDF80210028A49BA891A35
:101370006180BDF80410808A49BA081AA0801CBD9B
:10138000E403002000BFFEE710B533482DED028BCB
:1013900001F03BF800EE100ADFED300A3049B8EEFC
:1013A000400A80EE208A18EE100A884201DDB7EE6E
:1013B000008A2C4CB0EE481ADFED2B0A94ED1C0A83
:1013C00000F072F9294894ED160AB0EE481AD0EDF3
:1013D000000A00F02BFA20480021D0ED010A244831
:1013E00090ED000A1C4830EEC01A0830B5EEC01A65
:1013F000F1EE10FA06DDBDEEC11A11EE102A0280E0
:10140000418007E030EE601A0180BDEEC11A11EE96
:10141000102A428030EE800AB5EEC00AF1EE10FAD2
:1014200005DDBDEEC00A10EE102A828005E0BDEE9B
:10143000C00A818010EE101A4942C1800BB2B0F987
:101440000420B0F90210B0F90000BDEC028BBDE839
:10145000104000F0ABB80000800000200024744968
:101460008FC2F53CE403002000000000A80000202B
:10147000C00000201CB50121084600F009FA022234
:1014800001211B48FFF7B0F9022200211848FFF79D
:10149000ABF9022203211648FFF7A6F902221146F2
:1014A0001348FFF7A1F902208DF8040000208DF801
:1014B00006008DF8070003208DF80500022000903B
:1014C00069460B48FFF754F9012000906946084827
:1014D000FFF74EF90820009069460548FFF748F9E4
:1014E0000420009069460248FFF742F91CBD000045
:1014F0000000024010B5FFF7BDFF00F001F810BD7D
:1015000000B589B00121082000F0C2F940F2E730AF
:1015100007900020ADF81800ADF82000ADF81A00D3
:1015200006A9214800F026FF6020ADF80400022043
:10153000ADF810000120ADF806000020039001A9CD
:10154000194800F09DFD0821174800F0D7FD012043
:10155000ADF806000020039001A9134800F0D8FD63
:101560000821114800F026FE0120ADF806000020F9
:10157000039001A90C4800F02BFE08210A4800F056
:1015800077FE0120ADF806000020039001A906486F
:1015900000F078FE0821044800F0B0FE0121024866
:1015A00000F00CFC09B000BD000C004010B5B3F514
:1015B000967F01DB4FF49673B2F5967F01DB4FF413
:1015C0009672B0F5967F01DB4FF49670B1F5967F79
:1015D00001DB4FF49671002B00DC0023002A00DCB5
:1015E0000022002800DC0020002900DC0021054C3E
:1015F0002360241F2260034C08342060241F2160D4
:1016000010BD0000380C0040704708B54FF4C060B2
:1016100000F040F825208DF8000001208DF8010031
:101620008DF802008DF80300684600F001F808BD4F
:1016300030B50F23C27801780125FAB1144A126837
:1016400001F1E02102F4E062C2F5E062C2F3072298
:10165000C2F10404D3404278A24084781C40144371
:10166000220181F80024007800F01F018D4040091C
:10167000800000F1E020C0F8005130BD01F01F00F3
:1016800085404809800000F1E020C0F8805130BD5D
:101690000CED00E002490843024908607047000071
:1016A0000000FA050CED00E000B5B0EE403AF0EEB7
:1016B000603AB0EE414AB0EE441AF0EE430AB0EEA2
:1016C000630A034800F008F8024880ED000A00BDF4
:1016D0005C040020A8000020F0EE401AC0ED061ABD
:1016E00090ED062A32EE602A80ED072A90ED092A55
:1016F000D0ED072A02EE812A80ED092A90ED092A11
:10170000D0ED0A2AB4EEE22AF1EE10FA04DD90EDF3
:101710000A2A80ED092A0CE090ED092AD0ED0B2A67
:10172000B4EEE22AF1EE10FA03D290ED0B2A80ED2E
:10173000092A90ED072AD0ED082A32EE622AC2EE7D
:10174000012AC0ED0C2A90ED002AD0ED072A22EEE6
:10175000222A80ED032A90ED012AD0ED092A22EEFB
:10176000222A80ED042A90ED022AD0ED0C2A22EEE6
:10177000222A80ED052A90ED032AD0ED042A32EECC
:10178000222AD0ED052A32EE220A90ED072A80EDBA
:10179000082A7047DFED0F2AC0ED072ADFED0D2A7A
:1017A000C0ED082ADFED0B2AC0ED092ADFED092A7A
:1017B000C0ED0C2A80ED060AC0ED000A80ED011A8A
:1017C000C0ED021A80ED0A2AF1EE422AC0ED0B2A82
:1017D000704700000000000000B59FED0D2ADFED0E
:1017E0000D1A9FED0D1AF2EE0E0A9FED0B0A0B4833
:1017F000FFF7D0FF9FED062ADFED091A9FED091ACA
:10180000F7EE000A9FED040A0748FFF7C3FF00BD8B
:1018100000009643CDCC4C3E000000005C0400204C
:101820000AD7233DCDCCCC3D9404002000B5B0EECA
:10183000403AF0EE603AB0EE414AB0EE441AF0EEB3
:10184000430AB0EE630A0648FFF746FF054880EDFD
:10185000000A90ED000A044880ED000A00BD000077
:1018600094040020B4000020C00000207047000055
:1018700029B1064A12680243044B1A6004E0034A85
:1018800012688243014B1A607047000030380240F2
:1018900029B1064A12680243044B1A6004E0034A65
:1018A00012688243014B1A607047000040380240C2
:1018B00029B1064A12680243044B1A6004E0034A45
:1018C00012688243014B1A607047000020380240C2
:1018D00029B1064A12680243044B1A6004E0034A25
:1018E00012688243014B1A6070470000443802407E
:1018F00029B1064A12680243044B1A6004E0034A05
:1019000012688243014B1A6070470000243802407D
:10191000F0B5002100220024022500260223324FC8
:101920003F6807F00C0121B1042905D0082937D1FF
:1019300005E02E4F076036E02D4F076033E02A4F59
:101940003F1F3F68C7F38056274F3F1F3F6807F090
:101950003F036EB1264FB7FBF3F7DFF88CC0ACF155
:10196000040CDCF800C0CCF3881C07FB0CF40CE082
:101970001E4FB7FBF3F7DFF870C0ACF1040CDCF8D6
:1019800000C0CCF3881C07FB0CF4174F3F1F3F68C7
:10199000C7F301477F1C7D00B4FBF5F7076002E049
:1019A000124F076000BF00BF0F4F3F6807F0F00104
:1019B0000909104F7A5C0768D74047600A4F3F68B3
:1019C00007F4E051890A0B4F7A5C4768D74087607B
:1019D000054F3F6807F46041490B064F7A5C476842
:1019E000D740C760F0BD0000083802400024F40072
:1019F00040787D01000000207FB501214020FFF7E5
:101A000047FF632001905320ADF800000024124DE1
:101A1000ADF80840ADF802406946284600F0AAFC3F
:101A20002B208DF80C008DF80D4001218DF80E1043
:101A30008DF80F1003A8FFF7FBFD01221146284681
:101A400000F015FB0021284600F065FC0121284626
:101A500000F0B4F97FBD0000001800402DE9F04708
:101A600000231A4619461846FFF7A0FD4FF4FA6501
:101A70001F4C01E0FEF70AFE2068A842FADB1D4871
:101A80004FF4805707801C4C01E0FEF7FFFD2068F3
:101A9000A842FADBDFF864904FF40046A9F818601A
:101AA000B411174DDFF85C8040F6B83A07E06C835C
:101AB000052000F05EFF2C83012000F05AFFB8F8EB
:101AC00000105145F3D3DFF82C8008F10208A8F884
:101AD0000070A9F81A606C8310242C83C82000F0D1
:101AE00048FF0120A8F800006C83BDE8F0870000E3
:101AF0001C000020180402402000002000000240CA
:101B000000100240CC00002070473EB5012108467D
:101B1000FFF7BEFE4FF0FF3001905320ADF80000FC
:101B20000020ADF80800ADF802004FF0804469468F
:101B3000204600F01FFC0021204600F0ECFB0121B4
:101B4000204600F03BF93EBD0CB50022274900922B
:101B50000192086840F4803008604FF4A0430868A0
:101B600000F4003001900098401C0090019810B9DA
:101B700000989842F3D10868800334D50120019081
:101B80001A484030026842F08052026018480268E9
:101B900042F4404202601548083002680260026860
:101BA00042F400420260026842F4A0520260031F45
:101BB000104A1A600A6842F080720A600A6892014C
:101BC000FCD50D4940F205720A60016821F003015D
:101BD0000160016841F0020101600168C1F3810107
:101BE0000229FAD10CBD01920CBD00000038024060
:101BF0000070004019544007003C0240704700004C
:101C0000124810B5016841F4700101601048016884
:101C100041F0010101600E4A0021083211600268A2
:101C20000C4B1A400260031D0B4A1A60026822F432
:101C30008022026006480C300160FFF785FF0349EF
:101C40004FF000608039086010BD000088ED00E0B2
:101C500000380240FFFFF6FE10300024F0B50C46BD
:101C6000154600210022068C4FF6FE773E40068482
:101C7000018B028C4FF60C7631407E1C06EA03166F
:101C80002E4331434FF6F576324044F0010632439D
:101C900001830284F0BDF0B50C46154600210022F8
:101CA0000026078C4FF6EF7C07EA0C070784018BB0
:101CB000028C4FF6FF7707EA041640F6FF473940DB
:101CC0004FF6FF7707EA033739434FF6FF7707EA06
:101CD000052739434FF65F773A4046F010073A43FD
:101CE00001830284F0BDF0B50C46154600210022A8
:101CF0000026078C4FF6FF6C07EA0C070784818BE0
:101D0000028C4FF6FF7707EA04264FF60C7739402E
:101D10004FF6FF7707EA03172F4339434FF2FF5778
:101D20003A4046F480773A4381830284F0BDF0B5AF
:101D30000C461546002100220026078C4EF6FF7C3B
:101D400007EA0C070784818B028C4FF6FF7707EABE
:101D5000043640F6FF4739404FF6FF7707EA05277C
:101D600039434FF6FF7707EA0337394345F6FF77E4
:101D70003A4046F480573A4381830284F0BD000024
:101D800010B5094C0121204600F020F9002809D0A7
:101D90000121204600F00FF804480121018041880C
:101DA000491C418010BD0000001800403C0000208C
:101DB000CA4302827047CA430282704721B1028837
:101DC00042F00102028004E002884FF6FE731A40DE
:101DD0000280704731B1B0F8442042F40042A0F8CC
:101DE000442005E0B0F84420C2F30E02A0F84420DD
:101DF0007047000010B504465548844208D10121BF
:101E00000846FFF775FD00210120FFF771FD9DE0F9
:101E1000B4F1804F08D101210846FFF749FD0021A8
:101E20000120FFF745FD91E04A48844208D1012195
:101E30000220FFF73DFD00210220FFF739FD85E07C
:101E40004548844208D101210420FFF731FD0021DB
:101E50000420FFF72DFD79E04048844208D101219C
:101E60000820FFF725FD00210820FFF721FD6DE088
:101E70003B48844208D101211020FFF719FD0021C1
:101E80001020FFF715FD61E03648844208D101219A
:101E90002020FFF70DFD00212020FFF709FD55E070
:101EA0003148844208D101210220FFF721FD0021A1
:101EB0000220FFF71DFD49E02C48844209D1012191
:101EC0000804FFF715FD00214FF48030FFF710FDE7
:101ED0003CE02748844209D101214804FFF708FD6E
:101EE00000214FF40030FFF703FD2FE0214884422A
:101EF00009D101218804FFF7FBFC00214FF4802069
:101F0000FFF7F6FC22E01C48844208D10121402062
:101F1000FFF7CEFC00214020FFF7CAFC16E017486F
:101F2000844208D101218020FFF7C2FC00218020DB
:101F3000FFF7BEFC0AE01248844207D10121801558
:101F4000FFF7B6FC0021A015FFF7B2FC10BD0000A2
:101F5000000001400004004000080040000C004068
:101F60000010004000140040000401400040014007
:101F7000004401400048014000180040001C00409F
:101F800000200040F0B50C4615461E4600210022F8
:101F900000230189028B038C4FF6F87739402143E7
:101FA0004FF6FC473A4040F201173A434FF6DD77CF
:101FB0003B404FF6FF7707EA06172F433B4301816B
:101FC00002830384F0BD0146486A704730B502467B
:101FD000002000230024158A05EA0103958905EAFB
:101FE000010413B10CB1012000E0002030BD70B538
:101FF00005460C46208850B92389A2886188284666
:10200000FFF72CFEE188284600F087F925E02088BC
:1020100004280AD12389A28861882846FFF73BFE5D
:10202000E188284600F082F917E0208808280AD1C4
:102030002389A28861882846FFF755FEE188284653
:1020400000F081F909E02389A28861882846FFF71A
:102050006EFEE188284600F07FF970BD0021018006
:102060004180012181800021C180018170471AB126
:1020700083890B43838102E083898B43838170478B
:1020800070B5002400220023058C4FF6FE76354003
:102090000584028C8388048B4FF68F752C40B51E07
:1020A0002C400D882C43751E2A408D892A434D886B
:1020B0002A43104DA84202D00F4DA84213D14FF62B
:1020C000F7752A40CD892A434FF6FB752A408D8843
:1020D0002A434FF6FF652B404FF6FF552B400D8AE4
:1020E0002B434D8A2B43838004838D684563028490
:1020F00070BD000000000140000401400A460021BC
:10210000018B4FF6F77319401143018370470000AC
:1021100070B5002400220023058C4FF6EF76354081
:102120000584028C8388048B48F6FF752C404FF69B
:10213000FF452C400D884FF6FF7606EA05252C4317
:102140004FF6DF752A408D8906EA05152A434D882A
:1021500006EA05152A43154DA84202D0144DA8429F
:102160001DD14FF67F752A40CD894FF6FF7606EADE
:1021700005152A434FF6BF752A408D8806EA0515D6
:102180002A434FF6FF352B404FF2FF752B400D8A47
:1021900006EA85052B434D8A06EA85052B43838095
:1021A00004838D688563028470BD000000000140D7
:1021B000000401400A460021018B4FF2FF731940D1
:1021C0004FF6FF7303EA02231943018370470000AF
:1021D00070B5002400220023058C4FF6FF663540C1
:1021E0000584028C8388848B4FF68F752C404FF6C4
:1021F000FC752C400D882C434FF6FF552A408D89E5
:102200004FF6FF7606EA05252A434D8806EA05259E
:102210002A43154DA84202D0144DA8421DD14FF2B9
:10222000FF752A40CD894FF6FF7606EA05252A4339
:102230004FF6FF352A408D8806EA05252A434EF6DB
:10224000FF752B404DF6FF752B400D8A06EA0515EC
:102250002B434D8A06EA05152B43838084838D68C2
:10226000C563028470BD000000000140000401400D
:102270000A460021818B4FF6F77319401143818381
:102280007047000070B5002200230024058C4EF634
:10229000FF7635400584038C8488828B48F6FF7571
:1022A0002A404FF6FF452A400D884FF6FF7606EA92
:1022B00005252A434DF6FF752B408D8906EA053525
:1022C0002B434D8806EA05352B430A4DA84202D020
:1022D000094DA84208D14BF6FF752C400D8A4FF6E8
:1022E000FF7606EA85152C43848082838D68056419
:1022F000038470BD00000140000401400A46002133
:10230000818B4FF2FF7319404FF6FF7303EA0223EC
:1023100019438183704741627047028B4FF6F37314
:102320001A400283028B0A4302837047028B4FF2EA
:10233000FF331A400283028B4FF6FF7303EA012337
:102340001A4302837047828B4FF6F3731A408283DD
:10235000828B0A4382837047828B4FF2FF331A408D
:102360008283828B4FF6FF7303EA01231A43828331
:102370007047000000220288184B98420ED0184B7C
:1023800098420BD0B0F1804F08D0164B984205D040
:10239000154B984202D0154B984204D14FF68F73DB
:1023A0001A404B881A43124B984207D0114B98425F
:1023B00004D04FF6FF431A400B891A4302804B6842
:1023C000C3620B880385054B984202D0044B9842A8
:1023D00001D18B7A0386012383827047000001407C
:1023E000000401400004004000080040000C0040D0
:1023F00000100040001400404FF0FF314160002108
:102400000180018141808172704710B504464FF010
:102410008040FFF7D8FD21682060401A10BD000001
:1024200000B587B001210846FFF722FA01211020EC
:10243000FFF74EFA072209212148FEF7D5F90722B6
:102440000A211F48FEF7D0F903208DF8190000205B
:102450008DF81A0002208DF8180001208DF81B005D
:102460004002059005A91648FEF782F94FF48060F6
:10247000059005A91248FEF77BF94FF4E130019071
:102480000020ADF80800ADF80A00ADF80C000C20F3
:10249000ADF80E000020ADF8100001A9094800F0C9
:1024A00051F8FFF7B2F8012240F22551054800F03B
:1024B00024F80121034800F007F807B000BD000030
:1024C000000002400010014021B1828942F4005214
:1024D000828104E082894DF6FF731A408281704741
:1024E00002460020B1F5007F00D100BF13880B40E9
:1024F0000BB1012000E000207047F0B50346002436
:1025000000260025002040F66A17B94200D100BF1E
:102510001846C1F3421401F01F06012707FA06F519
:10252000012C01D10C3004E0022C01D1103000E06C
:1025300014301AB107682F43076002E00768AF4301
:102540000760F0BD2DE9FF4705460E460024A14671
:1025500000BFA046B08900B100BF2C8A24F44054CB
:10256000F08804432C82AC8941F20C608443B0882B
:1025700031890843718908430443AC81AC8A24F44F
:102580004074B0890443AC826846FFF7C1F9204823
:10259000854202D01F48854202D1DDF80C9001E04F
:1025A000DDF80890A88900F4004040B109EBC900AB
:1025B00000EB091031684900B0FBF1F707E009EBC7
:1025C000C90000EB091031688900B0FBF1F7642005
:1025D000B7FBF0F004012009642101FB1078A88901
:1025E00000F4004040B1322000EBC800B0FBF1F035
:1025F00000F00700044308E0322000EB08106421DB
:10260000B0FBF1F000F00F0004432C81BDE8FF8720
:102610000010014000140140C1F30802828070479D
:1026200000BFFEE7014A024900F092B98D29000877
:10263000C40000204100080218BF04200A0E18BF81
:1026400040F001004FF07F4232EA010108BF40F044
:102650000200012808BF05207047000000B510EEF9
:10266000101A2DED028B81B04B4A6846B2EB410F38
:102670003CD94FF0E640B0EB410F94BF00204FF043
:10268000FF3000900098B0EE408A00285FDB28EE13
:10269000080ADFED420A9FED421A00EE201ADFED34
:1026A000410A10F0010F40EE010A9FED3F1A00EEC3
:1026B000201ADFED3E0A40EE010A9FED3D1A00EEC2
:1026C000201A61EE000AB0EE480A08EE200A02BFA6
:1026D00001B0BDEC028B00BDBFEE001A01B0C1EE2F
:1026E000000ABDEC028BB0EE600A00BD314B21F058
:1026F0000042934228D911F0004FDFED2F0A20EE5F
:10270000201ADFED2E0A19BF31EE601A71EE200A91
:1027100031EE201A71EE600ABDEEE01A11EE100AD9
:102720009FED271A00F0030000EEC10A9FED251A65
:10273000009000EEC10A9FED241A00EEC10A9FED41
:10274000231A00EEC10A9DE700F04CF89AE718EE54
:10275000100A4000B0F17F4F88BF38EE080A0DD252
:1027600018EE100AFFF766FF042808BF00F032F8E1
:10277000B0EE480A01B0BDEC028B00BD1EBF01B037
:10278000BDEC028B00BD012000F0DCF8DFED100A8B
:1027900080EEA00AEEE70000B61F927EBBE9223C65
:1027A0000C6D063B8A76CE3CACB5593D35A1083E52
:1027B00029AAAA3E490E494683F9223F0000004B50
:1027C0000000C93F00A0FD390020A2331A61342C5B
:1027D000000000009FED020A20EE000A7047000092
:1027E000000000102DE9F0014FF07F42B2EB410FE5
:1027F0009FBF4FF0FF310160BDE8F00170474FF01F
:10280000004242EA0123C1F3C752783A541102F060
:102810001F023E4DC2F1200C7D4455F8246005EBAB
:10282000840596406C6824FA0CF73743AE689440F0
:1028300026FA0CF8ED6806FA02F225FA0CFC42EAD8
:102840000C0644EA0804A7FB03C5A4FB0342A6FB4D
:1028500003631C449C4234BF0126002602EB0C0398
:10286000334416B1934202D903E0934201D20122CC
:1028700000E000222A4402F1200C9206DD0C42EA1C
:10288000453200EE102A5B03DFED210AF8EEC01A94
:1028900000EE103A4FEA9C1C11F0004FB8EE400ACF
:1028A000C0F800C020EE201A00EE104ADFED190A31
:1028B000B8EE400A20EE202A31EE810A30EE020AFC
:1028C00010EE102A02F500626FF30B0200EE902A60
:1028D00030EEE10ADFED111A30EE410A32EE401A15
:1028E0009FED0D0A20EE800A01EE210A9FED0C1AE1
:1028F00000EE810A04BFBDE8F0017047CCF18051C1
:102900000160BDE8F001B1EE400A70476C070000BD
:10291000000000360000802C22AAFD29DB0FC92F01
:102920000000C92F02E008C8121F08C1002AFAD10E
:1029300070477047002001E001C1121F002AFBD13F
:10294000704700000149086070470000C80000207F
:102950002DE9F04116460F460446002503E03946AE
:10296000B047641C6D1C20780028F8D12846BDE8CB
:10297000F081002107E0002200E0521C48F24033C1
:102980009A42FAD3491C8142F5D3704770B5044688
:102990000D46E1B20548FFF73FFE00BF8021034826
:1029A000FFF79EFD0028F9D0204670BD00100140C1
:1029B0003220FFF7DEFFFFF733FDFDF707FEFEF7DE
:1029C000D1F8FEF759FBFEF7CDFBFDF7EBFFFFF764
:1029D0009CF8FFF711F8FEF78DFDFEF7FDFEFDF701
:1029E00009FD4FF47A70FFF7C4FFFFF737F8FEF7E1
:1029F000F9FB534E2020308370835248012101801F
:102A000047154FF400694FF4005ADFF83CB1002538
:102A10004E4CDFF83C81FDF725FFFDF7FFFEFEF78A
:102A2000B3FC4C4801880129F5D105806088401C21
:102A30006080207800B3022853D00328EBD12020F7
:102A4000308300231A4619461846FEF7AFFD0120D1
:102A5000FFF78FFF4FF4E17100220B461046FEF79F
:102A6000A5FDAA20FFF785FF00231A461946184640
:102A7000FEF79CFD7783FEE7FDF708FEFDF7F2FE0B
:102A8000607848B10128778313D0A6F81A90A6F889
:102A90001AA006281AD01AE03783A6F81A90A6F8CA
:102AA0001AA02D4801882D48ABF8001001882C4849
:102AB0000AE0A6F81A90A6F818A02A4801882A4821
:102AC00001802A4801882A48018000E065706088FA
:102AD0000521B0FBF1F201FB120000289BD102207E
:102AE00011E06078401C6070A8F80050FDF796FE79
:102AF000FEF74AFCBBF80000FA2806D918480088FF
:102B0000FA2802D90320207085E717480088FA28A0
:102B10004FF4805001D90B4901E00A49891C088013
:102B2000134814490088FA284FF4004001D908835B
:102B300000E04883B8F80000608025706BE7000073
:102B40000010024018040240340000201000002051
:102B50003E0000203C0000204000002046000020F5
:102B60003800002044000020360000204A000020E9
:102B70003A0000200000024043EC7F3F0000803F0D
:102B800043EC7F3F0FB17F3F6D4E7F3F6DC47E3F73
:102B900024137E3FAC3A7D3F283B7C3FBE147B3FF5
:102BA0009DC7793FF853783F07BA763F0BFA743FD9
:102BB0004714733F0809713F9ED86E3F5E836C3F98
:102BC000A7096A3FD86B673F59AA643F98C5613F20
:102BD00005BE5E3F1A945B3F5348583F31DB543F7C
:102BE0003D4D513F029F4D3F12D1493F03E4453FC8
:102BF00070D8413FF9AE3D3F4268393FF304353F5D
:102C0000BB85303F4AEB2B3F5636273F9967223F23
:102C1000D17F1D3FC07F183F2A68133FDA390E3F2E
:102C20009BF5083F3D9C033F275DFC3EEA5AF13E81
:102C30007533E63E80E8DA3ECA7BCF3E15EFC33EF1
:102C40002A44B83ED47CAC3EE59AA03E31A0943EE6
:102C5000938E883ECCCF783E135C603EC2C5473E23
:102C6000A2102F3E8340163E73B2FA3D36BDC83DDA
:102C700005A9963D30FB483DB00AC93C0BA88C2401
:102C8000B00AC9BC30FB48BD05A996BD36BDC8BD5C
:102C900073B2FABD834016BEA2102FBEC2C547BE96
:102CA000135C60BECCCF78BE938E88BE31A094BE3C
:102CB000E59AA0BED47CACBE2A44B8BE15EFC3BE14
:102CC000CA7BCFBE80E8DABE7533E6BEEA5AF1BEF3
:102CD000275DFCBE3D9C03BF9BF508BFDA390EBFE4
:102CE0002A6813BFC07F18BFD17F1DBF996722BF5D
:102CF000563627BF4AEB2BBFBB8530BFF30435BF29
:102D0000426839BFF9AE3DBF70D841BF03E445BF4B
:102D100012D149BF029F4DBF3D4D51BF31DB54BF62
:102D2000534858BF1A945BBF05BE5EBF98C561BFCC
:102D300059AA64BFD86B67BFA7096ABF5E836CBF1F
:102D40009ED86EBF080971BF471473BF0BFA74BFDA
:102D500007BA76BFF85378BF9DC779BFBE147BBF53
:102D6000283B7CBFAC3A7DBF24137EBF6DC47EBFC1
:102D70006D4E7FBF0FB17FBF43EC7FBF000080BFB0
:102D800043EC7FBF0FB17FBF6D4E7FBF6DC47EBF71
:102D900024137EBFAC3A7DBF283B7CBFBE147BBFF3
:102DA0009DC779BFF85378BF07BA76BF0BFA74BFD7
:102DB000471473BF080971BF9ED86EBF5E836CBF96
:102DC000A7096ABFD86B67BF59AA64BF98C561BF1E
:102DD00005BE5EBF1A945BBF534858BF31DB54BF7A
:102DE0003D4D51BF029F4DBF12D149BF03E445BFC6
:102DF00070D841BFF9AE3DBF426839BFF30435BF5B
:102E0000BB8530BF4AEB2BBF563627BF996722BF21
:102E1000D17F1DBFC07F18BF2A6813BFDA390EBF2C
:102E20009BF508BF3D9C03BF275DFCBEEA5AF1BE7F
:102E30007533E6BE80E8DABECA7BCFBE15EFC3BEEF
:102E40002A44B8BED47CACBEE59AA0BE31A094BEE4
:102E5000938E88BECCCF78BE135C60BEC2C547BE21
:102E6000A2102FBE834016BE73B2FABD36BDC8BDD8
:102E700005A996BD30FB48BDB00AC9BC372354A58F
:102E8000B00AC93C30FB483D05A9963D36BDC83D5A
:102E900073B2FA3D8340163EA2102F3EC2C5473E94
:102EA000135C603ECCCF783E938E883E31A0943E3A
:102EB000E59AA03ED47CAC3E2A44B83E15EFC33E12
:102EC000CA7BCF3E80E8DA3E7533E63EEA5AF13EF1
:102ED000275DFC3E3D9C033F9BF5083FDA390E3FE2
:102EE0002A68133FC07F183FD17F1D3F9967223F5B
:102EF0005636273F4AEB2B3FBB85303FF304353F27
:102F00004268393FF9AE3D3F70D8413F03E4453F49
:102F100012D1493F029F4D3F3D4D513F31DB543F60
:102F20005348583F1A945B3F05BE5E3F98C5613FCA
:102F300059AA643FD86B673FA7096A3F5E836C3F1D
:102F40009ED86E3F0809713F4714733F0BFA743FD8
:102F500007BA763FF853783F9DC7793FBE147B3F51
:102F6000283B7C3FAC3A7D3F24137E3F6DC47E3FBF
:102F70006D4E7F3F0FB17F3F43EC7F3F0000803FAE
:102F800043EC7F3F0FB17F3F000000006E83F9A24A
:102F90002915444ED15727FCC0DD34F5999562DBE5
:102FA0004190433CAB6351FEC82F00080000002055
:102FB000CC0000002429000894300008CC00002038
:102FC0000488000034290008000000000102030406
:102FD00001020304060708090000000000000000C9
:102FE00000000000000000000000000000000000E1
:102FF00000000000000000000000000000000000D1
:1030000000000000000000000000000000000000C0
:1030100000000000000000000000000000000000B0
:1030200000000000000000000000000000000000A0
:103030000000000000000000000000000000000090
:103040000000000000000000000000000000C84276
:103050000000000000000000000000000000000070
:103060000000000000000000000000000000000060
:103070000000000000000000000000000000000050
:103080000000000000000000000000000000000040
:04309000000000003C
:040000050800018965
:00000001FF
