:020000040800F2
:10000000D00800209D0100084D1A0008C108000812
:100010003D17000847040008312B000800000000CD
:10002000000000000000000000000000691F000840
:10003000A905000800000000C51C00089520000864
:10004000B7010008B7010008B7010008B7010008B0
:10005000B7010008B7010008B7010008B7010008A0
:10006000B7010008B7010008B7010008B701000890
:10007000B7010008B7010008B7010008B701000880
:10008000B7010008B7010008B7010008B701000870
:10009000B7010008B7010008B7010008B701000860
:1000A000B7010008B7010008B7010008B701000850
:1000B000B7010008B7010008B7010008B701000840
:1000C000B7010008B7010008B7010008B701000830
:1000D000B7010008B7010008B7010008B701000820
:1000E000B7010008B7010008B70100082522000881
:1000F000B7010008B7010008B7010008B701000800
:10010000B7010008B7010008B7010008B7010008EF
:10011000B7010008B7010008B7010008B7010008DF
:10012000B7010008B7010008B7010008B7010008CF
:10013000B7010008B7010008B7010008B7010008BF
:10014000B7010008B7010008B7010008B7010008AF
:10015000B7010008B7010008B7010008B70100089F
:10016000B7010008B7010008B7010008B70100088F
:10017000B7010008B7010008B7010008B70100087F
:10018000B7010008B7010008DFF80CD000F084F8D0
:1001900000480047C12E0008D008002006488047CC
:1001A00006480047FEE7FEE7FEE7FEE7FEE7FEE75C
:1001B000FEE7FEE7FEE7FEE7992000088901000858
:1001C000DFED300AB5EEC00A60EE200ABDEEE01A9F
:1001D00011EE100AF1EE10FA38BF401E00EE100AC0
:1001E0009FED291AB8EEC00A70EEC00A20EE810A0F
:1001F000BCEEC00A10EE100A00EE100A0028B8EE9D
:10020000C00A10EE810AB8BF002004DBB0F5807F81
:10021000C8BF4FF480701D4960EE000AB6EE001AA8
:10022000DFED1C2A9FED1A2A60EE011A60EE225AB9
:1002300020EE813A20EE022A21EEA01A01EB800086
:1002400073EE655A62EE202AB7EE006A33EE003A8A
:10025000D0EC043A76EE611A71EE600A35EEE20AED
:1002600033EE413A32EEC21A70EEA10A20EE230AB2
:1002700064EE831A04EE200A45EE011A31EE800A7C
:100280007047000083F9223E00008043882F000859
:10029000ABAA2A3EABAAAA3E064C074D06E0E06890
:1002A00040F0010394E8070098471034AC42F6D3BD
:1002B000FFF76EFFB8330008D833000821B1826819
:1002C00042F00102826003E0826822F00102826053
:1002D000704700000021084A1168084A1140D0E91F
:1002E00000231A4383681A43C3681A431143044A1C
:1002F000C2F804137047000004230140E030FCFF03
:100300000020014021B1826842F48072826003E0E3
:10031000826822F480728260704721B1826842F460
:100320000072826003E0826822F40072826070478B
:1003300030B50246002000235068104C20400D7953
:100340000C6844EA05242043506090680C4C20401F
:10035000D1E903542C438D682C434D7944EA45047C
:1003600020439060D06A20F470000C7D641EE4B2DB
:10037000234340EA0350D06230BD0000FFFEFFFC83
:10038000FDF7FFC0F0B504460D4600200021092D01
:1003900011DDE068A5F10A0606EB4607072606FA16
:1003A00007F18843A5F10A0606EB460603FA06F1B3
:1003B0000843E0600CE0206905EB4507072606FAD4
:1003C00007F1884305EB450603FA06F1084320616F
:1003D000072A0FDA606B561E06EB86071F2606FA01
:1003E00007F18843561E06EB860605FA06F1084318
:1003F000606322E00D2A0FDA206BD61F06EB86071A
:100400001F2606FA07F18843D61F06EB860605FA73
:1004100006F10843206310E0E06AA2F10D0606EB46
:1004200086071F2606FA07F18843A2F10D0606EBA0
:10043000860605FA06F10843E062F0BD816841F0E6
:1004400080418160704700BFFEE700001CB50121BC
:10045000102001F039FC01220E210B4800F004FAB3
:1004600002208DF8040000208DF806008DF80700AA
:1004700003208DF805004FF4804000906946024843
:1004800000F0AAF91CBD00000010024010B5FFF7F3
:10049000DDFF00F0A7FC00F001F810BD00B589B049
:1004A0000121084601F040FC5A2007903B20ADF89E
:1004B00018000020ADF82000ADF81A008DF82200D9
:1004C00006A91C4802F0D2F96020ADF80400002013
:1004D000ADF810000120ADF806000020039001A93E
:1004E000144802F049F80821124802F083F801A9E3
:1004F000104802F089F808210E4802F0D7F801A947
:100500000C4802F0E1F808210A4802F02DF901A98F
:10051000084802F033F90821064802F06BF901217E
:10052000044801F0C7FE0121024801F0CFFE09B0E6
:1005300000BD00000000014021B1026842F001024C
:10054000026003E0026822F00102026070470000CE
:1005500010B500220268134B1A40CC680B68234385
:100560004C6923438C692343CC6923430C6A23439E
:100570004C6A23438C6A23434C6B23438C6B234389
:100580001A430260426922F00702D1E90B34234387
:100590001A4342610B6943604B6883608B68C36098
:1005A00010BD00003F801CF0704700001CB5012109
:1005B0000C2001F089FB022207211C4800F054F9AD
:1005C00002220621194800F04FF902220D21184895
:1005D00000F04AF902220C21154800F045F90220EA
:1005E0008DF8040000208DF8060001208DF807002A
:1005F00003208DF805008020009069460B4800F02C
:10060000EBF8402000906946084800F0E5F84FF408
:10061000005000906946064800F0DEF84FF4805024
:1006200000906946024800F0D7F81CBD000802405F
:10063000000C024010B5FFF7B9FF00F001F810BD43
:1006400000B587B00121062001F04EFB274801F0DC
:100650004DFE274801F04AFE01A802F049F94FF685
:10066000FE7002900020ADF80400ADF80600ADF871
:100670000C0001A91D4802F0F9F801A91C4802F07C
:10068000F5F800231A460321184801F0F7FE00236D
:100690001A460321164801F0F1FE04A801F05AFFA2
:1006A0000620ADF8180004A9104801F01CFF04A9A9
:1006B0000F4801F018FF01210C4801F0F5FD012160
:1006C0000B4801F0F1FD0021084802F0A0F80021DC
:1006D000074802F09CF80121044801F0EBFD0121DC
:1006E000034801F0E7FD07B000BD00000004004032
:1006F0000008004010B52E4801F0E1FE2D490860C9
:10070000084600682C490968401A2C4908602948A5
:1007100000682949086029480068B0F5004F06DBE9
:1007200026480068A0F58030244908600AE0234884
:10073000006810F5004F05DC2048006800F58030A7
:100740001E4908601E4800681C49096808441C4985
:1007500008601C4801F0B3FE1B49086008460068A9
:100760001A490968401A1A49086017480068174969
:10077000086017480068B0F5004F06DB14480068B1
:10078000A0F58030124908600AE01148006810F5B1
:10079000004F05DC0E48006800F580300C49086009
:1007A0000C4800680A49096808440A49086010BDF5
:1007B000000400402000002028000020100000203D
:1007C0001800002000080040240000202C00002019
:1007D000140000201C000020F0B50A460021002370
:1007E000002400BF3DE0012505FA01F3156805EA84
:1007F00003049C4234D105684F000326BE40B54334
:10080000056015794E00B5400668354305601579D9
:10081000012D02D01579022D16D185684F000326CF
:10082000BE40B543856055794E00B5408668354376
:100830008560456801268E40B543456045689679D8
:100840008E40B6B235434560C5684F000326BE40B2
:10085000B543C560D5794E00B540C6683543C5601F
:10086000491C1029BFD3F0BDF0B5002300244D076B
:10087000ED0E02FA05F3CE1000F1200555F82650D2
:100880004E07F70E0F26BE40B543CF1000F12006ED
:1008900046F82750CE1000F1200555F8265045EABD
:1008A0000304CE1000F1200545F82640F0BD0246B5
:1008B000002013690B400BB1012000E000207047BD
:1008C00000BFFEE710B5124802F01BF8114908609E
:1008D000084690ED000AB8EE400ADFED0F0A80EE00
:1008E000201A0E4880ED001A0D48D0ED160A0B486C
:1008F00090ED001A0B4890ED000A00EE810A80EDA1
:10090000000A90ED000A064880ED1C0A10BD0000A8
:100910009400002098000020002474499C000020CE
:10092000E8030020A000002040480068B0F57A7F6E
:1009300000D970473D480068B0F57A7F35D13C4812
:1009400000684FF47A71B0FBF1F03949086039481A
:1009500000684FF47A71B0FBF1F036490860364810
:1009600000684FF47A71B0FBF1F033490860334806
:1009700000684FF47A71B0FBF1F0304908603048FC
:1009800000684FF47A71B0FBF1F02D4908602D48F2
:1009900000684FF47A71B0FBF1F02A4908602348EF
:1009A0000068401C21490860C3E72048006860B91E
:1009B00000201F4908601F4908601F4908601F493F
:1009C00008601F4908601F490860194800681E49EF
:1009D0000968084416490860164800681B490968F8
:1009E0000844144908601448006819490968084413
:1009F00011490860114800681649096808440F4900
:100A000008600F4800681449096808440C490860E8
:100A10000C4800681149096808440A4908600348FD
:100A20000068401C0149086000BF82E78000002088
:100A3000680000206C00002070000020740000207E
:100A4000780000207C0000204400002048000020A6
:100A50004C000020500000205400002058000020CE
:100A600000B500F067F8FFF75FFF0C4800680C491D
:100A700008800C4800680C4908800C4800680C4944
:100A800008800C4800680C4908800C4800680C4934
:100A900008800C4800680C49088000BD4400002014
:100AA0005C000020480000205E0000204C00002078
:100AB0006000002050000020620000205400002050
:100AC0006400002058000020660000201CB50121B1
:100AD000052001F0F9F803208DF8040000208DF8BE
:100AE00007002020009069461048FFF775FE10208F
:100AF000009069460D48FFF76FFE80200090694620
:100B00000B48FFF769FE1020009069460848FFF780
:100B100063FE2020009069460548FFF75DFE4020F7
:100B2000009069460248FFF757FE1CBD00080240CE
:100B3000000002400021002000223E4B1A603E4B84
:100B40001A603E4B1A603E4B1A603E4B1A603E4B99
:100B50001A6000BF1EE000EB4002D1B23B4A32F8FF
:100B60001120344B1B681A44324B1A60374B4A1C15
:100B700033F81220304B1B681A442F4B1A60334B4A
:100B80008A1C33F812202D4B1B681A442B4B1A6019
:100B9000421CD0B23228DEDB00201EE000EB400217
:100BA000D1B22B4A32F81120254B1B681A44244B32
:100BB0001A60274B4A1C33F81220224B1B681A4438
:100BC000204B1A60224B8A1C33F812201E4B1B68E4
:100BD0001A441D4B1A60421CD0B23228DEDB154A83
:100BE00012683223B2FBF3F2124B1A60124A1268F7
:100BF0003223B2FBF3F2104B1A60104A1268322310
:100C0000B2FBF3F20D4B1A600D4A12683223B2FBAD
:100C1000F3F20B4B1A600B4A12683223B2FBF3F269
:100C2000084B1A60084A12683223B2FBF3F2064BF3
:100C30001A60704744000020480000204C0000204B
:100C4000500000205400002058000020D000002058
:100C5000FC01002010B5FFF739FF00F001F810BDCE
:100C600000B599B001214FF4407001F05DF8012109
:100C7000880501F029F800200D900F904FF4806056
:100C8000109040001190800012904011139040028B
:100C900014900020159001201690002017901890B5
:100CA0004B480B904B480C9096200E9000200A90D9
:100CB0000AA94948FFF74CFC01214748FFF73CFCD3
:100CC00046480B9046480C9096200E904FF00070CE
:100CD0000A900AA940483030FFF73AFC01213E480B
:100CE0003030FFF729FC0020009001900290039023
:100CF0006846FFF7EFFA0020049001208DF81400F9
:100D00008DF8150000200690089003208DF824002F
:100D100004A92F484C38FFF70BFB03208DF8240063
:100D200004A92E484C38FFF703FB002301220F21B2
:100D300027484C38FFF726FB002302220E212448C7
:100D40004C38FFF71FFB00230322072120484C38B3
:100D5000FFF718FB00230122042120484C38FFF73D
:100D600011FB0023022205211C484C38FFF70AFB27
:100D700000230322062119484C38FFF703FB012109
:100D800013484C38FFF7C9FA012111484C38FFF7D6
:100D9000B9FA01210E484C38FFF790FA01210F48AB
:100DA0004C38FFF7BAFA01210C484C38FFF7AAFA81
:100DB00001210A484C38FFF781FA05484C38FFF703
:100DC0003DFB06484C38FFF739FB19B000BD000069
:100DD0004C200140D0000020106402404C21014012
:100DE000FC0100201CB50121102000F06DFF012046
:100DF0008DF8040000208DF806008DF80700032010
:100E00008DF805004FF40070009069460C48FFF71C
:100E1000E3FC4FF40060009069460948FFF7DCFCF2
:100E20004FF40050009069460548FFF7D5FC4FF499
:100E300000700349488380004883800048831CBDBC
:100E4000001002401CB501211B2000F03DFF0120D5
:100E50008DF8040000208DF806008DF807000320AF
:100E60008DF805000120009069461C48FFF7B4FC8E
:100E70001020009069461A48FFF7AEFC2020009031
:100E800069461748FFF7A8FC4FF480500090694668
:100E90001248FFF7A1FC4FF400400090694611484A
:100EA000FFF79AFC4FF40070009069460E48FFF778
:100EB00093FC012009491A31088010200849488311
:100EC00020204883C00105491A310880C000054927
:100ED0004883801104491A3108801CBD0004024077
:100EE0000010024000000240000C024010B52DED41
:100EF000068B0446F0EE409AF0EE608A9FED330ACE
:100F0000B0EE40AA9FED310AB0EE408A9FED2F0A65
:100F1000B0EE409A89EEA80AB0EE40AA9FED2C0AE6
:100F2000C0EE0A0AF0EE60AAB0EE6A0A01F01EFEF8
:100F3000B0EE408A9FED270AFFF742F9F0EE000A73
:100F400060EE200AB7EE000A00EE880A08EE080AF2
:100F5000B0EE409AC4ED008A94ED000AB5EEC00AE6
:100F6000F1EE10FA2FDD28EE080AC0EE090AC4EDF2
:100F7000030A94ED030AF0EE000A20EE200A84ED45
:100F8000040A94ED030A84ED050AB7EE000A18EE90
:100F9000080AF0EE000A20EE200AC0EE090AC4EDAD
:100FA000010A9FED0C0AFFF70BF9F0EE000A60EE64
:100FB000200AB7EE000A00EEC80A08EE080AC0EEE2
:100FC000090AC4ED020ABDEC068B10BD000000004A
:100FD000DB0F4940DB0F493F002001E0411CC8B254
:100FE0000528FBDB704700001CB501210C2000F038
:100FF0006BFE02208DF8050001208DF80600002010
:101000008DF8070001208DF80400009069460E4815
:10101000FFF7E2FB4FF48050009069460B48FFF762
:10102000DBFB00208DF8060003208DF805004FF44F
:101030000060009069460548FFF7CEFB4FF4006062
:1010400002491A3108801CBD000C02400008024011
:1010500070B50024002516E06006040E01200C493E
:101060000880FFF7B9FF4FF480510A48FFF71FFCD3
:1010700008B1601CC4B201200549891C0880FFF733
:10108000ABFF681CC5B2082DE6DB204670BD000032
:10109000180C02400008024070B504460D46204678
:1010A00000F030F800F0E4F8204600F039F900F0E4
:1010B00015F900B119E0284600F032F900F00EF9F8
:1010C00000B112E000F0D4F844F0010000F028F97B
:1010D00000F004F900B108E0FFF7BAFF064600F09F
:1010E000B1F800F0E1F8304670BD03A001F022FD38
:1010F00000F0DAF80020F7E7B6C1C8A1B4EDCEF3EE
:10110000200A000010B5044600BF00F0CDF800F042
:10111000AFF8204600F004F900F0E0F80028F4D120
:1011200000F0C2F810BD00002DE9F04105460F4661
:1011300016461C46641C2846FFF7E4FF00F098F8AA
:10114000284600F0EDF800F0C9F800B127E0384675
:1011500000F0E6F800F0C2F800B120E000F088F8F6
:1011600045F0010000F0DCF800F0B8F800B116E03E
:101170000CE0012C03D100F065F800F095F8FFF7C2
:1011800067FF3070761C641E00F016F8002CF0D15A
:1011900000F058F800F088F80120BDE8F08103A0C5
:1011A00001F0C8FC00F080F80020F6E7B6C1C8A145
:1011B000B4EDCEF3200A000010B54FF48050094979
:1011C0000880012008490880FFF706FF0120064932
:1011D000891C088000030349891E0880FFF7FCFE74
:1011E00010BD00001A080240180C024070B50446F9
:1011F0000D46164600F03CF8204600F091F800F04D
:101200006DF800B111E0284600F08AF800F066F8A9
:1012100000B10AE0304600F083F800F05FF800B15A
:1012200003E000F041F8012070BD03A001F082FC52
:1012300000F03AF80020F7E7B7A2CBCDB4EDCEF33B
:10124000200A000010B54FF48050074908800120A3
:1012500006490880FFF7C0FE01200449891C088068
:10126000FFF7BAFE10BD000018080240180C02403B
:1012700010B54FF480500A490880012009490880C0
:10128000FFF7AAFE4FF480500549891C0880FFF73C
:10129000A3FE01200349891C0880FFF79DFE10BDB5
:1012A00018080240180C024010B5012009490880B6
:1012B000000309490880FFF78FFE4FF4805006496C
:1012C000891E0880FFF788FE012002490880FFF789
:1012D00083FE10BD180C02401A08024010B5012010
:1012E0000D490880FFF778FE4FF480510B48FFF757
:1012F000DEFA08B1012400E0002401200649891C1F
:101300000880FFF769FE4FF48050044918310880C7
:10131000FFF762FE204610BD180C02400008024094
:1013200070B5054600241DE005FA04F000F08000C9
:1013300020B14FF480500F49088004E04FF48050F2
:101340000C49891C0880FFF747FE01200A490880E4
:10135000FFF742FE01200849891C0880FFF73CFE88
:10136000601CC4B2082CDFDB4FF4805001490880B8
:1013700070BD000018080240180C024010B500248F
:101380001E4800F0AFF900BF26E01C4931F91400F7
:10139000002801DB014600E04142062908DC9FED00
:1013A000180A16481A3000EB840080ED000A11E09C
:1013B000124830F9140000EE100AB8EEC00A0F48C7
:1013C0001E38D0ED180A80EE201A383000EB840069
:1013D00080ED001A601CC4B2032CD6DB07481E380F
:1013E00090ED0E0A80ED140A90ED0F0A80ED150ABB
:1013F00090ED100A80ED160A10BD000006040020D2
:101400000000000010B5642001F03BFDFFF7ECFD8B
:101410007521D020FFF740FE80226B21D020FFF7FE
:10142000E5FE642001F02DFD03226B21D020FFF7A3
:10143000DDFE00221921D020FFF7D8FE05221A2157
:10144000D020FFF7D3FE18221B21D020FFF7CEFEBD
:1014500010221C21D020FFF7C9FE03221D21D0201D
:10146000FFF7C4FE642001F00CFD9FED070A07485A
:1014700080ED170A9FED060A80ED180A9FED050A18
:1014800080ED190A10BD000000008045E80300202F
:101490006F128341E02E654210B5F3EE090A9FED0D
:1014A000140A1448FFF722FDF3EE090A9FED100A13
:1014B0001148FFF71BFDF3EE090A9FED0D0A0F48D7
:1014C000FFF714FDDFED0E0A9FED090A0D48FFF747
:1014D0000DFDDFED0B0A9FED060A0B48FFF706FD39
:1014E000DFED070A9FED020A0848FFF7FFFC10BD79
:1014F0000000C842280300204803002068030020A1
:101500000000344288030020A8030020C803002004
:1015100070B586B0002400250026002003900490BA
:10152000059000900190029046A001F003FB00BFDF
:101530000AE04D48406980F020004B494861C820CE
:1015400001F09FFC701CC6B20A2EF2DB2020464937
:10155000088346A001F0EEFA002437E0474800F087
:1015600095F84648801D00F0BDF844491839B1F996
:10157000181003980844039040481838B0F91A002E
:101580000499084404903D481838B0F91C00A0F5AF
:10159000805005990844059038491839B1F91E1052
:1015A00000980844009035481838B0F92000019997
:1015B0000844019031481838B0F9220002990844D3
:1015C0000290012001F05DFC601CC4B2642CC5DBFC
:1015D0006421039890FBF1F02849183908606421D0
:1015E000049890FBF1F0254918394860642105986A
:1015F00090FBF1F02149183988606421009890FB34
:10160000F1F01E491839C8606421019890FBF1F18E
:101610001A48183801616421029890FBF1F11748CB
:1016200018384161002506E0FFF7A8FE0A2001F006
:1016300028FC681CC5B20A2DF6DB11A001F07AFA6D
:1016400006B070BD0AD5FDD4DABDF8D0D0B4ABB8C1
:10165000D0C6F7BDC3D5FDA3ACC7EBCBAEC6BDB7F7
:10166000C5D6C32020200A00001002400ABFAACA23
:10167000BCD0DED5FD2020200A00000000040020A0
:101680000ABDC3D5FDCDEAB3C90A00001CB50446A6
:1016900006236A463B21D020FFF746FD9DF8010056
:1016A0009DF8001040EA01200D490988401A00B257
:1016B00020809DF803009DF8021040EA01200849AF
:1016C0008988401A00B260809DF805009DF80410DA
:1016D00040EA012002490989401A00B2A0801CBDDD
:1016E000E80300201CB5044606236A464321D020A7
:1016F000FFF71AFD9DF801009DF8001040EA012057
:101700000D498989401A00B220809DF803009DF898
:10171000021040EA01210848008A081A00B26080DD
:101720009DF805009DF8041040EA01210248808AD6
:10173000081A00B2A0801CBDE803002000BFFEE72D
:1017400010B52DED028B9FED520AF0EE408A514804
:1017500001F0D7F808EE100AB8EE480ADFED4E0A9D
:1017600080EE201AF0EE418A9FED4C0AF4EEC08A1A
:10177000F1EE10FA02DDB7EE000A01E0B0EE680A01
:10178000F0EE408A4648D0ED1C0AB0EE600AB0EE9A
:10179000681ADFED440A00F0B3F94148D0ED160AAB
:1017A000B0EE600AB0EE681A3F48D0ED000A00F0D3
:1017B00069FA3E4890ED000A3D48D0ED000A30EE4F
:1017C000600AB5EEC00AF1EE10FA11DD374890ED6F
:1017D000000A3748D0ED000A30EE600ABDEEC00ABC
:1017E00010EE100A00B2334908800020488010E053
:1017F0000020304908802E4890ED000A2B48D0ED9B
:10180000000A30EE600ABDEEC00A10EE100A00B207
:101810004880264890ED000A2548D0ED000A30EEB9
:10182000200AB5EEC00AF1EE10FA11DD1F4890ED66
:10183000000A1F48D0ED000A30EE200ABDEEC00AB3
:1018400010EE100A00B21B4988800020C88011E009
:10185000002018498880154890ED000A1448D0ED02
:10186000000A30EE200ABDEEC00A10EE100A404217
:1018700000B2C8800F4CB4F90630B4F90420B4F9B2
:101880000210B4F9000000F0B3F8BDEC028B10BDFB
:101890000AD7233C84000020002474498FC2F53C01
:1018A000E803002000000000AC00002090000020B1
:1018B000C4000020880000201CB50121084600F06B
:1018C00013FA022201211B48FEF7CEFF022200215B
:1018D0001848FEF7C9FF022203211648FEF7C4FF8D
:1018E000022211461348FEF7BFFF02208DF80400C4
:1018F00000208DF806008DF8070003208DF8050004
:101900000220009069460B48FEF766FF0120009018
:1019100069460848FEF760FF0820009069460548C0
:10192000FEF75AFF0420009069460248FEF754FF74
:101930001CBD00000000024010B5FFF7BDFF00F025
:1019400001F810BD00B589B00121082000F0CCF9E4
:1019500040F2E73007900020ADF81800ADF8200005
:10196000ADF81A0006A9214800F080FF6020ADF80C
:1019700004000220ADF810000120ADF806000020A0
:10198000039001A9194800F0F7FD0821174800F05D
:1019900031FE0120ADF806000020039001A9134894
:1019A00000F032FE0821114800F080FE0120ADF861
:1019B00006000020039001A90C4800F085FE0821D4
:1019C0000A4800F0D1FE0120ADF806000020039087
:1019D00001A9064800F0D2FE0821044800F00AFFE1
:1019E0000121024800F066FC09B000BD000C004077
:1019F00010B5B3F5967F01DB4FF49673B2F5967F81
:101A000001DB4FF49672B0F5967F01DB4FF49670D0
:101A1000B1F5967F01DB4FF49671002B00DC0023BB
:101A2000002A00DC0022002800DC0020002900DC65
:101A30000021054C2360241F2260034C08342060E1
:101A4000241F216010BD0000380C0040704708B50D
:101A50004FF4C06000F04AF825208DF80000012006
:101A60008DF801008DF802008DF80300684600F043
:101A700001F808BD70B5002100230F22C4781CB303
:101A8000174C246804F4E064C4F5E064C4F307214F
:101A9000C1F10404E3B20A4144789C40E1B2847885
:101AA000144021430C07210E0E4C05786155047833
:101AB00004F01F050124AC4005786D11AD0005F15F
:101AC000E025C5F8004109E0047804F01F05012471
:101AD000AC40054D0678761145F8264070BD0000F3
:101AE0000CED00E000E400E080E100E00249014389
:101AF000024A1160704700000000FA050CED00E09A
:101B000000B5B0EE403AF0EE603AB0EE414AB0EEC9
:101B1000441AF0EE430AB0EE630A034800F008F8F6
:101B2000024880ED000A00BD60040020AC000020E7
:101B3000F0EE401AC0ED061A90ED062A32EE602A49
:101B400080ED072A90ED092AD0ED072A02EE812ABE
:101B500080ED092A90ED092AD0ED0A2AB4EEE22A96
:101B6000F1EE10FA04DD90ED0A2A80ED092A0CE06E
:101B700090ED092AD0ED0B2AB4EEE22AF1EE10FA2C
:101B800003D290ED0B2A80ED092A90ED072AD0EDC3
:101B9000082A32EE622AC2EE012AC0ED0C2A90ED2C
:101BA000002AD0ED072A22EE222A80ED032A90EDAA
:101BB000012AD0ED092A22EE222A80ED042A90ED96
:101BC000022AD0ED0C2A22EE222A80ED052A90ED81
:101BD000032AD0ED042A32EE222AD0ED052A32EE75
:101BE000220A90ED072A80ED082A7047DFED0F2AC0
:101BF000C0ED072ADFED0D2AC0ED082ADFED0B2A24
:101C0000C0ED092ADFED092AC0ED0C2A80ED060A95
:101C1000C0ED000A80ED011AC0ED021A80ED0A2A1B
:101C2000F1EE422AC0ED0B2A7047000000000000D0
:101C300000B59FED0D2ADFED0D1A9FED0D1AF2EEA6
:101C40000E0A9FED0B0A0B48FFF7D0FF9FED062A07
:101C5000DFED091A9FED091AF7EE000A9FED040A5D
:101C60000748FFF7C3FF00BD00009643CDCC4C3EB4
:101C700000000000600400200AD7233DCDCCCC3DFD
:101C80009804002000B5B0EE403AF0EE603AB0EEB5
:101C9000414AB0EE441AF0EE430AB0EE630A064839
:101CA000FFF746FF054880ED000A90ED000A044862
:101CB00080ED000A00BD000098040020B80000205C
:101CC000C40000207047000029B1064A1268024390
:101CD000044B1A6004E0034A12688243014B1A6005
:101CE000704700003038024029B1064A12680243AA
:101CF000044B1A6004E0034A12688243014B1A60E5
:101D0000704700004038024029B1064A1268024379
:101D1000044B1A6004E0034A12688243014B1A60C4
:101D2000704700002038024029B1064A1268024379
:101D3000044B1A6004E0034A12688243014B1A60A4
:101D4000704700004438024029B1064A1268024335
:101D5000044B1A6004E0034A12688243014B1A6084
:101D60007047000024380240F0B500210022002412
:101D7000022500260223324F3F6807F00C0121B1F3
:101D8000042905D0082937D105E02E4F076036E039
:101D90002D4F076033E02A4F3F1F3F68C7F380563F
:101DA000274F3F1F3F6807F03F036EB1264FB7FB39
:101DB000F3F7DFF88CC0ACF1040CDCF800C0CCF316
:101DC000881C07FB0CF40CE01E4FB7FBF3F7DFF8A1
:101DD00070C0ACF1040CDCF800C0CCF3881C07FB2D
:101DE0000CF4174F3F1F3F68C7F301477F1C7D006E
:101DF000B4FBF5F7076002E0124F076000BF00BFB9
:101E00000F4F3F6807F0F0010909104F7A5C07682F
:101E1000D74047600A4F3F6807F4E051890A0B4FEB
:101E20007A5C4768D7408760054F3F6807F4604198
:101E3000490B064F7A5C4768D740C760F0BD000089
:101E4000083802400024F40040787D0100000020A2
:101E500008B52B208DF8000000208DF8010001202E
:101E60008DF802008DF803006846FFF703FE08BDF9
:101E70000EB501214020FFF737FF6320019053206A
:101E8000ADF800000020ADF80800ADF8020069468A
:101E9000094800F0EBFCFFF7DBFF01221146064882
:101EA00000F061FB0021044800F0B1FC0121024870
:101EB00000F000FA0EBD00000018004010B500232D
:101EC0001A4619461846FFF793FD00BF20490868D7
:101ED000C11700EB91714FF4FA72B2EBA10FF5DC70
:101EE0004FF480501B49088000BF1B490868C11788
:101EF00000EB91714FF4FA72B2EBA10FF5DC4FF4E5
:101F0000004016490883322000F0BBFF4FF40070F8
:101F10001349088300BF13480088B0F5FA6FFADB55
:101F20004FF480500B49891C0880C0000B4948833E
:101F300080110B49488310200883C82000F0A1FFBE
:101F400001200449891C088010200549488310BDE0
:101F500018000020180402401C000020000002406D
:101F6000001002405C00002070470EB501210846B9
:101F7000FFF7BAFE4FF0FF3001905320ADF800009C
:101F80000020ADF80800ADF8020069464FF080402F
:101F900000F06CFC00214FF0804000F038FC012183
:101FA000880700F087F90EBD0CB500200190009065
:101FB0003448006840F480303249086000BF31483E
:101FC000006800F4003000900198401C01900098D7
:101FD00018B90198B0F5A04FF1D12A48006800F473
:101FE000003010B10120009001E000200090009826
:101FF000012846D123484030006840F080502149F4
:10200000403108602048006840F440401E490860A4
:102010001C48083000681B49083108600846006801
:1020200040F4004008600846006840F4A050086092
:102030001648091F0860081F006840F08070091FDB
:10204000086000BF0F48006800F000700028F9D059
:1020500040F205700E4908600A480830006820F018
:1020600003000849083108600846006840F0020093
:10207000086000BF03480830006800F00C00082822
:10208000F8D10CBD003802400070004019544007E0
:10209000003C02407047000010B51548006840F44D
:1020A0007000134908601348006840F001001149AE
:1020B000086000200F49083108600E4800680E498A
:1020C00008400C4908600D48091D0860081F006899
:1020D00020F48020091F0860002006490C310860A8
:1020E000FFF762FF4FF0006001498039086010BDC2
:1020F00088ED00E000380240FFFFF6FE10300024BB
:10210000F0B50C46154600210022068C4FF6FE77EE
:102110003E400684018B028C4FF60C7631407E1CCB
:1021200006EA03162E4331434FF6F576324044F06B
:102130000106324301830284F0BDF0B50C4615461A
:10214000002100220026078C4FF6EF7C07EA0C07DF
:102150000784018B028C4FF6FF7707EA041640F6DE
:10216000FF4739404FF6FF7707EA033739434FF609
:10217000FF7707EA052739434FF65F773A4046F085
:1021800010073A4301830284F0BDF0B50C461546B2
:10219000002100220026078C4FF6FF6C07EA0C078F
:1021A0000784818B028C4FF6FF7707EA04264FF6EF
:1021B0000C7739404FF6FF7707EA03172F4339436F
:1021C0004FF2FF573A4046F480773A4381830284C6
:1021D000F0BDF0B50C461546002100220026078C04
:1021E0004EF6FF7C07EA0C070784818B028C4FF6C2
:1021F000FF7707EA043640F6FF4739404FF6FF778E
:1022000007EA052739434FF6FF7707EA03373943D3
:1022100045F6FF773A4046F480573A43818302847B
:10222000F0BD000010B50121184800F04BF938B39B
:102230000121164800F03BF8FEF75CFAFEF710FCAF
:1022400013480068401C12490860084600680A28C4
:1022500017D3084600680A2807D10E4800880E499F
:1022600008800E4800880E4908804FF400700D4920
:10227000488307480068322807D9002004490860CD
:1022800003E04FF400700749088310BD00180040B8
:102290003C0000205C000020400000206200002084
:1022A0004200002000100240CA4302827047CA4325
:1022B0000282704721B1028842F00102028004E0EC
:1022C00002884FF6FE731A400280704731B1B0F8B1
:1022D000442042F40042A0F8442005E0B0F8442035
:1022E000C2F30E02A0F844207047000010B5044667
:1022F0005548844208D101210846FFF725FD0021F9
:102300000120FFF721FD9DE0B4F1804F08D10121AC
:102310000846FFF7F9FC00210120FFF7F5FC91E0EA
:102320004A48844208D101210220FFF7EDFC002138
:102330000220FFF7E9FC85E04548844208D10121ED
:102340000420FFF7E1FC00210420FFF7DDFC79E029
:102350004048844208D101210820FFF7D5FC002124
:102360000820FFF7D1FC6DE03B48844208D10121F1
:102370001020FFF7C9FC00211020FFF7C5FC61E029
:102380003648844208D101212020FFF7BDFC0021FE
:102390002020FFF7B9FC55E03148844208D10121E3
:1023A0000220FFF7D1FC00210220FFF7CDFC49E01D
:1023B0002C48844209D101210804FFF7C5FC002103
:1023C0004FF48030FFF7C0FC3CE02748844209D13D
:1023D00001214804FFF7B8FC00214FF40030FFF75B
:1023E000B3FC2FE02148844209D101218804FFF782
:1023F000ABFC00214FF48020FFF7A6FC22E01C4834
:10240000844208D101214020FFF77EFC00214020BA
:10241000FFF77AFC16E01748844208D1012180209A
:10242000FFF772FC00218020FFF76EFC0AE01248E3
:10243000844207D101218015FFF766FC0021A01519
:10244000FFF762FC10BD00000000014000040040E6
:1024500000080040000C0040001000400014004044
:102460000004014000400140004401400048014098
:1024700000180040001C004000200040F0B50C4651
:1024800015461E460021002200230189028B038C81
:102490004FF6F877394021434FF6FC473A4040F277
:1024A00001173A434FF6DD773B404FF6FF7707EAD7
:1024B00006172F433B43018102830384F0BD01468D
:1024C000486A704730B50246002000230024158A70
:1024D00005EA0103958905EA010413B10CB1012055
:1024E00000E0002030BD70B505460C46208850B98C
:1024F0002389A28861882846FFF702FEE1882846E2
:1025000000F087F925E0208804280AD12389A288D1
:1025100061882846FFF711FEE188284600F082F91D
:1025200017E0208808280AD12389A28861882846D4
:10253000FFF72BFEE188284600F081F909E02389A6
:10254000A28861882846FFF744FEE188284600F00B
:102550007FF970BD0021018041800121818000212F
:10256000C180018170471AB183890B43838102E0E6
:1025700083898B438381704770B500240022002338
:10258000058C4FF6FE7635400584028C8388048BDB
:102590004FF68F752C40B51E2C400D882C43751EB0
:1025A0002A408D892A434D882A43104DA84202D0E3
:1025B0000F4DA84213D14FF6F7752A40CD892A4313
:1025C0004FF6FB752A408D882A434FF6FF652B4056
:1025D0004FF6FF552B400D8A2B434D8A2B438380AA
:1025E00004838D684563028470BD000000000140D3
:1025F000000401400A460021018B4FF6F773194091
:10260000114301837047000070B5002400220023AD
:10261000058C4FF6EF7635400584028C8388048B59
:1026200048F6FF752C404FF6FF452C400D884FF6BD
:10263000FF7606EA05252C434FF6DF752A408D8983
:1026400006EA05152A434D8806EA05152A43154D65
:10265000A84202D0144DA8421DD14FF67F752A40E2
:10266000CD894FF6FF7606EA05152A434FF6BF756A
:102670002A408D8806EA05152A434FF6FF352B4080
:102680004FF2FF752B400D8A06EA85052B434D8AD4
:1026900006EA85052B43838004838D688563028465
:1026A00070BD000000000140000401400A46002106
:1026B000018B4FF2FF7319404FF6FF7303EA0223B9
:1026C000194301837047000070B5002400220023E5
:1026D000058C4FF6FF6635400584028C8388848B19
:1026E0004FF68F752C404FF6FC752C400D882C430F
:1026F0004FF6FF552A408D894FF6FF7606EA0525ED
:102700002A434D8806EA05252A43154DA84202D0E2
:10271000144DA8421DD14FF2FF752A40CD894FF6C6
:10272000FF7606EA05252A434FF6FF352A408D88B5
:1027300006EA05252A434EF6FF752B404DF6FF7538
:102740002B400D8A06EA05152B434D8A06EA05152E
:102750002B43838084838D68C563028470BD000031
:1027600000000140000401400A460021818B4FF621
:10277000F7731940114381837047000070B5002240
:1027800000230024058C4EF6FF7635400584038C2B
:102790008488828B48F6FF752A404FF6FF452A4011
:1027A0000D884FF6FF7606EA05252A434DF6FF759C
:1027B0002B408D8906EA05352B434D8806EA053501
:1027C0002B430A4DA84202D0094DA84208D14BF62E
:1027D000FF752C400D8A4FF6FF7606EA85152C43CF
:1027E000848082838D680564038470BD000001408D
:1027F000000401400A460021818B4FF2FF7319400B
:102800004FF6FF7303EA0223194381837047416245
:102810007047028B4FF6F3731A400283028B0A4310
:1028200002837047028B4FF2FF331A400283028B00
:102830004FF6FF7303EA01231A4302837047828B2A
:102840004FF6F3731A408283828B0A438283704768
:10285000828B4FF2FF331A408283828B4FF6FF73D5
:1028600003EA01231A438283704700000022028892
:10287000184B98420ED0184B98420BD0B0F1804FB5
:1028800008D0164B984205D0154B984202D0154BF4
:10289000984204D14FF68F731A404B881A43124B5B
:1028A000984207D0114B984204D04FF6FF431A408C
:1028B0000B891A4302804B68C3620B880385054B62
:1028C000984202D0044B984201D18B7A03860123AF
:1028D0008382704700000140000401400004004072
:1028E00000080040000C00400010004000140040B0
:1028F0004FF0FF31416000210180018141808172F0
:10290000704770B50446002500264FF08040FFF761
:10291000D6FD0546266825602068A84204D92068AF
:10292000C0F1FF30054400E0AD1B284670BD00003B
:1029300000B587B001210846FFF7C6F90121102034
:10294000FFF7F2F9072209212148FDF78DFF072241
:102950000A211F48FDF788FF03208DF81900002089
:102960008DF81A0002208DF8180001208DF81B0048
:102970004002059005A91648FDF72EFF4FF4806030
:10298000059005A91248FDF727FF4FF4E1300190AB
:102990000020ADF80800ADF80A00ADF80C000C20DE
:1029A000ADF80E000020ADF8100001A9094800F0B4
:1029B00051F8FFF74CF8012240F22551054800F08C
:1029C00024F80121034800F007F807B000BD00001B
:1029D000000002400010014021B1828942F40052FF
:1029E000828104E082894DF6FF731A40828170472C
:1029F00002460020B1F5007F00D100BF13880B40D4
:102A00000BB1012000E000207047F0B50346002420
:102A100000260025002040F66A17B94200D100BF09
:102A20001846C1F3421401F01F06012707FA06F504
:102A3000012C01D10C3004E0022C01D1103000E057
:102A400014301AB107682F43076002E00768AF43EC
:102A50000760F0BD2DE9FF4705460E460024A1465C
:102A600000BFA046B08900B100BF2C8A24F44054B6
:102A7000F08804432C82AC8941F20C608443B08816
:102A800031890843718908430443AC81AC8A24F43A
:102A90004074B0890443AC826846FFF765F920486A
:102AA000854202D01F48854202D1DDF80C9001E03A
:102AB000DDF80890A88900F4004040B109EBC90096
:102AC00000EB091031684900B0FBF1F707E009EBB2
:102AD000C90000EB091031688900B0FBF1F76420F0
:102AE000B7FBF0F004012009642101FB1078A889EC
:102AF00000F4004040B1322000EBC800B0FBF1F020
:102B000000F00700044308E0322000EB08106421C5
:102B1000B0FBF1F000F00F0004432C81BDE8FF870B
:102B20000010014000140140C1F308028280704788
:102B300000BFFEE7014A024900F092B99D2E00084D
:102B4000C80000204100080218BF04200A0E18BF68
:102B500040F001004FF07F4232EA010108BF40F02F
:102B60000200012808BF05207047000000B510EEE4
:102B7000101A2DED028B81B04B4A6846B2EB410F23
:102B80003CD94FF0E640B0EB410F94BF00204FF02E
:102B9000FF3000900098B0EE408A00285FDB28EEFE
:102BA000080ADFED420A9FED421A00EE201ADFED1F
:102BB000410A10F0010F40EE010A9FED3F1A00EEAE
:102BC000201ADFED3E0A40EE010A9FED3D1A00EEAD
:102BD000201A61EE000AB0EE480A08EE200A02BF91
:102BE00001B0BDEC028B00BDBFEE001A01B0C1EE1A
:102BF000000ABDEC028BB0EE600A00BD314B21F043
:102C00000042934228D911F0004FDFED2F0A20EE49
:102C1000201ADFED2E0A19BF31EE601A71EE200A7C
:102C200031EE201A71EE600ABDEEE01A11EE100AC4
:102C30009FED271A00F0030000EEC10A9FED251A50
:102C4000009000EEC10A9FED241A00EEC10A9FED2C
:102C5000231A00EEC10A9DE700F04CF89AE718EE3F
:102C6000100A4000B0F17F4F88BF38EE080A0DD23D
:102C700018EE100AFFF766FF042808BF00F032F8CC
:102C8000B0EE480A01B0BDEC028B00BD1EBF01B022
:102C9000BDEC028B00BD012000F0DCF8DFED100A76
:102CA00080EEA00AEEE70000B61F927EBBE9223C50
:102CB0000C6D063B8A76CE3CACB5593D35A1083E3D
:102CC00029AAAA3E490E494683F9223F0000004B3B
:102CD0000000C93F00A0FD390020A2331A61342C46
:102CE000000000009FED020A20EE000A704700007D
:102CF000000000102DE9F0014FF07F42B2EB410FD0
:102D00009FBF4FF0FF310160BDE8F00170474FF009
:102D1000004242EA0123C1F3C752783A541102F04B
:102D20001F023E4DC2F1200C7D4455F8246005EB96
:102D3000840596406C6824FA0CF73743AE689440DB
:102D400026FA0CF8ED6806FA02F225FA0CFC42EAC3
:102D50000C0644EA0804A7FB03C5A4FB0342A6FB38
:102D600003631C449C4234BF0126002602EB0C0383
:102D7000334416B1934202D903E0934201D20122B7
:102D800000E000222A4402F1200C9206DD0C42EA07
:102D9000453200EE102A5B03DFED210AF8EEC01A7F
:102DA00000EE103A4FEA9C1C11F0004FB8EE400ABA
:102DB000C0F800C020EE201A00EE104ADFED190A1C
:102DC000B8EE400A20EE202A31EE810A30EE020AE7
:102DD00010EE102A02F500626FF30B0200EE902A4B
:102DE00030EEE10ADFED111A30EE410A32EE401A00
:102DF0009FED0D0A20EE800A01EE210A9FED0C1ACC
:102E000000EE810A04BFBDE8F0017047CCF18051AB
:102E10000160BDE8F001B1EE400A70476C060000A9
:102E2000000000360000802C22AAFD29DB0FC92FEC
:102E30000000C92F02E008C8121F08C1002AFAD1F9
:102E400070477047002001E001C1121F002AFBD12A
:102E5000704700000149086070470000CC00002066
:102E60002DE9F04116460F460446002503E0394699
:102E7000B047641C6D1C20780028F8D12846BDE8B6
:102E8000F081002107E0002200E0521C48F24033AC
:102E90009A42FAD3491C8142F5D3704770B5044673
:102EA0000D46E1B20548FFF73FFE00BF8021034811
:102EB000FFF79EFD0028F9D0204670BD00100140AC
:102EC0003220FFF7DEFFFFF733FDFDF7B3FBFDF721
:102ED000B9FFFFF74AF8FEF7CBFFFEF793FAFEF7CC
:102EE000DBFAFEF729FDFEF7A3FEFDF7CFFAFDF7AB
:102EF000B1FE4FF47A70FFF7C4FFFEF7DFFFFEF775
:102F000007FB20201C490883488301201B490880B7
:102F100031E0FEF733FAFDF7D5FCFEF711FC184857
:102F20000088B0F5967F26DD16480088B0F5967FBC
:102F300021DD20201049088300231A46194618462F
:102F4000FEF756FD0120FFF79CFF4FF4C8730022E7
:102F500019461046FEF74CFD7820FFF792FF00233C
:102F60001A4619461846FEF743FD4FF40070024911
:102F7000488300BFFEE7CCE700100240180402407F
:102F8000400000204200002043EC7F3F0000803FD3
:102F900043EC7F3F0FB17F3F6D4E7F3F6DC47E3F5F
:102FA00024137E3FAC3A7D3F283B7C3FBE147B3FE1
:102FB0009DC7793FF853783F07BA763F0BFA743FC5
:102FC0004714733F0809713F9ED86E3F5E836C3F84
:102FD000A7096A3FD86B673F59AA643F98C5613F0C
:102FE00005BE5E3F1A945B3F5348583F31DB543F68
:102FF0003D4D513F029F4D3F12D1493F03E4453FB4
:1030000070D8413FF9AE3D3F4268393FF304353F48
:10301000BB85303F4AEB2B3F5636273F9967223F0F
:10302000D17F1D3FC07F183F2A68133FDA390E3F1A
:103030009BF5083F3D9C033F275DFC3EEA5AF13E6D
:103040007533E63E80E8DA3ECA7BCF3E15EFC33EDD
:103050002A44B83ED47CAC3EE59AA03E31A0943ED2
:10306000938E883ECCCF783E135C603EC2C5473E0F
:10307000A2102F3E8340163E73B2FA3D36BDC83DC6
:1030800005A9963D30FB483DB00AC93C0BA88C24ED
:10309000B00AC9BC30FB48BD05A996BD36BDC8BD48
:1030A00073B2FABD834016BEA2102FBEC2C547BE82
:1030B000135C60BECCCF78BE938E88BE31A094BE28
:1030C000E59AA0BED47CACBE2A44B8BE15EFC3BE00
:1030D000CA7BCFBE80E8DABE7533E6BEEA5AF1BEDF
:1030E000275DFCBE3D9C03BF9BF508BFDA390EBFD0
:1030F0002A6813BFC07F18BFD17F1DBF996722BF49
:10310000563627BF4AEB2BBFBB8530BFF30435BF14
:10311000426839BFF9AE3DBF70D841BF03E445BF37
:1031200012D149BF029F4DBF3D4D51BF31DB54BF4E
:10313000534858BF1A945BBF05BE5EBF98C561BFB8
:1031400059AA64BFD86B67BFA7096ABF5E836CBF0B
:103150009ED86EBF080971BF471473BF0BFA74BFC6
:1031600007BA76BFF85378BF9DC779BFBE147BBF3F
:10317000283B7CBFAC3A7DBF24137EBF6DC47EBFAD
:103180006D4E7FBF0FB17FBF43EC7FBF000080BF9C
:1031900043EC7FBF0FB17FBF6D4E7FBF6DC47EBF5D
:1031A00024137EBFAC3A7DBF283B7CBFBE147BBFDF
:1031B0009DC779BFF85378BF07BA76BF0BFA74BFC3
:1031C000471473BF080971BF9ED86EBF5E836CBF82
:1031D000A7096ABFD86B67BF59AA64BF98C561BF0A
:1031E00005BE5EBF1A945BBF534858BF31DB54BF66
:1031F0003D4D51BF029F4DBF12D149BF03E445BFB2
:1032000070D841BFF9AE3DBF426839BFF30435BF46
:10321000BB8530BF4AEB2BBF563627BF996722BF0D
:10322000D17F1DBFC07F18BF2A6813BFDA390EBF18
:103230009BF508BF3D9C03BF275DFCBEEA5AF1BE6B
:103240007533E6BE80E8DABECA7BCFBE15EFC3BEDB
:103250002A44B8BED47CACBEE59AA0BE31A094BED0
:10326000938E88BECCCF78BE135C60BEC2C547BE0D
:10327000A2102FBE834016BE73B2FABD36BDC8BDC4
:1032800005A996BD30FB48BDB00AC9BC372354A57B
:10329000B00AC93C30FB483D05A9963D36BDC83D46
:1032A00073B2FA3D8340163EA2102F3EC2C5473E80
:1032B000135C603ECCCF783E938E883E31A0943E26
:1032C000E59AA03ED47CAC3E2A44B83E15EFC33EFE
:1032D000CA7BCF3E80E8DA3E7533E63EEA5AF13EDD
:1032E000275DFC3E3D9C033F9BF5083FDA390E3FCE
:1032F0002A68133FC07F183FD17F1D3F9967223F47
:103300005636273F4AEB2B3FBB85303FF304353F12
:103310004268393FF9AE3D3F70D8413F03E4453F35
:1033200012D1493F029F4D3F3D4D513F31DB543F4C
:103330005348583F1A945B3F05BE5E3F98C5613FB6
:1033400059AA643FD86B673FA7096A3F5E836C3F09
:103350009ED86E3F0809713F4714733F0BFA743FC4
:1033600007BA763FF853783F9DC7793FBE147B3F3D
:10337000283B7C3FAC3A7D3F24137E3F6DC47E3FAB
:103380006D4E7F3F0FB17F3F43EC7F3F0000803F9A
:1033900043EC7F3F0FB17F3F000000006E83F9A236
:1033A0002915444ED15727FCC0DD34F5999562DBD1
:1033B0004190433CAB6351FED8330008000000202D
:1033C000D0000000342E0008A8340008D0000020EF
:1033D00000080000442E0008000000000102030461
:1033E00001020304060708090000000000000000B5
:1033F00000000000000000000000000000000000CD
:1034000000000000000000000000000000000000BC
:1034100000000000000000000000000000000000AC
:10342000000000000000000000000000000000009C
:10343000000000000000000000000000000000008C
:10344000000000000000000000000000000000007C
:10345000000000000000000000000000000000006C
:1034600000000000000000000000C8420000000052
:10347000000000000000000000000000000000004C
:10348000000000000000000000000000000000003C
:10349000000000000000000000000000000000002C
:0834A000000000000000000024
:040000050800018965
:00000001FF
