:020000040800F2
:10000000208900209D010008F51B0008270E00082C
:1000100051190008EF090008A92900080000000094
:10002000000000000000000000000000592000084F
:100030003D0B000800000000291E00084D210008AB
:10004000B7010008B7010008B7010008B7010008B0
:10005000B7010008B7010008B7010008B7010008A0
:10006000B7010008B7010008B7010008B701000890
:10007000B7010008B7010008B7010008B701000880
:10008000B7010008B7010008B7010008B701000870
:10009000B7010008B7010008B7010008B701000860
:1000A000B7010008B7010008B7010008B701000850
:1000B000B7010008B7010008B7010008B701000840
:1000C000B7010008B7010008B7010008B701000830
:1000D000B7010008B7010008B7010008B701000820
:1000E000B7010008B7010008B70100081122000895
:1000F000B7010008B7010008B7010008B701000800
:10010000B7010008B7010008B7010008B7010008EF
:10011000B7010008B7010008B7010008B7010008DF
:10012000B7010008B7010008B7010008B7010008CF
:10013000B7010008B7010008B7010008B7010008BF
:10014000B7010008B7010008B7010008B7010008AF
:10015000B7010008B7010008B7010008B70100089F
:10016000B7010008B7010008B7010008B70100088F
:10017000B7010008B7010008B7010008B70100087F
:10018000B7010008B7010008DFF80CD000F052FBFF
:1001900000480047B93500082089002006488047FC
:1001A00006480047FEE7FEE7FEE7FEE7FEE7FEE75C
:1001B000FEE7FEE7FEE7FEE751210008890100089F
:1001C000DFED300AB5EEC00A60EE200ABDEEE01A9F
:1001D00011EE100AF1EE10FA38BF401E00EE100AC0
:1001E0009FED291AB8EEC00A70EEC00A20EE810A0F
:1001F000BCEEC00A10EE100A00EE100A0028B8EE9D
:10020000C00A10EE810AB8BF002004DBB0F5807F81
:10021000C8BF4FF480701D4960EE000AB6EE001AA8
:10022000DFED1C2A9FED1A2A60EE011A60EE225AB9
:1002300020EE813A20EE022A21EEA01A01EB800086
:1002400073EE655A62EE202AB7EE006A33EE003A8A
:10025000D0EC043A76EE611A71EE600A35EEE20AED
:1002600033EE413A32EEC21A70EEA10A20EE230AB2
:1002700064EE831A04EE200A45EE011A31EE800A7C
:100280007047000083F9223E00008043C038000818
:10029000ABAA2A3EABAAAA3E2DE9FE4F81EA03048F
:1002A00004F0004421F0004100944FF0000B23F0D3
:1002B000004350EA01045ED052EA03045BD0C3F36A
:1002C0000A54C1F30A552C44A4F2F3340194A0FB60
:1002D0000254C1F3130141F48011C3F3130343F437
:1002E000801301FB024400FB034E840A970A44EA90
:1002F000815447EA8357A4FB076802958D0A05FBE2
:1003000007854FEA932C04FB0C542705029D4FEA06
:10031000065847EA1637B5EB08056EEB070C870E53
:10032000920E47EA811742EA8312A7FB0201B6EB5D
:100330000B0164EB00042B0D43EA0C335E1844EB15
:100340001C50DA465146E7FB0201C5F313044FEA9D
:100350000B3343EA14534FEA0432019C43EA060389
:10036000A4F10C040294009CCDE900B400F0D1F893
:1003700003B0BDE8F08F00200146F9E70EB5C10FCC
:1003800080EAE0700844CA07002140F233438DE858
:100390000E000A460B4600F0BCF803B000BD00F0AA
:1003A000004230F000400AD0C10D01F56071C0F389
:1003B000160042EA0151C20840071143704700206D
:1003C0000146704701F0004330B421F0004150EA8B
:1003D000010206D00A0DA2F56072C1F31301002AD2
:1003E00002DC30BC00207047440F44EAC104C10065
:1003F000E01830BC00EBC25000F047B830B50B46F7
:10040000014600202022012409E021FA02F59D4244
:1004100005D303FA02F5491B04FA02F52844151E18
:10042000A2F10102F1DC30BD2DE9F05F05460020AC
:1004300092469B4688460646814640241BE0284655
:1004400041464746224600F016FA53465A46C01A1D
:10045000914110D311461846224600F0FDF92D1A9D
:1004600067EB01084F4622460120002100F0F4F915
:1004700017EB00094E41201EA4F10104DFDC4846C1
:1004800031462A464346BDE8F09F0029A8BF704781
:10049000401C490008BF20F00100704710B4B0FABA
:1004A00080FC00FA0CF050EA010404BF10BC704755
:1004B00049B1CCF1200421FA04F411FA0CF118BF6F
:1004C000012121430843A3EB0C01CB1D4FEA00613E
:1004D0004FEA102042BF002010BC704700EBC35011
:1004E00010440029A4BF10BC7047401C490008BF3D
:1004F00020F0010010BC704710B5002B08DA401C3A
:1005000041F1000192185B411A4301D120F0010032
:1005100010BD2DE9F04D92469B4611B1B1FA81F222
:1005200002E0B0FA80F22032904600F095F90446DD
:100530000F4640EA0A0041EA0B0153465A46084377
:1005400013D0114653EA010019D0C8F140025046B9
:1005500000F091F905460E4650465946424600F0D5
:100560007BF9084305D0012004E020463946BDE868
:10057000F08D0020054346EAE0762C4337430A9885
:100580006305E40AA0EB08000022FD0A44EA475490
:100590000A3002D500200146E9E70105101969413A
:1005A000DDE9084500196941BDE8F04DA4E72DE9F2
:1005B000FE4F804681EA0300C00F0C46009021F0F8
:1005C000004123F00045B8EB0200A94105D24046A6
:1005D000214690461C460B46024623F0004010433D
:1005E00047D0270DC7F30A00C3F30A510290401AFF
:1005F000019040286BDAC3F3130040F4801B00988D
:10060000924620B10023D2EB030A63EB0B0B019857
:100610005946C0F14002504600F01EF906460D460C
:1006200050465946019A00F036F910EB0800614136
:10063000002487EA115284EAE7731A4340D0009AF3
:1006400062B3019A012A4FEA075215DC001B61EBE5
:1006500002014FF0004202EA0752CDE90042001CBD
:1006600041F5801132462B46FFF753FF03B0BDE83A
:10067000F08F40462146F9E7001B61EB0201001CA8
:1006800041F5801300185B412018A2F5001747EBD5
:10069000030140EAD570B6196D4111E06D084FEACB
:1006A000360645EAC0754FEA0752001B61EB0201AE
:1006B000001C41F5801149084FEA300000195141F2
:1006C00032462B4603B0BDE8F04FFFF715BF009848
:1006D000012240000023D0EB020263EBE07300989C
:1006E00021464FEAE074B8EB000061EB0401E9E752
:1006F00083F000435BE781F0004158E72DE9F04DBE
:1007000081EA030404F0004B21F0004514464FF049
:10071000000A23F0004150EA050220D054EA010209
:100720001DD0C5F30A570246C5F31303C1F31300E6
:10073000C1F30A5640F4801543F48013A7EB060872
:10074000101BD64608F2FD3873EB050002D308F102
:10075000010801E092185B41B8F1000F03DA0020B4
:100760000146BDE8F08D00204FF480110646844616
:100770000EE0171B73EB050705D3121B63EB050394
:1007800006434CEA010C49084FEA300092185B41DD
:1007900050EA0107EDD152EA030012D082EA0400C8
:1007A00083EA0501084305D0101BAB4106D20122A4
:1007B000002306E000224FF0004302E06FF0010248
:1007C00053101AEB06004CEB085110EB0A0041EBFA
:1007D0000B01BDE8F04DFFF78FBEC1F30A52C1F324
:1007E000130140F2FF3341F480119A4202DA0020F3
:1007F0000146704740F233439A42A2F2334202DC90
:10080000524200F038B800F027B8000030B5002997
:1008100004DB4FF00044404264EB0101002B04DB99
:100820004FF00044524264EB0303994208BF9042E8
:1008300030BD0000064C074D06E0E06840F00103C3
:1008400094E8070098471034AC42F6D3FFF7A0FCB9
:10085000F03C0008103D0008202A04DB203A00FA92
:1008600002F1002070479140C2F1200320FA03F307
:10087000194390407047202A04DB203A21FA02F005
:100880000021704721FA02F3D040C2F120029140CA
:10089000084319467047202A06DBCB17203A41FA55
:1008A00002F043EAE07306E041FA02F3D040C2F1FD
:1008B000200291400843194670470029816802D000
:1008C00041F0010101E021F0010181607047000069
:1008D000084B10B5D3F8042307490A40D0E90014A7
:1008E0002143D0E90240044321431143C3F80413D8
:1008F00010BD000000200140E030FCFF00298168AD
:1009000002D041F4807101E021F480718160704770
:100910000029816802D041F4007101E021F40071E6
:100920008160704730B542680F4B0C791A400B68F4
:1009300042EA04221343436082680C4B4D791A400B
:10094000D1E9034323438C6844EA4504234313431A
:100950008360C26A097D22F47002491EC9B242EA6C
:100960000151C16230BD0000FFFEFFFCFDF7FFC07A
:1009700070B5072609290AD9C568A1F10A0404EB54
:100980004404A640B543A3401D43C56007E0056984
:1009900001EB4104A640B543A3401D4305611F235D
:1009A000072A09D2446B521E02EB820293409C43F9
:1009B00091400C43446370BD0D2A09D2046BD21FD1
:1009C00002EB820293409C4391400C43046370BD50
:1009D000C46A0D3A02EB820293409C4391400C435F
:1009E000C46270BD816841F0804181607047FEE75C
:1009F0001CB50121102001F019FA0F4C01220E2123
:100A0000204600F0F9F902218DF8041000218DF83C
:100A100006108DF8071003208DF805004FF4804074
:100A200000906946204600F0ABF900F075FBBDE888
:100A30001C4000F003B800000010024030B5012156
:100A400089B0084601F016FA5A2006903B2000248F
:100A5000ADF814001E4DADF81C40ADF816408DF8F1
:100A60001E4005A9284601F069FE6020ADF800008F
:100A70000120ADF80200ADF80C406946284602940A
:100A800001F034FD0821284601F060FD6946284642
:100A900001F062FD0821284601F09EFD69462846C6
:100AA00001F0A4FD0821284601F0DEFD6946284634
:100AB00001F0E0FD0821284601F00CFE0121284646
:100AC00001F0C8FB0121284601F0CEFB09B030BD82
:100AD000000001400029016802D041F0010101E05D
:100AE00021F001010160704730B50368124ACC68FB
:100AF00013400A682243D1E905452C432243CC69BF
:100B000022430C6A22434C6A22438C6A22434C6B78
:100B100022438C6B22431A430260426922F007038E
:100B2000D1E90B2422431A4342610A6942604A68B0
:100B300082608968C16030BD3F801CF07047000052
:100B40007CB501210C2001F071F91E4C0222072115
:100B5000204600F051F902220621204600F04CF90F
:100B6000194D02220D21284600F046F902220C21DF
:100B7000284600F041F902218DF8041000218DF87B
:100B8000061001208DF8070003208DF80500802055
:100B900000906946204600F0F3F840200090694636
:100BA000204600F0EDF84FF40050009069462846CA
:100BB00000F0E6F8A01400906946284600F0E0F83E
:100BC0007CBD000000080240000C024010B5FFF799
:100BD000B7FFBDE8104000F001B8000030B587B0A5
:100BE0000121062001F02EF9284C204601F048FB97
:100BF000274D284601F044FB684601F0DDFD002149
:100C00004FF6FE70ADF800100190ADF80210ADF88F
:100C100008106946204601F091FD6946284601F01A
:100C20008DFD00231A460321204601F0D1FB00234D
:100C30001A460321284601F0CBFB03A801F045FC2E
:100C40000620ADF8140003A9204601F0E8FB03A933
:100C5000284601F0E4FB0121204601F0F5FA0121CC
:100C6000284601F0F1FA0021204601F03DFD002167
:100C7000284601F039FD0121204601F0EBFA01215F
:100C8000284601F0E7FA07B030BD0000000400403C
:100C9000000800402DE9F041314801F0B2FB314C31
:100CA0004FF40047C7F10008A061216A411A216092
:100CB0002062B94202DBA1F5803103E0414502DC4C
:100CC00001F58031216008460546FFF757FB9FED8F
:100CD000261B53EC112BFFF7DFFAFFF773FBA06025
:100CE0002069401B206100D54042214D0026A842CA
:100CF00000DD26611F4801F084FBE061616A411A52
:100D000061606062B94202DBA1F5803103E04145D8
:100D100002DC01F58031616008460746FFF72EFBD3
:100D20009FED151B53EC112BFFF7B6FAFFF74AFBAB
:100D300000EE100A84ED030A6069C019606100D5F5
:100D40004042A84200DD6661D4ED020A30EE800A1E
:100D5000F6EE000A20EE200A84ED0A0ABDE8F081D2
:100D6000000400403000002061545227A00922C036
:100D70000084D7170008004061545227A009224080
:100D8000F0B5002201274FF0030C0B6807FA02F5BB
:100D90002B40AB422CD1066853000CFA03F4A64357
:100DA00006600E79D0F800E09E4046EA0E06066026
:100DB0000E79012E01D0022E12D18668A6438660DC
:100DC0004E79D0F808E09E4046EA0E0686604668F6
:100DD000AE43466045688E799640B6B2354345606D
:100DE000C568A543C560CC799C40C3681C43C460FA
:100DF000521C102AC9D3F0BD4B07DB0E9A40C9081C
:100E000010B500EB8100016A0F249C40A1430162F0
:100E1000016A1143016210BD0246002012690A42B4
:100E200000D001207047FEE710B500F0D5FB0D485B
:100E300001F0CBFC00EE100A9FED0B1A0949B8EE49
:100E4000400A48600948C0EE010AC1ED020A90ED6F
:100E5000161A91ED030A01EE200A81ED030A80EDD6
:100E60001C0A10BDBC0000200024744900040020AE
:100E700000B500F045F80748C1680180016941806C
:100E8000416981808169C180C1690181016A4181B3
:100E900000BD0000640000207CB50121052000F0A9
:100EA000C5FF03208DF804000020134E8DF80700C5
:100EB0002024694630460094FFF762FF10256946FA
:100EC00030460095FFF75CFF80200C4E009069468D
:100ED0003046FFF755FF694630460095FFF750FF53
:100EE000694630460094FFF74BFF4020009069466A
:100EF0003046FFF745FF7CBD00080240000002407D
:100F000030B528490020C860086148618861C8611F
:100F10000862254B00EB4002D2B233F81240CD6894
:100F20002C44CC6003EB420254880D692C440C61C4
:100F300092884C6922444A61401CC0B23228E9D3ED
:100F40001A4B002000EB4002D2B233F812408D69F8
:100F50002C448C6103EB42025488CD692C44CC6153
:100F600092880C6A22440A62401CC0B23228E9D33B
:100F7000CA683220B2FBF0F2CA600A69B2FBF0F232
:100F80000A614A69B2FBF0F24A618A69B2FBF0F287
:100F90008A61CA69B2FBF0F2CA610A6AB2FBF0F078
:100FA000086230BD64000020E80000201402002028
:100FB00010B5FFF771FFBDE8104000F001B8000068
:100FC000F0B599B001214FF4407000F053FF0121BA
:100FD000880500F02BFF00244FF480600394CDE9D6
:100FE00005404000079080000890401109900AA930
:100FF0004002012581E83100424801904248434FB8
:101000000E94962602900D946946049600943846F4
:10101000FFF76AFD01213846FFF75CFD3C4801906F
:101020003C4804960290394E680630360090694676
:101030003046FFF759FD01213046FFF74BFD15946F
:101040001694179415A81894FFF742FC8DF8405099
:101050008DF841502B4D0F941194139403244C3D63
:101060008DF850400FA92846FFF75CFC8DF85040E2
:10107000274C0FA94C3C2046FFF754FC00230122CB
:101080000F212846FFF774FC002302220E21284678
:10109000FFF76EFC0023032207212846FFF768FCB8
:1010A0000023012204212046FFF762FC00230222D4
:1010B00005212046FFF75CFC002303220621204681
:1010C000FFF756FC01212846FFF722FC01212846A4
:1010D000FFF714FC01212846FFF7EFFB0121204612
:1010E000FFF716FC01212046FFF708FC01212046EE
:1010F000FFF7E3FB2846FFF775FC2046FFF772FC7D
:1011000019B0F0BD4C200140E800002010640240FE
:101110004C210140140200202DE9FC410121102046
:1011200000F084FE01208DF8040000208DF80600F8
:101130008DF8070003200D4C8DF805004FF4007664
:10114000694620460096FFF71BFEE71469462046D5
:101150000097FFF715FE3501694620460095FFF719
:101160000FFE668367836583BDE8FC810010024043
:101170002DE9FC5F01211B2000F058FE01248DF8B1
:10118000044000208DF806008DF8070003201F4F53
:101190008DF80500694638460094FFF7F1FD1C4DB7
:1011A0001026694628460096FFF7EAFD4FF0200812
:1011B00069462846CDF80080FFF7E2FD4FF48059DC
:1011C00069463846CDF80090FFF7DAFDDFF844B005
:1011D0004FF4004A69465846CDF800A0FFF7D0FD0D
:1011E000670269460C480097FFF7CAFD07481A30A6
:1011F00004806E83A5F81A80A0F80090ABF81AA0BE
:1012000005481A300780BDE8FC9F0000000402403A
:101210000010024000000240000C024010B59FED9B
:10122000271A04462DED068BB0EE609AC0EE090A2F
:1012300081EE200A01F0DEFB9FED21AAB0EE408A8C
:10124000B0EE4A0AFEF7BCFFF0EE009AF7EE00AAF5
:1012500020EE290AF0EE6A8AB5EEC09A84ED009A73
:1012600040EE088A48EE088AF1EE10FA23DD68EEB7
:10127000080A80EEA80A84ED030A60EE290AC4ED8C
:10128000040A84ED050AB0EE6A0A18EE080A20EE98
:10129000290AC0EE280AB0EE4A0AC4ED010AFEF798
:1012A0008FFF20EE290A40EE48AA48EE08AA8AEEEF
:1012B000A80A84ED020ABDEC068B10BDDB0F494085
:1012C000DB0F493F0020401CC0B20528FBD370470C
:1012D0002DE9F0470024104FDFF840A025464FF4D9
:1012E0008059012607F102086006040E3E80FFF7D0
:1012F000E9FF49465046FFF78FFD08B1641CE4B290
:10130000A8F80060FFF7DEFF6D1CEDB2082DEBD3EF
:101310002046BDE8F0870000180C0240000802409B
:1013200070B50D46044600F02DF800F0D9F82046BF
:1013300000F028F900F006F970B9284600F022F90B
:1013400000F000F940B900F0CBF844F0010000F0E3
:1013500019F900F0F7F830B107A001F027FB00F011
:10136000D9F8002070BDFFF7B3FF044600F0A2F8E3
:1013700000F0D0F8204670BDB6C1C8A1B4EDCEF3E0
:10138000200A000010B5044600F0C4F800F0A8F8E8
:10139000204600F0F7F800F0D5F80028F4D1BDE8B9
:1013A000104000F0B7B800002DE9F05F15460F4679
:1013B00006465C1CFFF7E6FF00F092F8304600F0AE
:1013C000E1F800F0BFF870B9384600F0DBF800F043
:1013D000B9F840B900F084F846F0010000F0D2F806
:1013E00000F0B0F8F8B119A001F0E0FA00F092F8BE
:1013F0000020BDE8F09F012C03D100F05BF800F065
:1014000089F8FFF765FF05F8010BA8F80060A9F857
:101410000070641EFFF756FFAAF80070ABF800607A
:10142000FFF750FF09E0DFF83080DFF83090012748
:101430003E0309F1020AA8F1020B002CDBD100F0F7
:1014400039F800F067F80120D3E70000B6C1C8A161
:10145000B4EDCEF3200A00001A080240180C024036
:1014600070B515460E46044600F03AF8204600F0E6
:1014700089F800F067F858B9304600F083F800F0BA
:1014800061F828B9284600F07DF800F05BF830B12B
:1014900005A001F08BFA00F03DF8002070BD00F0CF
:1014A00039F8012070BD0000B7A2CBCDB4EDCEF36A
:1014B000200A0000084910B54FF480500880074802
:1014C00001240480FFF7FEFE0448801C0480BDE870
:1014D0001040FFF7F7BE000018080240180C024049
:1014E00070B50A484FF480550580094801240480EE
:1014F000FFF7E8FE0548801C0580FFF7E3FE04487F
:10150000801C0480BDE87040FFF7DCBE1808024074
:10151000180C024070B5094E012434800848250398
:101520000580FFF7CFFE0648801E0580FFF7CAFE44
:101530003480BDE87040FFF7C5BE0000180C0240C3
:101540001A08024070B50D4801250580FFF7BAFE64
:101550002E0331460A48FFF75FFC08B1012400E082
:1015600000240648801C0580FFF7ACFE04481830B4
:101570000680FFF7A7FE204670BD0000180C024051
:10158000000802402DE9F05F114EDFF848A000246A
:10159000B514804606F1020901270AF1020B08FA88
:1015A00004F0000601D5358001E0A9F80050FFF7EE
:1015B00089FEAAF80070FFF785FEABF80070FFF710
:1015C00081FE641CE4B2082CE9D33580BDE8F09FAD
:1015D00018080240180C024010B50024174800F00B
:1015E00099F91649DFED160A1E3901EB4400B0F9EE
:1015F0001E00821D0C2A04D801EB8400C0ED0E0AE7
:101600000BE000EE100A91ED181A01EB8400B8EE21
:10161000C00AC0EE011AC0ED0E1A641CE4B2032C1D
:10162000E3D391ED0E0A81ED140A91ED0F0A81EDDD
:10163000150A91ED100A81ED160A10BD1E04002056
:10164000000000007CB5642001F097FF01210C2010
:1016500000F0ECFB02208DF8050001208DF806005B
:1016600000248DF807408DF80400009069462A4850
:10167000FFF786FB4FF48050284D009069462846BE
:10168000FFF77EFB8DF8064003208DF80500EC1473
:10169000694628460094FFF773FB20481A300480FF
:1016A0007521D020FFF73CFE80226B21D020FFF770
:1016B000D7FE642001F061FF03226B21D020FFF7E9
:1016C000CFFE00221921D020FFF7CAFE05221A21E1
:1016D000D020FFF7C5FE18221B21D020FFF7C0FE47
:1016E00010221C21D020FFF7BBFE03221D21D02099
:1016F000FFF7B6FE642001F040FF0A489FED080A9C
:1017000080ED170A9FED080A80ED180A9FED070A81
:1017100080ED190A7CBD0000000C02400008024068
:1017200000008045000400206F128341E02E6542D6
:1017300010B5F3EE090A2DED028B9FED1A8A1A48B7
:10174000B0EE480AFFF76AFD1748F3EE090AB0EE5B
:10175000480A2030FFF762FD1348F3EE090AB0EEA5
:10176000480A4030FFF75AFDDFED108A0E48B0EE10
:10177000480AF0EE680A6030FFF750FD0A48F0EEC4
:10178000680AB0EE480A8030FFF748FDF0EE680ABC
:10179000B0EE480ABDEC028B0348BDE81040A03013
:1017A000FFF73CBD0000C842400300200000344267
:1017B0002DE9FC5F00242546A946CA465646374611
:1017C000B84633A001F0F2F8DFF8E8B0DBF8141007
:1017D00081F02001CBF81410C82001F0CEFE641C6B
:1017E000E4B20A2CF2D32021ABF8181032A001F099
:1017F000DDF8DFF8D4B000240BF118000190801D53
:101800000090019800F068F8009800F083F8BBF9A8
:101810001C10BBF918200D44BBF91E1091440E4456
:10182000BBF92200BBF91A20BBF920108044924476
:101830000F440120A5F5805501F09FFE641CE4B221
:10184000642CDED3642199FBF1F2CBF800209AFBE3
:10185000F1F2CBF8042095FBF1F2CBF8082096FBCF
:10186000F1F2CBF80C2097FBF1F298FBF1F1CBE908
:1018700004210024FFF7B0FE0A2001F07EFE641C64
:10188000E4B20A2CF6D3BDE8FC5F10A001F08EB8DC
:101890000AD5FDD4DABDF8D0D0B4ABB8D0C6F7BD08
:1018A000C3D5FDA3ACC7EBCBAEC6BDB7C5D6C32071
:1018B00020200A00001002400ABFAACABCD0DED510
:1018C000FD2020200A000000000400200ABDC3D52E
:1018D000FDCDEAB3C90A00001CB5044606236A46DA
:1018E0003B21D020FFF760FDBDF8000041BA084859
:1018F0000288891A2180BDF80210828849BA891AA3
:101900006180BDF80410008949BA081AA0801CBD86
:10191000000400201CB5044606236A464321D0205B
:10192000FFF742FDBDF8000041BA08488289891AD4
:101930002180BDF80210028A49BA891A6180BDF877
:101940000410808A49BA081AA0801CBD0004002037
:10195000FEE7000010B53D482DED028B00F035FF8D
:1019600000EE100ADFED3A0A3A49B8EE400A80EE7E
:10197000208A18EE100A884201DDB7EE008A364C44
:10198000B0EE481ADFED350A94ED1C0A00F070F94C
:10199000334894ED160AB0EE481AD0ED000A00F074
:1019A0002FFA2A4C2F48B0EE481AD4ED020A90EDD7
:1019B000000A00F06FF92C48D4ED020A9FED2B1AB3
:1019C00090ED000A2A48002100EE810A84ED030A06
:1019D00084ED010AD0ED000A04F1100030EE601A27
:1019E000B5EEC01AF1EE10FA06DDBDEEC11A11EE29
:1019F000102A0280418007E030EEC01A0180BDEE5F
:101A0000C11A11EE102A428030EE200AB5EEC00A4B
:101A1000F1EE10FA05DDBDEEC00A10EE102A82804C
:101A200005E0BDEEC00A818010EE101A4942C18067
:101A30000BB2B0F90420B0F90210B0F90000BDEC0F
:101A4000028BBDE8104000F0ADB80000A4000020FB
:101A5000002474498FC2F53C0004002000000000FF
:101A6000CC00002058000020DC0000203333B33FBE
:101A7000D40000201CB50121084600F0E3F91C4CFD
:101A8000022201212046FFF7B7F902220021204659
:101A9000FFF7B2F9022203212046FFF7ADF9022237
:101AA00011462046FFF7A8F902228DF804200021F4
:101AB0008DF806108DF8071003208DF80500694693
:101AC00020460092FFF75CF901200090694620460D
:101AD000FFF756F90820009069462046FFF750F9B5
:101AE0000420009069462046FFF74AF91CBD00001B
:101AF0000000024010B5FFF7BDFFBDE8104000F048
:101B000001B8000070B588B00121082000F09AF9F2
:101B1000002440F2E730224E0690ADF81440ADF8B4
:101B20001C40ADF8164005A9304600F007FE6020C5
:101B3000ADF800000220ADF80C000125ADF8025010
:101B400069463046029400F0D1FC0821304600F08E
:101B5000FDFCADF8025069463046029400F0FCFCF2
:101B60000821304600F038FDADF802506946304695
:101B7000029400F03BFD0821304600F075FDADF801
:101B8000025069463046029400F074FD0821304648
:101B900000F0A0FD0121304600F05CFB08B070BDF4
:101BA000000C004010B54FF49674A34200DB2346AE
:101BB000A24200DB2246A04200DB2046A14200DB1D
:101BC0002146002B00DC0023002A00DC0022002834
:101BD00000DC0020002900DC0021054C2360231FCD
:101BE0001A60034A08321060101F016010BD000027
:101BF000380C00407047000030B50F23C2780178E0
:101C00000125FAB1144A126801F1E02102F4E06200
:101C1000C2F5E062C2F30722C2F10404D340427865
:101C2000A24084781C401443220181F800240078EB
:101C300000F01F018D404009800000F1E020C0F855
:101C4000005130BD01F01F0085404809800000F1BF
:101C5000E020C0F8805130BD0CED00E0024908439F
:101C600002490860704700000000FA050CED00E032
:101C7000F0EE601A00B5F0EE400AB0EE610A0348DB
:101C800000F01CF8024880ED000A00BD7804002036
:101C9000CC000020F0EE601A00B5F0EE400AB0EE85
:101CA000610A044800F00AF8034880ED030A80ED59
:101CB000040A00BDE8040020CC00002070EE600A99
:101CC000B6EE002A80ED060A20EE020AF0EEE01AD7
:101CD000C0ED070AF4EEC01AF1EE10FA90ED090A11
:101CE00003D200EE810A80ED090AD0ED0A1AB4EEA3
:101CF000E10AF1EE10FA06DCD0ED0B1AB4EEE10ABF
:101D0000F1EE10FA01D2C0ED091A90ED080A70EE5A
:101D1000C01A81EE810A80ED0C0A90ED001A21EEC6
:101D2000201A80ED031AD0ED011A90ED092A61EE18
:101D3000821AC0ED041A90ED022A31EE211A22EE29
:101D4000000A80ED050A31EE000AC0ED080A70476E
:101D5000DFED0A2AC0ED072AC0ED082AC0ED092AE6
:101D6000C0ED0C2A80ED060A80ED0A2AB1EE420A87
:101D700080ED0B0AC0EC030A704700000000000071
:101D80009FED1A3ADFED173A00B5B0EE632ADFEDAA
:101D9000161AB0EE431AF2EE0E0AB0EE430A1448D9
:101DA000FFF7D6FF9FED144A1148B0EE632ADFED2E
:101DB000111AB0EE441AF7EE000AB0EE430A3830BA
:101DC000FFF7C6FF0A48B0EE632ADFED0C1AB0EE4B
:101DD000441AF1EE040AB0EE430A70305DF804EBE9
:101DE000FFF7B6BF00009643CDCC4C3E000000008C
:101DF000780400200AD7233DCDCCCC3D0AD7233C24
:101E0000F0EE601A00B5F0EE400AB0EE610A044848
:101E1000FFF754FF034880ED010A80ED020A00BD80
:101E2000B0040020CC00002070470000044A0029C4
:101E3000116801D0014300E0814311607047000048
:101E400030380240044A0029116801D0014300E003
:101E5000814311607047000040380240044A002965
:101E6000116801D0014300E0814311607047000018
:101E700020380240044A0029116801D0014300E0E3
:101E8000814311607047000044380240044A002931
:101E9000116801D0014300E08143116070470000E8
:101EA0002438024070B5204B1968204C11F00C0109
:101EB00004D01F4E042903D0082903D004601BE07E
:101EC000066019E0184A121F1168C1F380551168A5
:101ED00001F03F0115B1B6FBF1F101E0B4FBF1F106
:101EE00014681268C4F388146143C2F30142521C9F
:101EF0005200B1FBF2F1016019680F2202EA1111E0
:101F00000C4A545C0168E14041601C68072505EA01
:101F10009424145D21FA04F484601B6805EA5333A9
:101F2000D25CD140C16070BD083802400024F4008A
:101F300040787D01000000207FB501214020FFF79F
:101F400081FF632001905320ADF800000024124D62
:101F5000ADF80840ADF802406946284600F0EEFBB7
:101F60002B208DF80C008DF80D4001218DF80E10FE
:101F70008DF80F1003A8FFF73FFE012211462846F7
:101F800000F0ABFA0021284600F0AEFB0121284604
:101F900000F060F97FBD0000001800402DE9F04717
:101FA00000231A4619461846FFF7FCFD234C244D22
:101FB00002E0012001F0E1FA2068C11700EB917006
:101FC000B5EBA00FF5DB1F484FF4805707801E4C80
:101FD0004FF4FA6502E0012001F0CFFA2068A84230
:101FE000F9DB1A4E4FF40049A6F818907415184DF5
:101FF000DFF8608040F6B83A07E06C83052001F016
:10200000BCFA2C83012001F0B8FAB8F80010514551
:10201000F3D3DFF8308008F10208A8F80070A6F8C2
:102020001A906C8310242C83C82001F0A6FA01209A
:10203000A8F800006C83BDE8F08700004000002095
:102040000CFEFFFF18040240440000200000024084
:1020500000100240E800002070473EB5012108460C
:10206000FFF7F0FE4FF0FF3001905320ADF8000075
:102070000020ADF80800ADF802004FF0804469463A
:10208000204600F05BFB0021204600F02DFB0121E3
:10209000204600F0DFF83EBD0CB500222749009233
:1020A0000192086840F4803008604FF4A04308684B
:1020B00000F4003001900098401C0090019810B985
:1020C00000989842F3D10868800334D5012001902C
:1020D0001A484030026842F0805202601848026894
:1020E00042F440420260154808300268026002680B
:1020F00042F400420260026842F4A0520260031FF0
:10210000104A1A600A6842F080720A600A689201F6
:10211000FCD50D4940F205720A60016821F0030107
:102120000160016841F0020101600168C1F38101B1
:102130000229FAD10CBD01920CBD0000003802400A
:102140000070004019544007003C024070470000F6
:10215000124810B5016841F470010160104801682F
:1021600041F0010101600E4A00210832116002684D
:102170000C4B1A400260031D0B4A1A60026822F4DD
:102180008022026006480C300160FFF785FF03499A
:102190004FF000608039086010BD000088ED00E05D
:1021A00000380240FFFFF6FE1030002470B5048CAA
:1021B00024F001040484058B048C4FF6FF7606EAB4
:1021C0000313134325F0F3052B4324F00A020A43BB
:1021D00042F001010383018470BDF0B5048C24F04A
:1021E00010040484078B068C4FF6FF7404EA011573
:1021F00027F4734704EA0331394304EA02220A430D
:1022000026F0A001294341F0100102830184F0BDB2
:1022100010B50B4C0121204600F0F5F800280DD038
:102220000121204600F013F8FEF734FD054801783F
:10223000012903D141808188491C818010BD0000A3
:10224000001800405C000020C94301827047C94368
:10225000018270470029018802D041F0010101E0AC
:1022600021F0010101807047002930F8441F02D09D
:1022700041F4004101E0C1F30E010180704700000C
:10228000464910B5884206D101210846FFF7FEFDF8
:10229000002101205BE0B0F1804F09D04049884225
:1022A0000DD101210220FFF7D9FD0021022070E0AD
:1022B00001210846FFF7D2FD0021012069E03949DC
:1022C000884206D101210420FFF7C8FD0021042027
:1022D0005FE03549884206D101210820FFF7BEFDA5
:1022E0000021082055E03149884206D10121102003
:1022F000FFF7B4FD002110204BE02D49884206D1A4
:1023000001212020FFF7AAFD0021202041E02949DA
:10231000884206D101210220FFF7B8FD00210220EA
:1023200015E02549884202D101210C040AE0234925
:10233000884202D101214C0404E0214988420AD19B
:1023400001218C042046FFF7A1FD00212046BDE8B5
:102350001040FFF79BBD1B49884206D10121402058
:10236000FFF77CFD0021402013E01749884206D189
:1023700001218020FFF772FD0021802009E0134930
:1023800088420AD1841501212046FFF767FD00210C
:102390002046BDE81040FFF761BD10BD00000140C0
:1023A0000004004000080040000C00400010004005
:1023B000001400400004014000400140004401407E
:1023C0000048014000180040001C00400020004070
:1023D00070B50589048B068C25F007050D434FF673
:1023E000FC410C4040F201110C434FF6FF7101EA31
:1023F000031126F022061143314305810483018431
:1024000070BD406A704702460020138A92890B42D1
:1024100002EA010202D0002A00D0012070472DE913
:10242000F0410C460E884988A2882389054616B3D8
:10243000042E28D0082E2E8C4FF6FF702BD026F4B9
:1024400080562E84AF8B2E8C00EA022200EA0131E6
:1024500027F473473A4300EA0330104326F420423E
:102460000A4342F48051A8832984E1882846BDE8C4
:10247000F04100F057B9FFF799FEE1882846BDE822
:10248000F04100F033B9FFF7A8FEE1882846BDE827
:10249000F04100F033B926F480762E84AF8B2E8C79
:1024A00000EA012100EA0310104327F0F307384344
:1024B00026F420620A4342F48071A8832984E188CB
:1024C0002846BDE8F04100F025B900210180418097
:1024D00001228280C18001817047002A828901D057
:1024E0000A4300E08A4382817047000030B5028CC5
:1024F00022F001020284028C8388048B22F0020203
:1025000024F073050C882C438D8915434A882A438F
:102510000C4DA84202D00C4DA8420DD122F0080566
:10252000CA8923F440732A4322F004058A882A4387
:102530000D8A1D434B8A2B43838004838968416342
:10254000028430BD0000014000040140028B22F0F3
:1025500008020A430283704770B5028C22F0100211
:102560000284028C8388048B0D8824F4E6464FF69F
:10257000FF7404EA052535438E8922F0200204EA1F
:10258000061616434A8804EA02123243104EB0423D
:1025900002D0104EB04215D122F08006CA8923F431
:1025A000406304EA0212324322F040068A8804EAB9
:1025B000021232430E8A04EA86061E434B8A04EA5C
:1025C000830333438380058389688163028470BDFC
:1025D0000000014000040140028B4FF6FF7322F41B
:1025E000006203EA012111430183704770B5028C38
:1025F00022F480720284028C8388848B0D8824F0FC
:10260000730425438E894FF6FF7422F4007204EAA6
:10261000062616434A8804EA02223243104EB0428C
:1026200002D0104EB04215D122F40066CA8923F4BC
:10263000405304EA0222324322F480668A8804EA84
:10264000022232430E8A04EA06161E434B8A04EA2B
:1026500003133343838085838968C163028470BD1B
:102660000000014000040140828B22F008020A436E
:102670008283704770B5028C22F480520284058CEC
:102680008288838B0C8823F4E6464FF6FF7303EAB7
:102690000424344325F400568D8903EA0535354377
:1026A0004E8803EA06362E43084DA84202D0084D54
:1026B000A84205D122F480450A8A03EA82122A43FD
:1026C0008280848389680164068470BD00000140B3
:1026D00000040140828B4FF6FF7322F4006203EA8C
:1026E000012111438183704741627047028B22F0C0
:1026F0000C020283028B0A4302837047028B22F48E
:1027000040620283028B4FF6FF7303EA01210A4302
:1027100002837047828B22F00C028283828B0A43F1
:1027200082837047828B22F440628283828B4FF6D1
:10273000FF7303EA01210A438283704730B50288A0
:10274000164C174DA0420DD0A8420BD0B0F1804FCF
:1027500008D0144B984205D0134B984202D0134B2B
:10276000984203D122F070034A881A43104B9842D2
:1027700006D0104B984203D022F440730A891A43C2
:1027800002804A68C2620A880285A04201D0A8423B
:1027900001D1897A01860121818230BD000001408A
:1027A000000401400004004000080040000C00400C
:1027B00000100040001400404FF0FF314160002144
:1027C0000180018141808172704710B504464FF04D
:1027D0008040FFF716FE21682060401A10BD0000FF
:1027E00070B5012188B00846FFF720FB01211020B9
:1027F000FFF740FB284E072209213046FEF7FCFA7E
:1028000007220A213046FEF7F7FA03208DF805006B
:1028100000248DF8064002208DF8040000020125F6
:1028200000908DF8075069463046FEF7A9FAA802D5
:10283000009069463046FEF7A3FA4FF4E130ADF858
:102840000C400290ADF80E40ADF81040ADF81440C9
:102850000C20124CADF8120002A9204600F04AF8F4
:102860004FF4C060FFF7FAF925208DF818008DF8B5
:1028700019508DF81A508DF81B5006A8FFF7BCF9B7
:10288000012240F22551204600F01BF8012120468C
:1028900000F006F808B070BD0000024000100140D2
:1028A0000029818902D041F4005101E021F4005156
:1028B000818170470246002012880A4200D0012020
:1028C000704710B5C1F3421301F01F040121A1406C
:1028D000012B07D0022B07D01430002A026805D044
:1028E0000A4304E00C30F8E71030F6E78A43026050
:1028F00010BD00007FB50446008A0D46C98820F44B
:10290000405001432182A08941F20C618843A9888B
:102910002A8911436A8902431143A181A08A20F4C4
:102920004071A8890843A0826846FFF7BBFA1A489D
:10293000844202D01948844201D1039800E00298F1
:10294000A189090400EBC00101EB0010296801D541
:10295000490000E08900B0FBF1F06422B0FBF2F125
:1029600009010B096FF018056B4300EB8300A38985
:102970001D044FF0320306D503EBC000B0FBF2F0AC
:1029800000F0070005E003EB0010B0FBF2F000F0F0
:102990000F00084320817FBD00100140001401405A
:1029A000C1F3080181807047FEE700000FB4054BBA
:1029B00010B503A9044A029800F048FA10BC5DF86B
:1029C00014FB000095350008E000002041000802DB
:1029D00018BF04200A0E18BF40F001004FF07F42DC
:1029E00032EA010108BF40F00200012808BF0520BB
:1029F0007047000000B510EE101A2DED028B81B06B
:102A00004B4A6846B2EB410F3CD94FF0E640B0EB81
:102A1000410F94BF00204FF0FF3000900098B0EEBF
:102A2000408A00285FDB28EE080ADFED420A9FEDAE
:102A3000421A00EE201ADFED410A10F0010F40EEBD
:102A4000010A9FED3F1A00EE201ADFED3E0A40EE2C
:102A5000010A9FED3D1A00EE201A61EE000AB0EE69
:102A6000480A08EE200A02BF01B0BDEC028B00BD8F
:102A7000BFEE001A01B0C1EE000ABDEC028BB0EE51
:102A8000600A00BD314B21F00042934228D911F079
:102A9000004FDFED2F0A20EE201ADFED2E0A19BFBE
:102AA00031EE601A71EE200A31EE201A71EE600AE2
:102AB000BDEEE01A11EE100A9FED271A00F0030098
:102AC00000EEC10A9FED251A009000EEC10A9FEDAD
:102AD000241A00EEC10A9FED231A00EEC10A9DE7F9
:102AE00000F04CF89AE718EE100A4000B0F17F4F62
:102AF00088BF38EE080A0DD218EE100AFFF766FFFD
:102B0000042808BF00F032F8B0EE480A01B0BDEC6E
:102B1000028B00BD1EBF01B0BDEC028B00BD0120C9
:102B200000F0DCF8DFED100A80EEA00AEEE700000E
:102B3000B61F927EBBE9223C0C6D063B8A76CE3CEA
:102B4000ACB5593D35A1083E29AAAA3E490E4946D1
:102B500083F9223F0000004B0000C93F00A0FD396F
:102B60000020A2331A61342C000000009FED020AFD
:102B700020EE000A70470000000000102DE9F0016F
:102B80004FF07F42B2EB410F9FBF4FF0FF3101602A
:102B9000BDE8F00170474FF0004242EA0123C1F363
:102BA000C752783A541102F01F023E4DC2F1200C78
:102BB0007D4455F8246005EB840596406C6824FA42
:102BC0000CF73743AE68944026FA0CF8ED6806FA25
:102BD00002F225FA0CFC42EA0C0644EA0804A7FBC0
:102BE00003C5A4FB0342A6FB03631C449C4234BF01
:102BF0000126002602EB0C03334416B1934202D99E
:102C000003E0934201D2012200E000222A4402F1B3
:102C1000200C9206DD0C42EA453200EE102A5B03DE
:102C2000DFED210AF8EEC01A00EE103A4FEA9C1CC4
:102C300011F0004FB8EE400AC0F800C020EE201A94
:102C400000EE104ADFED190AB8EE400A20EE202A05
:102C500031EE810A30EE020A10EE102A02F500620F
:102C60006FF30B0200EE902A30EEE10ADFED111A4D
:102C700030EE410A32EE401A9FED0D0A20EE800A36
:102C800001EE210A9FED0C1A00EE810A04BFBDE897
:102C9000F0017047CCF180510160BDE8F001B1EE68
:102CA000400A70471C110000000000360000802C14
:102CB00022AAFD29DB0FC92F0000C92F02E008C896
:102CC000121F08C1002AFAD170477047002001E0A6
:102CD00001C1121F002AFBD17047000001490860A2
:102CE00070470000E40000202DE9FF5FDDE90220CD
:102CF000010DDDF838B0024318D044F61050A1F2AF
:102D0000FF3141430D140F98012820D0A5EB0B0093
:102D1000401C5FEA000A4FF00004474EDFF81C91A8
:102D2000A046504616D5CAF1000728E00F980124A6
:102D300043A2012808D0002100980F9BC0E9002180
:102D4000C0E90243BDE8FF9F6FEA0B01F4E7CBF156
:102D50000000DEE7074612E0F80707D022463346B8
:102D600040464946FDF798FA804689462246334652
:102D700010461946FDF790FA04460E467F10002FC4
:102D8000EAD1DDE90201BAF1000F42464B4602DA10
:102D9000FDF782FA01E0FDF7B1FC04460E46002281
:102DA000284BFDF733FD03D84FF0FF30014607E015
:102DB0000022254B20463146FDF7F9FBFDF70DFDBE
:102DC000102409E0002C0ADB0A220023FDF72CFB6B
:102DD000019B30321A55641E50EA0102F2D1641C84
:102DE000019AC4F1110314440F9A012A03D001225D
:102DF00008430DD10AE0084304D000204FF0110B26
:102E00000F9080E7A3EB0B056D1E0DE05B4504DD25
:102E10004FF0000205F1010504E003DA4FF0000273
:102E2000A5F10105002AECD000980F99C0E9023104
:102E3000C0E9004586E70000000024400000F03FA4
:102E4000300000000000F0430000E03F2DE9FF4F9C
:102E500095B09B468946064600250FE2252877D186
:102E600000242746F84A0121059400E0044316F89F
:102E7000013F203B01FA03F01042F7D130782A28B5
:102E800011D06FF02F033078A0F13002092A16D844
:102E9000059A44F0020402EB820203EB4202104462
:102EA000761C0590EFE759F8042B0592002A03DA07
:102EB000504244F40054059044F00204761C3078EB
:102EC0002E2816D116F8010F44F004042A280DD03C
:102ED0006FF02F023078A0F13003092B09D807EBEF
:102EE000870302EB4303C718761CF3E759F8047B0A
:102EF000761C30786C280FD006DC4C2817D0682858
:102F00000DD06A2814D104E0742810D07A280FD18B
:102F10000DE044F400140AE044F4801401E044F4A9
:102F200040147278824202D104F58014761C761C1B
:102F3000307866280BD013DC582877D009DC0028BD
:102F400075D04528F6D04628F4D047281AD19DE1FF
:102F500018E0632835D0642879D0652812D195E12E
:102F6000702873D008DC6728F1D069286FD06E28EC
:102F70000DD06F2806D1B5E073282CD0752875D0F8
:102F8000782874D05A46179990476D1C75E1C4F3A0
:102F90000250022809D003280DD0D9F800100428C7
:102FA0000DD00D6009F1040967E1D9F80010EA17A6
:102FB000C1E90052F6E7D9F800100D80F2E70D7074
:102FC000F0E719F8041B8DF8001000208DF80100BF
:102FD000EA46012003E059F804AB4FF0FF306107E7
:102FE0004FF0000102D40DE008F101018846B9421A
:102FF0000FDA8045F8DB1AF808100029F4D108E050
:1030000008F1010188468142FADB1AF8081000290C
:10301000F6D105985B46A0EB080721463846179A7B
:1030200000F094FA284400EB080507E04DE029E1A0
:103030000DE01AF8010B5A4617999047B8F10108AC
:10304000F7D25B4621463846179A13E142E00A223E
:103050000092C4F302524FF0000A022A08D059F835
:1030600004CB032A4FEAEC710AD00DE029E02AE0F4
:1030700009F1070121F00702F2E802C1914609E0D7
:103080000FFA8CFC4FEAEC71042A03D14FFA8CFC46
:103090004FEAEC71002907DA0A460021DCF1000C46
:1030A00061EB02012D2202E0220504D52B228DF8CE
:1030B0000420012203E0E20701D02022F7E7904636
:1030C00059E00A2102E010220DE010214FF0000A21
:1030D00000910BE010224FF0000A44F0040408278E
:1030E000009203E008224FF0000A0092C4F302525B
:1030F000022A05D059F804CB0021032A08D009E0A0
:1031000009F1070121F00702F2E802C1914605E04A
:103110001FFA8CFC042A01D10CF0FF0C4FF00008C0
:10312000220728D5702806D0009B83F0100353EAAD
:103130000A0305D00EE040228DF80420012208E0A9
:103140005CEA010206D030228DF804208DF80500DB
:1031500002229046009B83F0080353EA0A030AD137
:103160005CEA010201D1620705D530228DF8042006
:103170004FF001087F1E582804D034A003900EA8F9
:1031800002900DE036A0F9E753466046009AFDF73D
:103190004BF984460398825C0298401E02900270AC
:1031A0005CEA0100F0D1029806A9081A00F1200A91
:1031B000600702D524F4803400E00127574502DD82
:1031C000A7EB0A0000E0002000EB0A010090059840
:1031D0004144401A0590E00306D45B462146179A05
:1031E000059800F0B3F90544002706E001A85A4607
:1031F000C05D179990476D1C7F1C4745F6DBE003C7
:103200000CD55B462146179A059800F09FF90544B6
:1032100004E030205A46179990476D1C0099481ECB
:1032200000900029F5DC08E0029802995A460078DF
:10323000491C0291179990476D1CBAF10001AAF13F
:10324000010AF1DC65E10000092801003031323368
:1032500034353637383961626364656600000000D2
:1032600030313233343536373839414243444546BC
:103270000000000000F058F90544761C3078002862
:103280007FF4ECAD19B02846BDE8F08F620700D49A
:10329000062709F1070222F0070CFCE80223E146A9
:1032A00003F000485FEA080C02D00FF2702C0DE02A
:1032B0005FEA045C02D50FF2682C07E05FEAC47C89
:1032C00002D00FF2602C01E0AFF2700C4FF0FF382B
:1032D00023F00043CDF850C065280CD006DC45280B
:1032E00009D046281DD047283DD13DE0662818D09A
:1032F00067287ED138E00021112F01DB112000E08A
:10330000781CCDE9000106A90EA8FFF7EDFCDDE968
:103310000F010E9A03910021009207F1010A049116
:103320004DE04FF000400097CDE9011006A90EA82E
:10333000FFF7DAFCDDE90F0203920E9B11990022E0
:10334000DDF80CA00093049211B9791C00EB010A7E
:10335000B7EB0A0004D4C0F1FF3007F1010A049072
:10336000AAEB0700019044E0012F00DA01270021B9
:10337000112F01DD112000E03846CDE9000106A93A
:103380000EA8FFF7B1FCDDE90F010E9A03910021B1
:1033900004910092BA4621070CD40399514500DAF2
:1033A0008A46BAF1010F05DD009AAAF10101515CCC
:1033B000302908D0B84202DA10F1040F06DA0121F0
:1033C000CDE9011015E0AAF10101E9E7002805DCCB
:1033D000049901440491AAEB000102E0411C51450B
:1033E00000DD8A460499401A401C01904FF00040CD
:1033F0000290200704D40198504501DBCDF80480E9
:1034000000208DF84F0002980DF14F07B0F1004FEA
:1034100025D02B200E9002984FF0020800280CDADD
:10342000404202902D200E9007E00A210298FCF7FE
:10343000E5FF3031029007F8011DB8F10001A8F155
:103440000108F2DC02980028EFD1791E0E9808706E
:10345000307800F0200040F0450007F8020D12A877
:10346000C01B00F107081498007800B1012000EBA0
:103470000A01019801EBE07105984144401A401E91
:103480000590E00306D45B462146179A059800F0A4
:103490005DF805441498007818B15A46179990477A
:1034A0006D1CE00324D55B462146179A059800F071
:1034B0004DF805441CE00498002807DBDDE9030112
:1034C000884203DD0098405C179901E0179930208D
:1034D0005A469047049805F10105401C0490019854
:1034E000401E019004D12E205A46179990476D1C1A
:1034F000BAF10001AAF1010ADDDC05E017F8010BC1
:103500005A46179990476D1CB8F10001A8F10108BF
:10351000F4DC5B462146179A0598ABE62D000000C7
:103520002B000000200000002DE9F041044600259A
:103530001E461746880404D405E039462020B047CB
:103540006D1C641EF9D52846BDE8F0812DE9F041D7
:10355000044600251E469046C80301D5302700E0EA
:103560002027880404D505E041463846B0476D1C45
:10357000641EF9D52846BDE8F081002248F24033A8
:1035800004E00021491C9942FCD3521C8242F8D32A
:103590007047000070B5074D0446C1B22846FFF7DA
:1035A000FFF980212846FFF785F90028F9D0204649
:1035B00070BD00000010014086B03220FFF7DDFF33
:1035C000FFF70EF9FDF702FBFDF7D2FDFEF73AF823
:1035D000FEF7AEF8FDF7ECFCFEF73FFDFEF7ACFCA6
:1035E000FEF788FAFEF7CCFBFDF702FA4FF47A708B
:1035F000FFF7C3FFFEF7D2FCFEF7DAF8924D20206A
:1036000028836883914801210180914A002010603D
:10361000904A9FED910ADFF84CB210608F484F023C
:103620004FF4006880ED000A8D484FF40059017096
:103630008D4801880129FBD18C4E002404807088BC
:10364000401C70803078B8B102287DD00328EFD1BB
:10365000202028836F83A5F81A80A5F81A909FED83
:10366000840A7E48DFF80C92B04680ED000ADFF84D
:1036700008A2DFF808B2D8E0FDF7FAFB707801285D
:1036800004D0022812D0032867D13BE07C4801888F
:103690007648083001807B480188744814300180E6
:1036A0002F83A5F81A80A5F81A905EE07448028866
:1036B0006E49DFF8D0A10E310A80BAF800200C3133
:1036C0000A806F83A5F81A80A5F81890A1F112025C
:1036D0000088118802F10C03401A00B25080B3F840
:1036E00000C0BAF800100028A1EB0C0109B2598003
:1036F00000DC5480002900DC5C8050889080588871
:10370000988032E06F83A5F81A80A5F81A90574B7D
:10371000DFF874E10E331A88BEF8001003F10C0ACA
:10372000891A09B25980BAF800C0BBF800200029F4
:10373000A2EB0C0212B2D446AAF8022000DC5C8094
:103740006146002A02DC00E01AE04C80BEF800204E
:103750009A80BBF80020ACF804206F83A5F81A808B
:10376000A5F81A90062800D1747070880521B0FB66
:10377000F1F201FB120000287FF45AAF022018E09A
:103780007078A246414C401C7070A4F800A0FDF770
:103790004BFBFEF7DFF80120FFF7EFFE3348083060
:1037A0008088FA2807D9314814308088FA2802D94D
:1037B000032030703CE72D480E308088FA284FF403
:1037C000805001D9214901E02049891C08802748FF
:1037D0002F491A308088FA284FF4004001D9088315
:1037E00000E048832088708086F800A020E7FEF77C
:1037F000B1F8DAF80000FCF7D2FD06460F46206863
:10380000FCF7CDFD04460D46DBF81C00FCF7C7FDB8
:1038100041EC100BD8F8040053EC102BCDE90370E9
:103820008DE870001BA0FFF7C1F899ED000A4C4627
:10383000B5EEC00AF1EE10FAD9DC00231A4619469B
:103840001846FEF7AFF9FEE70010024018040240E8
:10385000400000204400002000008C42AC0000200A
:103860005C0000206E0000205E00002010000020A0
:103870000000000058000020DC000020E8040020C8
:10388000640000206A000020680000206000002022
:10389000000002406572723D25332E3266202020E2
:1038A0002020763D25332E326620202020746F3D67
:1038B00025332E3266202020202535640A000000A2
:1038C00043EC7F3F0000803F43EC7F3F0FB17F3FE1
:1038D0006D4E7F3F6DC47E3F24137E3FAC3A7D3FEB
:1038E000283B7C3FBE147B3F9DC7793FF853783F10
:1038F00007BA763F0BFA743F4714733F0809713FCC
:103900009ED86E3F5E836C3FA7096A3FD86B673FC6
:1039100059AA643F98C5613F05BE5E3F1A945B3F5C
:103920005348583F31DB543F3D4D513F029F4D3F7F
:1039300012D1493F03E4453F70D8413FF9AE3D3FC6
:103940004268393FF304353FBB85303F4AEB2B3F9C
:103950005636273F9967223FD17F1D3FC07F183FD2
:103960002A68133FDA390E3F9BF5083F3D9C033F21
:10397000275DFC3EEA5AF13E7533E63E80E8DA3ECA
:10398000CA7BCF3E15EFC33E2A44B83ED47CAC3E42
:10399000E59AA03E31A0943E938E883ECCCF783EEF
:1039A000135C603EC2C5473EA2102F3E8340163EC8
:1039B00073B2FA3D36BDC83D05A9963D30FB483D82
:1039C000B00AC93C0BA88C24B00AC9BC30FB48BD66
:1039D00005A996BD36BDC8BD73B2FABD834016BEFB
:1039E000A2102FBEC2C547BE135C60BECCCF78BE4E
:1039F000938E88BE31A094BEE59AA0BED47CACBEA6
:103A00002A44B8BE15EFC3BECA7BCFBE80E8DABE7B
:103A10007533E6BEEA5AF1BE275DFCBE3D9C03BF8E
:103A20009BF508BFDA390EBF2A6813BFC07F18BFE5
:103A3000D17F1DBF996722BF563627BF4AEB2BBFE8
:103A4000BB8530BFF30435BF426839BFF9AE3DBF17
:103A500070D841BF03E445BF12D149BF029F4DBF9B
:103A60003D4D51BF31DB54BF534858BF1A945BBF23
:103A700005BE5EBF98C561BF59AA64BFD86B67BF5A
:103A8000A7096ABF5E836CBF9ED86EBF080971BF6D
:103A9000471473BF0BFA74BF07BA76BFF85378BFE9
:103AA0009DC779BFBE147BBF283B7CBFAC3A7DBFAE
:103AB00024137EBF6DC47EBF6D4E7FBF0FB17FBF2D
:103AC00043EC7FBF000080BF43EC7FBF0FB17FBFDF
:103AD0006D4E7FBF6DC47EBF24137EBFAC3A7DBFE9
:103AE000283B7CBFBE147BBF9DC779BFF85378BF0E
:103AF00007BA76BF0BFA74BF471473BF080971BFCA
:103B00009ED86EBF5E836CBFA7096ABFD86B67BFC4
:103B100059AA64BF98C561BF05BE5EBF1A945BBF5A
:103B2000534858BF31DB54BF3D4D51BF029F4DBF7D
:103B300012D149BF03E445BF70D841BFF9AE3DBFC4
:103B4000426839BFF30435BFBB8530BF4AEB2BBF9A
:103B5000563627BF996722BFD17F1DBFC07F18BFD0
:103B60002A6813BFDA390EBF9BF508BF3D9C03BF1F
:103B7000275DFCBEEA5AF1BE7533E6BE80E8DABEC8
:103B8000CA7BCFBE15EFC3BE2A44B8BED47CACBE40
:103B9000E59AA0BE31A094BE938E88BECCCF78BEED
:103BA000135C60BEC2C547BEA2102FBE834016BEC6
:103BB00073B2FABD36BDC8BD05A996BD30FB48BD80
:103BC000B00AC9BC372354A5B00AC93C30FB483DF4
:103BD00005A9963D36BDC83D73B2FA3D8340163EF9
:103BE000A2102F3EC2C5473E135C603ECCCF783E4C
:103BF000938E883E31A0943EE59AA03ED47CAC3EA4
:103C00002A44B83E15EFC33ECA7BCF3E80E8DA3E79
:103C10007533E63EEA5AF13E275DFC3E3D9C033F8C
:103C20009BF5083FDA390E3F2A68133FC07F183FE3
:103C3000D17F1D3F9967223F5636273F4AEB2B3FE6
:103C4000BB85303FF304353F4268393FF9AE3D3F15
:103C500070D8413F03E4453F12D1493F029F4D3F99
:103C60003D4D513F31DB543F5348583F1A945B3F21
:103C700005BE5E3F98C5613F59AA643FD86B673F58
:103C8000A7096A3F5E836C3F9ED86E3F0809713F6B
:103C90004714733F0BFA743F07BA763FF853783FE7
:103CA0009DC7793FBE147B3F283B7C3FAC3A7D3FAC
:103CB00024137E3F6DC47E3F6D4E7F3F0FB17F3F2B
:103CC00043EC7F3F0000803F43EC7F3F0FB17F3FDD
:103CD000000000006E83F9A22915444ED15727FC3D
:103CE000C0DD34F5999562DB4190433CAB6351FEF6
:103CF000103D000800000020E8000000BC2C000877
:103D0000F83D0008E800002038880000CC2C0008AE
:103D10000000000001020304010203040607080971
:103D20000000000000000000000000000000000093
:103D30000000000000000000000000000000000083
:103D40000000000000000000000000000000000073
:103D50000000000000000000000000000000000063
:103D60000000000000000000000000000000000053
:103D70000000000000000000000000000000000043
:103D80000000000000000000000000000000000033
:103D90000000000000000000000000000000000023
:103DA0000000000000000000000000000000000013
:103DB00000000000000000000000C84200000000F9
:103DC00000000000000000000000000000000000F3
:103DD00000000000000000000000000000000000E3
:103DE00000000000000000000000000000000000D3
:083DF0000000000000000000CB
:040000050800018965
:00000001FF
